{
  "contractName": "AirnodeClient",
  "abi": [
    {
      "inputs": [
        {
          "internalType": "address",
          "name": "airnodeAddress",
          "type": "address"
        }
      ],
      "stateMutability": "nonpayable",
      "type": "constructor"
    },
    {
      "inputs": [],
      "name": "airnode",
      "outputs": [
        {
          "internalType": "contract IAirnode",
          "name": "",
          "type": "address"
        }
      ],
      "stateMutability": "view",
      "type": "function"
    },
    {
      "inputs": [],
      "name": "airnodeAddress",
      "outputs": [
        {
          "internalType": "address",
          "name": "_airnodeAddress",
          "type": "address"
        }
      ],
      "stateMutability": "view",
      "type": "function"
    }
  ],
  "bytecode": "0x608060405234801561001057600080fd5b506040516101b23803806101b28339818101604052602081101561003357600080fd5b8101908080519060200190929190505050806000806101000a81548173ffffffffffffffffffffffffffffffffffffffff021916908373ffffffffffffffffffffffffffffffffffffffff1602179055505061011e806100946000396000f3fe6080604052348015600f57600080fd5b506004361060325760003560e01c8063a36ff4d8146037578063d0bdd66c146069575b600080fd5b603d609b565b604051808273ffffffffffffffffffffffffffffffffffffffff16815260200191505060405180910390f35b606f60bf565b604051808273ffffffffffffffffffffffffffffffffffffffff16815260200191505060405180910390f35b60008054906101000a900473ffffffffffffffffffffffffffffffffffffffff1681565b60008060009054906101000a900473ffffffffffffffffffffffffffffffffffffffff1690509056fea264697066735822122048ed9580d0f37a6c294e9ee4c5e52336661a6c9b5b481ca7255191e8a20cd89964736f6c634300060c0033",
  "immutableReferences": {},
  "source": "// SPDX-License-Identifier: MIT\npragma solidity 0.6.12;\n\nimport \"./interfaces/IAirnodeClient.sol\";\nimport \"./interfaces/IAirnode.sol\";\n\n\n/// @title The contract to be inherited from to use Airnode to make requests\ncontract AirnodeClient is IAirnodeClient {\n    IAirnode public airnode;\n\n    /// @dev Airnode address is set at deployment. If you need to be able to\n    /// update it, you will have to implement that functionality (and probably\n    /// put it behind onlyOwner).\n    /// @param airnodeAddress Airnode contract address\n    constructor (address airnodeAddress)\n        public\n    {\n        airnode = IAirnode(airnodeAddress);\n    }\n\n    /// @notice Returns the Airnode contract address used by this client\n    /// @return _airnodeAddress Airnode contract address\n    function airnodeAddress()\n        external\n        view\n        override\n        returns(address _airnodeAddress)\n    {\n        _airnodeAddress = address(airnode);\n    }\n\n    /// @dev Reverts if the caller is not the Airnode contract\n    /// Use it as a modifier for fulfill and error callback methods\n    modifier onlyAirnode()\n    {\n        require(\n            msg.sender == address(airnode),\n            \"Caller not the Airnode contract\"\n            );\n        _;\n    }\n}\n",
  "sourcePath": "@api3/airnode-protocol/contracts/AirnodeClient.sol",
  "compiler": {
    "name": "solc",
    "version": "0.6.12+commit.27d51765.Emscripten.clang"
  },
  "schemaVersion": "3.4.1",
  "updatedAt": "2021-06-20T20:10:25.038Z",
  "devdoc": {
    "kind": "dev",
    "methods": {
      "airnodeAddress()": {
        "returns": {
          "_airnodeAddress": "Airnode contract address"
        }
      },
      "constructor": {
        "details": "Airnode address is set at deployment. If you need to be able to update it, you will have to implement that functionality (and probably put it behind onlyOwner).",
        "params": {
          "airnodeAddress": "Airnode contract address"
        }
      }
    },
    "title": "The contract to be inherited from to use Airnode to make requests",
    "version": 1
  },
  "userdoc": {
    "kind": "user",
    "methods": {
      "airnodeAddress()": {
        "notice": "Returns the Airnode contract address used by this client"
      }
    },
    "version": 1
  }
}