{
  "contractName": "TransferRequestClient",
  "abi": [
    {
      "inputs": [
        {
          "internalType": "address",
          "name": "airnodeAddress",
          "type": "address"
        }
      ],
      "stateMutability": "nonpayable",
      "type": "constructor"
    },
    {
      "anonymous": false,
      "inputs": [
        {
          "indexed": true,
          "internalType": "address",
          "name": "previousOwner",
          "type": "address"
        }
      ],
      "name": "OwnershipRenounced",
      "type": "event"
    },
    {
      "anonymous": false,
      "inputs": [
        {
          "indexed": true,
          "internalType": "address",
          "name": "previousOwner",
          "type": "address"
        },
        {
          "indexed": true,
          "internalType": "address",
          "name": "newOwner",
          "type": "address"
        }
      ],
      "name": "OwnershipTransferred",
      "type": "event"
    },
    {
      "inputs": [],
      "name": "airnode",
      "outputs": [
        {
          "internalType": "contract IAirnode",
          "name": "",
          "type": "address"
        }
      ],
      "stateMutability": "view",
      "type": "function"
    },
    {
      "inputs": [],
      "name": "airnodeAddress",
      "outputs": [
        {
          "internalType": "address",
          "name": "_airnodeAddress",
          "type": "address"
        }
      ],
      "stateMutability": "view",
      "type": "function"
    },
    {
      "inputs": [
        {
          "internalType": "bytes32",
          "name": "",
          "type": "bytes32"
        }
      ],
      "name": "amountSent",
      "outputs": [
        {
          "internalType": "uint256",
          "name": "",
          "type": "uint256"
        }
      ],
      "stateMutability": "view",
      "type": "function"
    },
    {
      "inputs": [],
      "name": "creator",
      "outputs": [
        {
          "internalType": "address",
          "name": "",
          "type": "address"
        }
      ],
      "stateMutability": "view",
      "type": "function"
    },
    {
      "inputs": [
        {
          "internalType": "bytes32",
          "name": "",
          "type": "bytes32"
        }
      ],
      "name": "dataRecepient",
      "outputs": [
        {
          "internalType": "address",
          "name": "",
          "type": "address"
        }
      ],
      "stateMutability": "view",
      "type": "function"
    },
    {
      "inputs": [
        {
          "internalType": "uint256",
          "name": "",
          "type": "uint256"
        }
      ],
      "name": "exchangeAddresses",
      "outputs": [
        {
          "internalType": "address",
          "name": "",
          "type": "address"
        }
      ],
      "stateMutability": "view",
      "type": "function"
    },
    {
      "inputs": [
        {
          "internalType": "bytes32",
          "name": "",
          "type": "bytes32"
        }
      ],
      "name": "fulfilledData",
      "outputs": [
        {
          "internalType": "bytes32",
          "name": "",
          "type": "bytes32"
        }
      ],
      "stateMutability": "view",
      "type": "function"
    },
    {
      "inputs": [
        {
          "internalType": "bytes32",
          "name": "",
          "type": "bytes32"
        }
      ],
      "name": "incomingFulfillments",
      "outputs": [
        {
          "internalType": "bool",
          "name": "",
          "type": "bool"
        }
      ],
      "stateMutability": "view",
      "type": "function"
    },
    {
      "inputs": [],
      "name": "isOwner",
      "outputs": [
        {
          "internalType": "bool",
          "name": "",
          "type": "bool"
        }
      ],
      "stateMutability": "view",
      "type": "function"
    },
    {
      "inputs": [],
      "name": "owner",
      "outputs": [
        {
          "internalType": "address",
          "name": "",
          "type": "address"
        }
      ],
      "stateMutability": "view",
      "type": "function"
    },
    {
      "inputs": [],
      "name": "renounceOwnership",
      "outputs": [],
      "stateMutability": "nonpayable",
      "type": "function"
    },
    {
      "inputs": [
        {
          "internalType": "address",
          "name": "newOwner",
          "type": "address"
        }
      ],
      "name": "transferOwnership",
      "outputs": [],
      "stateMutability": "nonpayable",
      "type": "function"
    },
    {
      "inputs": [
        {
          "internalType": "address",
          "name": "",
          "type": "address"
        }
      ],
      "name": "users",
      "outputs": [
        {
          "internalType": "string",
          "name": "name",
          "type": "string"
        },
        {
          "internalType": "string",
          "name": "userType",
          "type": "string"
        },
        {
          "internalType": "bool",
          "name": "exists",
          "type": "bool"
        },
        {
          "internalType": "uint256",
          "name": "btcBalance",
          "type": "uint256"
        },
        {
          "internalType": "uint256",
          "name": "dollarBalance",
          "type": "uint256"
        }
      ],
      "stateMutability": "view",
      "type": "function"
    },
    {
      "inputs": [
        {
          "internalType": "string",
          "name": "a",
          "type": "string"
        },
        {
          "internalType": "string",
          "name": "b",
          "type": "string"
        }
      ],
      "name": "compareStrings",
      "outputs": [
        {
          "internalType": "bool",
          "name": "",
          "type": "bool"
        }
      ],
      "stateMutability": "pure",
      "type": "function"
    },
    {
      "inputs": [
        {
          "internalType": "string",
          "name": "_name",
          "type": "string"
        }
      ],
      "name": "registerAsExchange",
      "outputs": [
        {
          "internalType": "bool",
          "name": "",
          "type": "bool"
        }
      ],
      "stateMutability": "nonpayable",
      "type": "function"
    },
    {
      "inputs": [
        {
          "internalType": "string",
          "name": "_name",
          "type": "string"
        }
      ],
      "name": "registerAsUser",
      "outputs": [
        {
          "internalType": "bool",
          "name": "",
          "type": "bool"
        }
      ],
      "stateMutability": "nonpayable",
      "type": "function"
    },
    {
      "inputs": [
        {
          "internalType": "string",
          "name": "_currency",
          "type": "string"
        }
      ],
      "name": "getBalance",
      "outputs": [
        {
          "internalType": "uint256",
          "name": "",
          "type": "uint256"
        }
      ],
      "stateMutability": "view",
      "type": "function"
    },
    {
      "inputs": [
        {
          "internalType": "address",
          "name": "_receiver",
          "type": "address"
        }
      ],
      "name": "transferEth",
      "outputs": [],
      "stateMutability": "payable",
      "type": "function"
    },
    {
      "inputs": [
        {
          "internalType": "address",
          "name": "_receiver",
          "type": "address"
        },
        {
          "internalType": "uint256",
          "name": "_amount",
          "type": "uint256"
        },
        {
          "internalType": "string",
          "name": "_currency",
          "type": "string"
        }
      ],
      "name": "transferToken",
      "outputs": [],
      "stateMutability": "payable",
      "type": "function"
    },
    {
      "inputs": [
        {
          "internalType": "address",
          "name": "_address",
          "type": "address"
        },
        {
          "internalType": "uint256",
          "name": "_amount",
          "type": "uint256"
        },
        {
          "internalType": "string",
          "name": "_currency",
          "type": "string"
        }
      ],
      "name": "deposit",
      "outputs": [],
      "stateMutability": "payable",
      "type": "function"
    },
    {
      "inputs": [],
      "name": "getExchangeList",
      "outputs": [
        {
          "internalType": "address[]",
          "name": "",
          "type": "address[]"
        }
      ],
      "stateMutability": "view",
      "type": "function"
    },
    {
      "inputs": [
        {
          "internalType": "string",
          "name": "_token_name",
          "type": "string"
        },
        {
          "internalType": "address",
          "name": "_exchange_address",
          "type": "address"
        },
        {
          "internalType": "uint256",
          "name": "_minimum_token_required",
          "type": "uint256"
        }
      ],
      "name": "exchangeEthForToken",
      "outputs": [],
      "stateMutability": "payable",
      "type": "function"
    },
    {
      "inputs": [
        {
          "internalType": "bytes32",
          "name": "providerId",
          "type": "bytes32"
        },
        {
          "internalType": "bytes32",
          "name": "endpointId",
          "type": "bytes32"
        },
        {
          "internalType": "uint256",
          "name": "requesterInd",
          "type": "uint256"
        },
        {
          "internalType": "address",
          "name": "designatedWallet",
          "type": "address"
        },
        {
          "internalType": "bytes",
          "name": "parameters",
          "type": "bytes"
        },
        {
          "internalType": "uint256",
          "name": "_amount",
          "type": "uint256"
        }
      ],
      "name": "getExchangeRate",
      "outputs": [],
      "stateMutability": "nonpayable",
      "type": "function"
    },
    {
      "inputs": [
        {
          "internalType": "bytes32",
          "name": "requestId",
          "type": "bytes32"
        },
        {
          "internalType": "uint256",
          "name": "statusCode",
          "type": "uint256"
        },
        {
          "internalType": "bytes32",
          "name": "data",
          "type": "bytes32"
        }
      ],
      "name": "fulfill",
      "outputs": [],
      "stateMutability": "nonpayable",
      "type": "function"
    },
    {
      "inputs": [
        {
          "internalType": "bytes32",
          "name": "x",
          "type": "bytes32"
        }
      ],
      "name": "asciiToInteger",
      "outputs": [
        {
          "internalType": "uint256",
          "name": "",
          "type": "uint256"
        }
      ],
      "stateMutability": "pure",
      "type": "function"
    }
  ],
  "bytecode": "0x60806040523480156200001157600080fd5b5060405162003adb38038062003adb833981810160405260208110156200003757600080fd5b810190808051906020019092919050505080806000806101000a81548173ffffffffffffffffffffffffffffffffffffffff021916908373ffffffffffffffffffffffffffffffffffffffff1602179055505033600160006101000a81548173ffffffffffffffffffffffffffffffffffffffff021916908373ffffffffffffffffffffffffffffffffffffffff16021790555033600660006101000a81548173ffffffffffffffffffffffffffffffffffffffff021916908373ffffffffffffffffffffffffffffffffffffffff1602179055506103e860076000600660009054906101000a900473ffffffffffffffffffffffffffffffffffffffff1673ffffffffffffffffffffffffffffffffffffffff1673ffffffffffffffffffffffffffffffffffffffff1681526020019081526020016000206003018190555061753060076000600660009054906101000a900473ffffffffffffffffffffffffffffffffffffffff1673ffffffffffffffffffffffffffffffffffffffff1673ffffffffffffffffffffffffffffffffffffffff168152602001908152602001600020600401819055506040518060400160405280600581526020017f61646d696e00000000000000000000000000000000000000000000000000000081525060076000600660009054906101000a900473ffffffffffffffffffffffffffffffffffffffff1673ffffffffffffffffffffffffffffffffffffffff1673ffffffffffffffffffffffffffffffffffffffff168152602001908152602001600020600001908051906020019062000291929190620003c6565b50600160076000600660009054906101000a900473ffffffffffffffffffffffffffffffffffffffff1673ffffffffffffffffffffffffffffffffffffffff1673ffffffffffffffffffffffffffffffffffffffff16815260200190815260200160002060020160006101000a81548160ff0219169083151502179055506040518060400160405280600581526020017f61646d696e00000000000000000000000000000000000000000000000000000081525060076000600660009054906101000a900473ffffffffffffffffffffffffffffffffffffffff1673ffffffffffffffffffffffffffffffffffffffff1673ffffffffffffffffffffffffffffffffffffffff1681526020019081526020016000206001019080519060200190620003be929190620003c6565b50506200046c565b828054600181600116156101000203166002900490600052602060002090601f016020900481019282601f106200040957805160ff19168380011785556200043a565b828001600101855582156200043a579182015b82811115620004395782518255916020019190600101906200041c565b5b5090506200044991906200044d565b5090565b5b80821115620004685760008160009055506001016200044e565b5090565b61365f806200047c6000396000f3fe6080604052600436106101665760003560e01c80638da5cb5b116100d1578063bed34bba1161008a578063d3bd146411610064578063d3bd146414610d13578063dd2ae83f14610d62578063e748135d14610db3578063f2fde38b14610e9157610166565b8063bed34bba14610a78578063bfe07da614610bed578063d0bdd66c14610cd257610166565b80638da5cb5b146107c15780638f32d59b146108025780639130e1821461082f57806399b2c1c71461089b578063a36ff4d8146108ea578063a87430ba1461092b57610166565b80633a51d246116101235780633a51d2461461046e578063406c6d6c1461054a578063515ef106146105995780635c0715a3146106775780636a0308bd146106dc578063715018a6146107aa57610166565b806302d05d3f1461016b57806303dcdfe4146101ac5780630c2035411461021157806310228dc3146102605780631b5639ae1461034557806330df47af1461042a575b600080fd5b34801561017757600080fd5b50610180610ee2565b604051808273ffffffffffffffffffffffffffffffffffffffff16815260200191505060405180910390f35b3480156101b857600080fd5b506101e5600480360360208110156101cf57600080fd5b8101908080359060200190929190505050610f08565b604051808273ffffffffffffffffffffffffffffffffffffffff16815260200191505060405180910390f35b34801561021d57600080fd5b5061024a6004803603602081101561023457600080fd5b8101908080359060200190929190505050610f44565b6040518082815260200191505060405180910390f35b6103436004803603606081101561027657600080fd5b81019080803573ffffffffffffffffffffffffffffffffffffffff16906020019092919080359060200190929190803590602001906401000000008111156102bd57600080fd5b8201836020820111156102cf57600080fd5b803590602001918460018302840111640100000000831117156102f157600080fd5b91908080601f016020809104026020016040519081016040528093929190818152602001838380828437600081840152601f19601f820116905080830192505050505050509192919290505050610f5c565b005b6104286004803603606081101561035b57600080fd5b810190808035906020019064010000000081111561037857600080fd5b82018360208201111561038a57600080fd5b803590602001918460018302840111640100000000831117156103ac57600080fd5b91908080601f016020809104026020016040519081016040528093929190818152602001838380828437600081840152601f19601f820116905080830192505050505050509192919290803573ffffffffffffffffffffffffffffffffffffffff169060200190929190803590602001909291905050506114c3565b005b61046c6004803603602081101561044057600080fd5b81019080803573ffffffffffffffffffffffffffffffffffffffff1690602001909291905050506119ce565b005b34801561047a57600080fd5b506105346004803603602081101561049157600080fd5b81019080803590602001906401000000008111156104ae57600080fd5b8201836020820111156104c057600080fd5b803590602001918460018302840111640100000000831117156104e257600080fd5b91908080601f016020809104026020016040519081016040528093929190818152602001838380828437600081840152601f19601f820116905080830192505050505050509192919290505050611bed565b6040518082815260200191505060405180910390f35b34801561055657600080fd5b506105836004803603602081101561056d57600080fd5b8101908080359060200190929190505050611ecc565b6040518082815260200191505060405180910390f35b3480156105a557600080fd5b5061065f600480360360208110156105bc57600080fd5b81019080803590602001906401000000008111156105d957600080fd5b8201836020820111156105eb57600080fd5b8035906020019184600183028401116401000000008311171561060d57600080fd5b91908080601f016020809104026020016040519081016040528093929190818152602001838380828437600081840152601f19601f820116905080830192505050505050509192919290505050611ee4565b60405180821515815260200191505060405180910390f35b34801561068357600080fd5b506106b06004803603602081101561069a57600080fd5b810190808035906020019092919050505061225b565b604051808273ffffffffffffffffffffffffffffffffffffffff16815260200191505060405180910390f35b3480156106e857600080fd5b506107a8600480360360c08110156106ff57600080fd5b81019080803590602001909291908035906020019092919080359060200190929190803573ffffffffffffffffffffffffffffffffffffffff1690602001909291908035906020019064010000000081111561075a57600080fd5b82018360208201111561076c57600080fd5b8035906020019184600183028401116401000000008311171561078e57600080fd5b90919293919293908035906020019092919050505061228e565b005b3480156107b657600080fd5b506107bf61248f565b005b3480156107cd57600080fd5b506107d6612549565b604051808273ffffffffffffffffffffffffffffffffffffffff16815260200191505060405180910390f35b34801561080e57600080fd5b50610817612573565b60405180821515815260200191505060405180910390f35b34801561083b57600080fd5b506108446125cb565b6040518080602001828103825283818151815260200191508051906020019060200280838360005b8381101561088757808201518184015260208101905061086c565b505050509050019250505060405180910390f35b3480156108a757600080fd5b506108d4600480360360208110156108be57600080fd5b8101908080359060200190929190505050612659565b6040518082815260200191505060405180910390f35b3480156108f657600080fd5b506108ff6126c0565b604051808273ffffffffffffffffffffffffffffffffffffffff16815260200191505060405180910390f35b34801561093757600080fd5b5061097a6004803603602081101561094e57600080fd5b81019080803573ffffffffffffffffffffffffffffffffffffffff1690602001909291905050506126e4565b6040518080602001806020018615158152602001858152602001848152602001838103835288818151815260200191508051906020019080838360005b838110156109d25780820151818401526020810190506109b7565b50505050905090810190601f1680156109ff5780820380516001836020036101000a031916815260200191505b50838103825287818151815260200191508051906020019080838360005b83811015610a38578082015181840152602081019050610a1d565b50505050905090810190601f168015610a655780820380516001836020036101000a031916815260200191505b5097505050505050505060405180910390f35b348015610a8457600080fd5b50610bd560048036036040811015610a9b57600080fd5b8101908080359060200190640100000000811115610ab857600080fd5b820183602082011115610aca57600080fd5b80359060200191846001830284011164010000000083111715610aec57600080fd5b91908080601f016020809104026020016040519081016040528093929190818152602001838380828437600081840152601f19601f82011690508083019250505050505050919291929080359060200190640100000000811115610b4f57600080fd5b820183602082011115610b6157600080fd5b80359060200191846001830284011164010000000083111715610b8357600080fd5b91908080601f016020809104026020016040519081016040528093929190818152602001838380828437600081840152601f19601f820116905080830192505050505050509192919290505050612857565b60405180821515815260200191505060405180910390f35b610cd060048036036060811015610c0357600080fd5b81019080803573ffffffffffffffffffffffffffffffffffffffff1690602001909291908035906020019092919080359060200190640100000000811115610c4a57600080fd5b820183602082011115610c5c57600080fd5b80359060200191846001830284011164010000000083111715610c7e57600080fd5b91908080601f016020809104026020016040519081016040528093929190818152602001838380828437600081840152601f19601f820116905080830192505050505050509192919290505050612946565b005b348015610cde57600080fd5b50610ce7612d09565b604051808273ffffffffffffffffffffffffffffffffffffffff16815260200191505060405180910390f35b348015610d1f57600080fd5b50610d6060048036036060811015610d3657600080fd5b81019080803590602001909291908035906020019092919080359060200190929190505050612d32565b005b348015610d6e57600080fd5b50610d9b60048036036020811015610d8557600080fd5b8101908080359060200190929190505050612f1d565b60405180821515815260200191505060405180910390f35b348015610dbf57600080fd5b50610e7960048036036020811015610dd657600080fd5b8101908080359060200190640100000000811115610df357600080fd5b820183602082011115610e0557600080fd5b80359060200191846001830284011164010000000083111715610e2757600080fd5b91908080601f016020809104026020016040519081016040528093929190818152602001838380828437600081840152601f19601f820116905080830192505050505050509192919290505050612f3d565b60405180821515815260200191505060405180910390f35b348015610e9d57600080fd5b50610ee060048036036020811015610eb457600080fd5b81019080803573ffffffffffffffffffffffffffffffffffffffff16906020019092919050505061331a565b005b600660009054906101000a900473ffffffffffffffffffffffffffffffffffffffff1681565b60088181548110610f1557fe5b906000526020600020016000915054906101000a900473ffffffffffffffffffffffffffffffffffffffff1681565b60056020528060005260406000206000915090505481565b8082600760003373ffffffffffffffffffffffffffffffffffffffff1673ffffffffffffffffffffffffffffffffffffffff16815260200190815260200160002060020160009054906101000a900460ff161561122557610ff2826040518060400160405280600381526020017f6274630000000000000000000000000000000000000000000000000000000000815250612857565b156110b45780600760003373ffffffffffffffffffffffffffffffffffffffff1673ffffffffffffffffffffffffffffffffffffffff1681526020019081526020016000206003015410156110af576040517f08c379a00000000000000000000000000000000000000000000000000000000081526004018080602001828103825260158152602001807f6e6f2073756666696369656e742062616c616e6365000000000000000000000081525060200191505060405180910390fd5b611224565b6110f3826040518060400160405280600381526020017f7573640000000000000000000000000000000000000000000000000000000000815250612857565b156111b55780600760003373ffffffffffffffffffffffffffffffffffffffff1673ffffffffffffffffffffffffffffffffffffffff1681526020019081526020016000206004015410156111b0576040517f08c379a00000000000000000000000000000000000000000000000000000000081526004018080602001828103825260158152602001807f6e6f2073756666696369656e742062616c616e6365000000000000000000000081525060200191505060405180910390fd5b611223565b6040517f08c379a00000000000000000000000000000000000000000000000000000000081526004018080602001828103825260168152602001807f736f6d657468696e67206261642068617070656e65640000000000000000000081525060200191505060405180910390fd5b5b5b600760003373ffffffffffffffffffffffffffffffffffffffff1673ffffffffffffffffffffffffffffffffffffffff16815260200190815260200160002060020160009054906101000a900460ff16156114bc576112b9836040518060400160405280600381526020017f6274630000000000000000000000000000000000000000000000000000000000815250612857565b156113635783600760003373ffffffffffffffffffffffffffffffffffffffff1673ffffffffffffffffffffffffffffffffffffffff1681526020019081526020016000206003016000828254039250508190555083600760008773ffffffffffffffffffffffffffffffffffffffff1673ffffffffffffffffffffffffffffffffffffffff168152602001908152602001600020600301600082825401925050819055506114bb565b6113a2836040518060400160405280600381526020017f7573640000000000000000000000000000000000000000000000000000000000815250612857565b1561144c5783600760003373ffffffffffffffffffffffffffffffffffffffff1673ffffffffffffffffffffffffffffffffffffffff1681526020019081526020016000206004016000828254039250508190555083600760008773ffffffffffffffffffffffffffffffffffffffff1673ffffffffffffffffffffffffffffffffffffffff168152602001908152602001600020600401600082825401925050819055506114ba565b6040517f08c379a00000000000000000000000000000000000000000000000000000000081526004018080602001828103825260168152602001807f536f6d657468696e67206261642068617070656e65640000000000000000000081525060200191505060405180910390fd5b5b5b5050505050565b3360011515600760008373ffffffffffffffffffffffffffffffffffffffff1673ffffffffffffffffffffffffffffffffffffffff16815260200190815260200160002060020160009054906101000a900460ff1615151461158d576040517f08c379a000000000000000000000000000000000000000000000000000000000815260040180806020018281038252601b8152602001807f4f6f6f707320212055736572206e6f742072656769737465726564000000000081525060200191505060405180910390fd5b34600760003373ffffffffffffffffffffffffffffffffffffffff1673ffffffffffffffffffffffffffffffffffffffff16815260200190815260200160002060020160009054906101000a900460ff161561167157803373ffffffffffffffffffffffffffffffffffffffff16311015611670576040517f08c379a00000000000000000000000000000000000000000000000000000000081526004018080602001828103825260148152602001807f696e73756666696369656e742062616c616e636500000000000000000000000081525060200191505060405180910390fd5b5b8484846116b3836040518060400160405280600381526020017f7573640000000000000000000000000000000000000000000000000000000000815250612857565b156117585780600760008473ffffffffffffffffffffffffffffffffffffffff1673ffffffffffffffffffffffffffffffffffffffff168152602001908152602001600020600401541015611753576040517f08c379a000000000000000000000000000000000000000000000000000000000815260040180806020018281038252602b8152602001806134cf602b913960400191505060405180910390fd5b6118ab565b611797836040518060400160405280600381526020017f6274630000000000000000000000000000000000000000000000000000000000815250612857565b1561183c5780600760008473ffffffffffffffffffffffffffffffffffffffff1673ffffffffffffffffffffffffffffffffffffffff168152602001908152602001600020600301541015611837576040517f08c379a00000000000000000000000000000000000000000000000000000000081526004018080602001828103825260298152602001806136016029913960400191505060405180910390fd5b6118aa565b6040517f08c379a00000000000000000000000000000000000000000000000000000000081526004018080602001828103825260168152602001807f736f6d657468696e67206261642068617070656e65640000000000000000000081525060200191505060405180910390fd5b5b3073ffffffffffffffffffffffffffffffffffffffff16636a0308bd7fd7c601d810ba4e391e3e23307eae641990b99ded048768bef070ce04b2d3f1157ff466b8feec41e9e50815e0c9dca4db1ff959637e564bb13fefa99e9f9f90453c609f73ead984fc8a4880f33ea53c11aed2a38b44e3755b601e6040518663ffffffff1660e01b8152600401808660001b81526020018560001b81526020018481526020018373ffffffffffffffffffffffffffffffffffffffff16815260200180602001838152602001828103825260c281526020018061353f60c2913960e0019650505050505050600060405180830381600087803b1580156119ac57600080fd5b505af11580156119c0573d6000803e3d6000fd5b505050505050505050505050565b34600760003373ffffffffffffffffffffffffffffffffffffffff1673ffffffffffffffffffffffffffffffffffffffff16815260200190815260200160002060020160009054906101000a900460ff1615611ab257803373ffffffffffffffffffffffffffffffffffffffff16311015611ab1576040517f08c379a00000000000000000000000000000000000000000000000000000000081526004018080602001828103825260148152602001807f696e73756666696369656e742062616c616e636500000000000000000000000081525060200191505060405180910390fd5b5b600760003373ffffffffffffffffffffffffffffffffffffffff1673ffffffffffffffffffffffffffffffffffffffff16815260200190815260200160002060020160009054906101000a900460ff1615611be957600060608373ffffffffffffffffffffffffffffffffffffffff163460405180600001905060006040518083038185875af1925050503d8060008114611b69576040519150601f19603f3d011682016040523d82523d6000602084013e611b6e565b606091505b509150915081611be6576040517f08c379a00000000000000000000000000000000000000000000000000000000081526004018080602001828103825260148152602001807f4661696c656420746f2073656e6420657468657200000000000000000000000081525060200191505060405180910390fd5b50505b5050565b60003360011515600760008373ffffffffffffffffffffffffffffffffffffffff1673ffffffffffffffffffffffffffffffffffffffff16815260200190815260200160002060020160009054906101000a900460ff16151514611cb9576040517f08c379a000000000000000000000000000000000000000000000000000000000815260040180806020018281038252601b8152602001807f4f6f6f707320212055736572206e6f742072656769737465726564000000000081525060200191505060405180910390fd5b611cd28360405180602001604052806000815250612857565b80611d185750611d17836040518060400160405280600381526020017f6574680000000000000000000000000000000000000000000000000000000000815250612857565b5b15611d3c573373ffffffffffffffffffffffffffffffffffffffff16319150611ec6565b611d7b836040518060400160405280600381526020017f6274630000000000000000000000000000000000000000000000000000000000815250612857565b15611dca57600760003373ffffffffffffffffffffffffffffffffffffffff1673ffffffffffffffffffffffffffffffffffffffff168152602001908152602001600020600301549150611ec6565b611e09836040518060400160405280600381526020017f7573640000000000000000000000000000000000000000000000000000000000815250612857565b15611e5857600760003373ffffffffffffffffffffffffffffffffffffffff1673ffffffffffffffffffffffffffffffffffffffff168152602001908152602001600020600401549150611ec6565b6040517f08c379a00000000000000000000000000000000000000000000000000000000081526004018080602001828103825260168152602001807f536f6d657468696e67206261642068617070656e65640000000000000000000081525060200191505060405180910390fd5b50919050565b60036020528060005260406000206000915090505481565b600081600015156009826040518082805190602001908083835b60208310611f215780518252602082019150602081019050602083039250611efe565b6001836020036101000a038019825116818451168082178552505050505050905001915050908152602001604051809103902060009054906101000a900460ff16151514611fd7576040517f08c379a000000000000000000000000000000000000000000000000000000000815260040180806020018281038252601b8152602001807f4f6f6f70732021204e616d6520616c726561647920657869737473000000000081525060200191505060405180910390fd5b60001515600760003373ffffffffffffffffffffffffffffffffffffffff1673ffffffffffffffffffffffffffffffffffffffff16815260200190815260200160002060020160009054906101000a900460ff16151514612083576040517f08c379a000000000000000000000000000000000000000000000000000000000815260040180806020018281038252602281526020018061351d6022913960400191505060405180910390fd5b82600760003373ffffffffffffffffffffffffffffffffffffffff1673ffffffffffffffffffffffffffffffffffffffff16815260200190815260200160002060000190805190602001906120d9929190613431565b506000600760003373ffffffffffffffffffffffffffffffffffffffff1673ffffffffffffffffffffffffffffffffffffffff168152602001908152602001600020600301819055506000600760003373ffffffffffffffffffffffffffffffffffffffff1673ffffffffffffffffffffffffffffffffffffffff168152602001908152602001600020600401819055506001600760003373ffffffffffffffffffffffffffffffffffffffff1673ffffffffffffffffffffffffffffffffffffffff16815260200190815260200160002060020160006101000a81548160ff0219169083151502179055506040518060400160405280600481526020017f7573657200000000000000000000000000000000000000000000000000000000815250600760003373ffffffffffffffffffffffffffffffffffffffff1673ffffffffffffffffffffffffffffffffffffffff1681526020019081526020016000206001019080519060200190612250929190613431565b506001915050919050565b60046020528060005260406000206000915054906101000a900473ffffffffffffffffffffffffffffffffffffffff1681565b60008060009054906101000a900473ffffffffffffffffffffffffffffffffffffffff1673ffffffffffffffffffffffffffffffffffffffff1663dce9c276898989893063d3bd146460e01b8b8b6040518963ffffffff1660e01b8152600401808981526020018881526020018781526020018673ffffffffffffffffffffffffffffffffffffffff1681526020018573ffffffffffffffffffffffffffffffffffffffff168152602001847bffffffffffffffffffffffffffffffffffffffffffffffffffffffff19168152602001806020018281038252848482818152602001925080828437600081840152601f19601f8201169050808301925050509950505050505050505050602060405180830381600087803b1580156123b257600080fd5b505af11580156123c6573d6000803e3d6000fd5b505050506040513d60208110156123dc57600080fd5b81019080805190602001909291905050509050336004600083815260200190815260200160002060006101000a81548173ffffffffffffffffffffffffffffffffffffffff021916908373ffffffffffffffffffffffffffffffffffffffff16021790555081600560008381526020019081526020016000208190555060016002600083815260200190815260200160002060006101000a81548160ff0219169083151502179055505050505050505050565b612497612573565b6124a057600080fd5b600160009054906101000a900473ffffffffffffffffffffffffffffffffffffffff1673ffffffffffffffffffffffffffffffffffffffff167ff8df31144d9c2f0f6b59d69b8b98abd5459d07f2742c4df920b25aae33c6482060405160405180910390a26000600160006101000a81548173ffffffffffffffffffffffffffffffffffffffff021916908373ffffffffffffffffffffffffffffffffffffffff160217905550565b6000600160009054906101000a900473ffffffffffffffffffffffffffffffffffffffff16905090565b6000600160009054906101000a900473ffffffffffffffffffffffffffffffffffffffff1673ffffffffffffffffffffffffffffffffffffffff163373ffffffffffffffffffffffffffffffffffffffff1614905090565b6060600880548060200260200160405190810160405280929190818152602001828054801561264f57602002820191906000526020600020905b8160009054906101000a900473ffffffffffffffffffffffffffffffffffffffff1673ffffffffffffffffffffffffffffffffffffffff1681526020019060010190808311612605575b5050505050905090565b60008060005b60208110156126b657600060ff600883028660001c901c1690508060301115801561268b575060398111155b156126a25781600a0a6030820302830192506126a8565b506126b6565b50808060010191505061265f565b5080915050919050565b60008054906101000a900473ffffffffffffffffffffffffffffffffffffffff1681565b6007602052806000526040600020600091509050806000018054600181600116156101000203166002900480601f0160208091040260200160405190810160405280929190818152602001828054600181600116156101000203166002900480156127905780601f1061276557610100808354040283529160200191612790565b820191906000526020600020905b81548152906001019060200180831161277357829003601f168201915b505050505090806001018054600181600116156101000203166002900480601f01602080910402602001604051908101604052809291908181526020018280546001816001161561010002031660029004801561282e5780601f106128035761010080835404028352916020019161282e565b820191906000526020600020905b81548152906001019060200180831161281157829003601f168201915b5050505050908060020160009054906101000a900460ff16908060030154908060040154905085565b6000816040516020018082805190602001908083835b60208310612890578051825260208201915060208101905060208303925061286d565b6001836020036101000a03801982511681845116808217855250505050505090500191505060405160208183030381529060405280519060200120836040516020018082805190602001908083835b6020831061290257805182526020820191506020810190506020830392506128df565b6001836020036101000a0380198251168184511680821785525050505050509050019150506040516020818303038152906040528051906020012014905092915050565b600660009054906101000a900473ffffffffffffffffffffffffffffffffffffffff1673ffffffffffffffffffffffffffffffffffffffff163373ffffffffffffffffffffffffffffffffffffffff16146129ec576040517f08c379a00000000000000000000000000000000000000000000000000000000081526004018080602001828103825260238152602001806134fa6023913960400191505060405180910390fd5b612a2b816040518060400160405280600381526020017f6274630000000000000000000000000000000000000000000000000000000000815250612857565b15612af75781600760008573ffffffffffffffffffffffffffffffffffffffff1673ffffffffffffffffffffffffffffffffffffffff168152602001908152602001600020600301600082825401925050819055508160076000600660009054906101000a900473ffffffffffffffffffffffffffffffffffffffff1673ffffffffffffffffffffffffffffffffffffffff1673ffffffffffffffffffffffffffffffffffffffff16815260200190815260200160002060030160008282540392505081905550612d04565b612b36816040518060400160405280600381526020017f7573640000000000000000000000000000000000000000000000000000000000815250612857565b15612c025781600760008573ffffffffffffffffffffffffffffffffffffffff1673ffffffffffffffffffffffffffffffffffffffff168152602001908152602001600020600401600082825401925050819055508160076000600660009054906101000a900473ffffffffffffffffffffffffffffffffffffffff1673ffffffffffffffffffffffffffffffffffffffff1673ffffffffffffffffffffffffffffffffffffffff16815260200190815260200160002060040160008282540392505081905550612d03565b612c1b8160405180602001604052806000815250612857565b15612d0257600060608473ffffffffffffffffffffffffffffffffffffffff163460405180600001905060006040518083038185875af1925050503d8060008114612c82576040519150601f19603f3d011682016040523d82523d6000602084013e612c87565b606091505b509150915081612cff576040517f08c379a00000000000000000000000000000000000000000000000000000000081526004018080602001828103825260148152602001807f4661696c656420746f2073656e6420657468657200000000000000000000000081525060200191505060405180910390fd5b50505b5b5b505050565b60008060009054906101000a900473ffffffffffffffffffffffffffffffffffffffff16905090565b60008054906101000a900473ffffffffffffffffffffffffffffffffffffffff1673ffffffffffffffffffffffffffffffffffffffff163373ffffffffffffffffffffffffffffffffffffffff1614612df3576040517f08c379a000000000000000000000000000000000000000000000000000000000815260040180806020018281038252601f8152602001807f43616c6c6572206e6f7420746865204169726e6f646520636f6e74726163740081525060200191505060405180910390fd5b6002600084815260200190815260200160002060009054906101000a900460ff16612e86576040517f08c379a00000000000000000000000000000000000000000000000000000000081526004018080602001828103825260148152602001807f4e6f20737563682072657175657374206d61646500000000000000000000000081525060200191505060405180910390fd5b6002600084815260200190815260200160002060006101000a81549060ff02191690556000821415612f18576004600084815260200190815260200160002060006101000a81549073ffffffffffffffffffffffffffffffffffffffff021916905560056000848152602001908152602001600020600090558060036000858152602001908152602001600020819055505b505050565b60026020528060005260406000206000915054906101000a900460ff1681565b600081600015156009826040518082805190602001908083835b60208310612f7a5780518252602082019150602081019050602083039250612f57565b6001836020036101000a038019825116818451168082178552505050505050905001915050908152602001604051809103902060009054906101000a900460ff16151514613030576040517f08c379a000000000000000000000000000000000000000000000000000000000815260040180806020018281038252601b8152602001807f4f6f6f70732021204e616d6520616c726561647920657869737473000000000081525060200191505060405180910390fd5b60001515600760003373ffffffffffffffffffffffffffffffffffffffff1673ffffffffffffffffffffffffffffffffffffffff16815260200190815260200160002060020160009054906101000a900460ff161515146130dc576040517f08c379a000000000000000000000000000000000000000000000000000000000815260040180806020018281038252602281526020018061351d6022913960400191505060405180910390fd5b82600760003373ffffffffffffffffffffffffffffffffffffffff1673ffffffffffffffffffffffffffffffffffffffff1681526020019081526020016000206000019080519060200190613132929190613431565b506103e8600760003373ffffffffffffffffffffffffffffffffffffffff1673ffffffffffffffffffffffffffffffffffffffff16815260200190815260200160002060030181905550620249f0600760003373ffffffffffffffffffffffffffffffffffffffff1673ffffffffffffffffffffffffffffffffffffffff168152602001908152602001600020600401819055506001600760003373ffffffffffffffffffffffffffffffffffffffff1673ffffffffffffffffffffffffffffffffffffffff16815260200190815260200160002060020160006101000a81548160ff0219169083151502179055506040518060400160405280600881526020017f65786368616e6765000000000000000000000000000000000000000000000000815250600760003373ffffffffffffffffffffffffffffffffffffffff1673ffffffffffffffffffffffffffffffffffffffff16815260200190815260200160002060010190805190602001906132ac929190613431565b506008339080600181540180825580915050600190039060005260206000200160009091909190916101000a81548173ffffffffffffffffffffffffffffffffffffffff021916908373ffffffffffffffffffffffffffffffffffffffff1602179055506001915050919050565b613322612573565b61332b57600080fd5b61333481613337565b50565b600073ffffffffffffffffffffffffffffffffffffffff168173ffffffffffffffffffffffffffffffffffffffff16141561337157600080fd5b8073ffffffffffffffffffffffffffffffffffffffff16600160009054906101000a900473ffffffffffffffffffffffffffffffffffffffff1673ffffffffffffffffffffffffffffffffffffffff167f8be0079c531659141344cd1fd0a4f28419497f9722a3daafe3b4186f6b6457e060405160405180910390a380600160006101000a81548173ffffffffffffffffffffffffffffffffffffffff021916908373ffffffffffffffffffffffffffffffffffffffff16021790555050565b828054600181600116156101000203166002900490600052602060002090601f016020900481019282601f1061347257805160ff19168380011785556134a0565b828001600101855582156134a0579182015b8281111561349f578251825591602001919060010190613484565b5b5090506134ad91906134b1565b5090565b5b808211156134ca5760008160009055506001016134b2565b509056fe5468652065786368616e676520646f65736e2774206861766520656e6f75676820555320646f6c6c6172734f6e6c79206f776e65722063616e20696e766f6b6520746869732066756e6374696f6e4f6f6f70732021204164647265737320616c7265616479207265676973746572656430783331363230303030303030303030303030303030303030303030303030303030303030303030303030303030303030303030303030303030303030303030303036333666363936653439363430303030303030303030303030303030303030303030303030303030303030303030303030303030303030303030303030303030363236393734363336663639366530303030303030303030303030303030303030303030303030303030303030303030303030303030303030303030303030305468652065786368616e676520646f65736e2774206861766520656e6f75676820626974636f696e73a264697066735822122020280953ddfb822e8c1d0b424f8e53396e3c68414794a6a5d8714336fb4f479064736f6c634300060c0033",
  "immutableReferences": {},
  "source": "pragma solidity >=0.6.12;\nimport \"./Ownable.sol\";\nimport \"@api3/airnode-protocol/contracts/AirnodeClient.sol\";\n\ncontract TransferRequestClient is AirnodeClient,Ownable{\n\n\n    struct User{\n        string name;\n        string userType;\n        bool exists;\n        uint btcBalance;\n        uint dollarBalance;\n    }\n\n\n    mapping(bytes32 => bool) public incomingFulfillments;\n    mapping(bytes32 => bytes32) public fulfilledData;\n    mapping(bytes32 => address) public dataRecepient;\n    mapping(bytes32 => uint) public amountSent;\n\n\n    address public creator;\n    mapping(address => User) public users;\n    address[] public exchangeAddresses;\n    mapping (string => bool) isUsernameTaken;\n\n\n    constructor(address airnodeAddress) public AirnodeClient(airnodeAddress){\n        creator = msg.sender;\n        users[creator].btcBalance = 1000;\n        users[creator].dollarBalance = 30000;\n        users[creator].name = \"admin\";\n        users[creator].exists = true;\n        users[creator].userType = \"admin\";\n    }\n\n\n\n    modifier ownerOnly{\n        require(msg.sender == creator, \"Only owner can invoke this function\");\n        _;\n    }\n\n\n    modifier ifNameExists(string memory _name){\n        require(isUsernameTaken[_name] == false, \"Ooops ! Name already exists\");\n        require(users[msg.sender].exists == false, \"Ooops ! Address already registered\");\n        _;\n    }\n\n    modifier isUserRegistered(address _address){\n        require(users[_address].exists == true, \"Ooops ! User not registered\");\n        _;\n    }\n\n    modifier amountCheck(string memory _currency,uint _amount){\n        if(users[msg.sender].exists){\n            if(compareStrings(_currency,\"btc\")){\n                require(users[msg.sender].btcBalance >= _amount,\"no sufficient balance\");\n            }\n            else if(compareStrings(_currency,\"usd\")){\n                require(users[msg.sender].dollarBalance >= _amount,\"no sufficient balance\");\n            }\n            else{\n                revert('something bad happened');\n                \n            }\n\n        }\n        _;\n    }\n    \n    \n    modifier ethCheck(uint _value){\n        if(users[msg.sender].exists){\n                require(msg.sender.balance >= _value,\"insufficient balance\");\n        }\n        _;\n    }\n    \n    \n    modifier tokenQuantityCheck(string memory _token_name,address _exchange_address, uint _token_quantity){\n        if(compareStrings(_token_name,\"usd\")){\n            require(users[_exchange_address].dollarBalance >= _token_quantity,\"The exchange doesn't have enough US dollars\");\n        }\n        else if(compareStrings(_token_name,\"btc\")){\n            require(users[_exchange_address].btcBalance >= _token_quantity,\"The exchange doesn't have enough bitcoins\");\n        }\n        else{\n            revert(\"something bad happened\");\n        }\n        _;\n        \n    }\n    \n\n    function compareStrings(string memory a, string memory b) public pure returns (bool) {\n        return (keccak256(abi.encodePacked((a))) == keccak256(abi.encodePacked((b))));\n    }\n\n    function registerAsExchange(string memory _name) public ifNameExists(_name) returns(bool) {\n        users[msg.sender].name = _name;\n        users[msg.sender].btcBalance = 1000;\n        users[msg.sender].dollarBalance = 150000;\n        users[msg.sender].exists = true;\n        users[msg.sender].userType = \"exchange\";\n        exchangeAddresses.push(msg.sender);\n        return true;\n    }\n\n    function registerAsUser(string memory _name) public ifNameExists(_name) returns(bool){\n        users[msg.sender].name = _name;\n        users[msg.sender].btcBalance = 0;\n        users[msg.sender].dollarBalance = 0;\n        users[msg.sender].exists = true;\n        users[msg.sender].userType = \"user\";\n        return true;\n    }\n\n\n\n\n    function getBalance(string memory _currency) public isUserRegistered(msg.sender) view returns(uint){\n        if(compareStrings(_currency,\"\") || compareStrings(_currency,\"eth\")){\n            return msg.sender.balance;\n        }\n        else if(compareStrings(_currency,\"btc\")){\n            return users[msg.sender].btcBalance;\n        }\n         else if(compareStrings(_currency,\"usd\")){\n            return users[msg.sender].dollarBalance;\n        }\n        else{\n            revert('Something bad happened');\n        }\n        \n    }\n\n\n\n    function transferEth(address _receiver) public payable ethCheck(msg.value){\n        if(users[msg.sender].exists){\n            (bool sent,bytes memory data)= _receiver.call{value:msg.value}(\"\");\n            require(sent, \"Failed to send ether\");\n        }\n    }\n    \n    \n    function transferToken(address _receiver, uint _amount, string memory _currency) public payable amountCheck(_currency, _amount){\n\n        if(users[msg.sender].exists){\n            if(compareStrings(_currency,\"btc\")){\n                users[msg.sender].btcBalance -= _amount;\n                users[_receiver].btcBalance += _amount;\n            }\n            else if(compareStrings(_currency,\"usd\")){\n                users[msg.sender].dollarBalance -= _amount;\n                users[_receiver].dollarBalance += _amount;\n            }\n            else{\n                revert('Something bad happened');\n            }\n        }\n    }\n\n\n\n    function deposit(address _address,uint _amount,string memory _currency) public payable ownerOnly{\n        if(compareStrings(_currency,\"btc\")){\n            users[_address].btcBalance += _amount;\n            users[creator].btcBalance -= _amount;\n        }\n        else if(compareStrings(_currency,\"usd\")){\n            users[_address].dollarBalance += _amount;\n            users[creator].dollarBalance -= _amount;\n        }\n        else if(compareStrings(_currency,\"\")){\n            (bool sent,bytes memory data)= _address.call{value:msg.value}(\"\");\n            require(sent, \"Failed to send ether\");\n        }\n    }\n\n\n    function getExchangeList() public view returns(address[] memory){\n        return exchangeAddresses;\n    }\n    \n    \n    \n    function exchangeEthForToken(string memory _token_name,address _exchange_address,uint _minimum_token_required) public payable isUserRegistered(msg.sender) ethCheck(msg.value) tokenQuantityCheck(_token_name, _exchange_address, _minimum_token_required){\n        this.getExchangeRate(0xd7c601d810ba4e391e3e23307eae641990b99ded048768bef070ce04b2d3f115, 0xf466b8feec41e9e50815e0c9dca4db1ff959637e564bb13fefa99e9f9f90453c, 159,0xead984FC8A4880F33EA53C11aeD2A38b44E3755b ,\"0x3162000000000000000000000000000000000000000000000000000000000000636f696e49640000000000000000000000000000000000000000000000000000626974636f696e00000000000000000000000000000000000000000000000000\", 30);\n        //(bool sent,bytes memory data) = _exchange_address.call{value:msg.value}(\"\");\n        //require(sent, \"Failed to send ether\");\n    }\n    \n    \n    function getExchangeRate(bytes32 providerId,bytes32 endpointId,uint requesterInd,address designatedWallet,bytes calldata parameters,uint _amount) external\n    {\n        bytes32 requestId = airnode.makeFullRequest(\n            providerId,\n            endpointId,\n            requesterInd,\n            designatedWallet,\n            address(this),\n            this.fulfill.selector,\n            parameters\n        );\n        dataRecepient[requestId] = msg.sender;\n        amountSent[requestId] = _amount;\n        incomingFulfillments[requestId] = true;\n    }\n\n\n    function fulfill(bytes32 requestId,uint256 statusCode,bytes32 data) external onlyAirnode()\n    {\n        \n        require(incomingFulfillments[requestId], \"No such request made\");\n        delete incomingFulfillments[requestId];\n        \n        if (statusCode == 0)\n        {\n            //users[dataRecepient[requestId]].btcBalance -= amountSent[requestId];\n            //users[dataRecepient[requestId]].dollarBalance += asciiToInteger(data) * amountSent[requestId];\n            delete dataRecepient[requestId];\n            delete amountSent[requestId];\n            fulfilledData[requestId] = data;\n            \n        }\n\n    }\n    \n    \n    \n\n\n    function asciiToInteger(bytes32 x) public pure returns (uint256) {\n        uint256 y;\n        for (uint256 i = 0; i < 32; i++) {\n            uint256 c = (uint256(x) >> (i * 8)) & 0xff;\n            if (48 <= c && c <= 57)\n                y += (c - 48) * 10 ** i;\n            else\n                break;\n        }\n        return y;\n    }\n\n\n\n\n\n\n\n\n\n\n}\n\n",
  "sourcePath": "/home/kesha/Documents/weather/contracts/TransferRequestClient.sol",
  "compiler": {
    "name": "solc",
    "version": "0.6.12+commit.27d51765.Emscripten.clang"
  },
  "schemaVersion": "3.4.1",
  "updatedAt": "2021-06-19T13:41:23.260Z",
  "devdoc": {
    "kind": "dev",
    "methods": {
      "airnodeAddress()": {
        "returns": {
          "_airnodeAddress": "Airnode contract address"
        }
      },
      "isOwner()": {
        "returns": {
          "_0": "true if `msg.sender` is the owner of the contract."
        }
      },
      "owner()": {
        "returns": {
          "_0": "the address of the owner."
        }
      },
      "renounceOwnership()": {
        "details": "Allows the current owner to relinquish control of the contract."
      },
      "transferOwnership(address)": {
        "details": "Allows the current owner to transfer control of the contract to a newOwner.",
        "params": {
          "newOwner": "The address to transfer ownership to."
        }
      }
    },
    "version": 1
  },
  "userdoc": {
    "kind": "user",
    "methods": {
      "airnodeAddress()": {
        "notice": "Returns the Airnode contract address used by this client"
      },
      "renounceOwnership()": {
        "notice": "Renouncing to ownership will leave the contract without an owner. It will not be possible to call the functions with the `onlyOwner` modifier anymore."
      }
    },
    "version": 1
  }
}