{
  "contractName": "FullRequestClient",
  "abi": [
    {
      "inputs": [
        {
          "internalType": "address",
          "name": "airnodeAddress",
          "type": "address"
        }
      ],
      "stateMutability": "nonpayable",
      "type": "constructor"
    },
    {
      "inputs": [],
      "name": "airnode",
      "outputs": [
        {
          "internalType": "contract IAirnode",
          "name": "",
          "type": "address"
        }
      ],
      "stateMutability": "view",
      "type": "function"
    },
    {
      "inputs": [],
      "name": "airnodeAddress",
      "outputs": [
        {
          "internalType": "address",
          "name": "_airnodeAddress",
          "type": "address"
        }
      ],
      "stateMutability": "view",
      "type": "function"
    },
    {
      "inputs": [
        {
          "internalType": "bytes32",
          "name": "",
          "type": "bytes32"
        }
      ],
      "name": "fulfilledData",
      "outputs": [
        {
          "internalType": "int256",
          "name": "",
          "type": "int256"
        }
      ],
      "stateMutability": "view",
      "type": "function"
    },
    {
      "inputs": [
        {
          "internalType": "bytes32",
          "name": "",
          "type": "bytes32"
        }
      ],
      "name": "incomingFulfillments",
      "outputs": [
        {
          "internalType": "bool",
          "name": "",
          "type": "bool"
        }
      ],
      "stateMutability": "view",
      "type": "function"
    },
    {
      "inputs": [
        {
          "internalType": "bytes32",
          "name": "providerId",
          "type": "bytes32"
        },
        {
          "internalType": "bytes32",
          "name": "endpointId",
          "type": "bytes32"
        },
        {
          "internalType": "uint256",
          "name": "requesterInd",
          "type": "uint256"
        },
        {
          "internalType": "address",
          "name": "designatedWallet",
          "type": "address"
        },
        {
          "internalType": "bytes",
          "name": "parameters",
          "type": "bytes"
        }
      ],
      "name": "makeRequest",
      "outputs": [],
      "stateMutability": "nonpayable",
      "type": "function"
    },
    {
      "inputs": [
        {
          "internalType": "bytes32",
          "name": "requestId",
          "type": "bytes32"
        },
        {
          "internalType": "uint256",
          "name": "statusCode",
          "type": "uint256"
        },
        {
          "internalType": "int256",
          "name": "data",
          "type": "int256"
        }
      ],
      "name": "fulfill",
      "outputs": [],
      "stateMutability": "nonpayable",
      "type": "function"
    }
  ],
  "bytecode": "0x608060405234801561001057600080fd5b506040516106d23803806106d28339818101604052602081101561003357600080fd5b810190808051906020019092919050505080806000806101000a81548173ffffffffffffffffffffffffffffffffffffffff021916908373ffffffffffffffffffffffffffffffffffffffff160217905550505061063c806100966000396000f3fe608060405234801561001057600080fd5b50600436106100625760003560e01c8063406c6d6c14610067578063969980a4146100a9578063a36ff4d814610160578063bd3b93a814610194578063d0bdd66c146101d6578063dd2ae83f1461020a575b600080fd5b6100936004803603602081101561007d57600080fd5b810190808035906020019092919050505061024e565b6040518082815260200191505060405180910390f35b61015e600480360360a08110156100bf57600080fd5b81019080803590602001909291908035906020019092919080359060200190929190803573ffffffffffffffffffffffffffffffffffffffff1690602001909291908035906020019064010000000081111561011a57600080fd5b82018360208201111561012c57600080fd5b8035906020019184600183028401116401000000008311171561014e57600080fd5b9091929391929390505050610266565b005b6101686103fb565b604051808273ffffffffffffffffffffffffffffffffffffffff16815260200191505060405180910390f35b6101d4600480360360608110156101aa57600080fd5b8101908080359060200190929190803590602001909291908035906020019092919050505061041f565b005b6101de6105bd565b604051808273ffffffffffffffffffffffffffffffffffffffff16815260200191505060405180910390f35b6102366004803603602081101561022057600080fd5b81019080803590602001909291905050506105e6565b60405180821515815260200191505060405180910390f35b60026020528060005260406000206000915090505481565b60008060009054906101000a900473ffffffffffffffffffffffffffffffffffffffff1673ffffffffffffffffffffffffffffffffffffffff1663dce9c276888888883063bd3b93a860e01b8a8a6040518963ffffffff1660e01b8152600401808981526020018881526020018781526020018673ffffffffffffffffffffffffffffffffffffffff1681526020018573ffffffffffffffffffffffffffffffffffffffff168152602001847bffffffffffffffffffffffffffffffffffffffffffffffffffffffff19168152602001806020018281038252848482818152602001925080828437600081840152601f19601f8201169050808301925050509950505050505050505050602060405180830381600087803b15801561038a57600080fd5b505af115801561039e573d6000803e3d6000fd5b505050506040513d60208110156103b457600080fd5b81019080805190602001909291905050509050600180600083815260200190815260200160002060006101000a81548160ff02191690831515021790555050505050505050565b60008054906101000a900473ffffffffffffffffffffffffffffffffffffffff1681565b60008054906101000a900473ffffffffffffffffffffffffffffffffffffffff1673ffffffffffffffffffffffffffffffffffffffff163373ffffffffffffffffffffffffffffffffffffffff16146104e0576040517f08c379a000000000000000000000000000000000000000000000000000000000815260040180806020018281038252601f8152602001807f43616c6c6572206e6f7420746865204169726e6f646520636f6e74726163740081525060200191505060405180910390fd5b6001600084815260200190815260200160002060009054906101000a900460ff16610573576040517f08c379a00000000000000000000000000000000000000000000000000000000081526004018080602001828103825260148152602001807f4e6f20737563682072657175657374206d61646500000000000000000000000081525060200191505060405180910390fd5b6001600084815260200190815260200160002060006101000a81549060ff021916905560008214156105b8578060026000858152602001908152602001600020819055505b505050565b60008060009054906101000a900473ffffffffffffffffffffffffffffffffffffffff16905090565b60016020528060005260406000206000915054906101000a900460ff168156fea264697066735822122094f2f7b4a36819adc8e4d71d0ebada36bb633fdd3762ea6c9350a1ef69213b3b64736f6c634300060c0033",
  "immutableReferences": {},
  "source": "//SPDX-License-Identifier: MIT\npragma solidity >=0.5.16;\n\nimport \"@api3/airnode-protocol/contracts/AirnodeClient.sol\";\n\ncontract FullRequestClient is AirnodeClient {\n    mapping(bytes32 => bool) public incomingFulfillments;\n    mapping(bytes32 => int256) public fulfilledData;\n\n    constructor (address airnodeAddress)\n        public\n        AirnodeClient(airnodeAddress)\n    {}\n\n    function makeRequest(\n        bytes32 providerId,\n        bytes32 endpointId,\n        uint256 requesterInd,\n        address designatedWallet,\n        bytes calldata parameters\n        )\n        external\n    {\n        bytes32 requestId = airnode.makeFullRequest(\n            providerId,\n            endpointId,\n            requesterInd,\n            designatedWallet,\n            address(this),\n            this.fulfill.selector,\n            parameters\n            );\n        incomingFulfillments[requestId] = true;\n    }\n    function fulfill(\n        bytes32 requestId,\n        uint256 statusCode,\n        int256 data\n        )\n        external\n        onlyAirnode()\n    {\n        require(incomingFulfillments[requestId], \"No such request made\");\n        delete incomingFulfillments[requestId];\n        if (statusCode == 0)\n        {\n            fulfilledData[requestId] = data;\n        }\n    }\n}\n",
  "sourcePath": "/home/kesha/Documents/weather/contracts/FullRequestClient.sol",
  "compiler": {
    "name": "solc",
    "version": "0.6.12+commit.27d51765.Emscripten.clang"
  },
  "schemaVersion": "3.4.1",
  "updatedAt": "2021-06-19T13:41:23.236Z",
  "devdoc": {
    "kind": "dev",
    "methods": {
      "airnodeAddress()": {
        "returns": {
          "_airnodeAddress": "Airnode contract address"
        }
      }
    },
    "version": 1
  },
  "userdoc": {
    "kind": "user",
    "methods": {
      "airnodeAddress()": {
        "notice": "Returns the Airnode contract address used by this client"
      }
    },
    "version": 1
  }
}