{
  "contractName": "GasPriceClient",
  "abi": [
    {
      "inputs": [
        {
          "internalType": "address",
          "name": "airnodeAddress",
          "type": "address"
        }
      ],
      "stateMutability": "nonpayable",
      "type": "constructor"
    },
    {
      "anonymous": false,
      "inputs": [
        {
          "indexed": true,
          "internalType": "address",
          "name": "previousOwner",
          "type": "address"
        }
      ],
      "name": "OwnershipRenounced",
      "type": "event"
    },
    {
      "anonymous": false,
      "inputs": [
        {
          "indexed": true,
          "internalType": "address",
          "name": "previousOwner",
          "type": "address"
        },
        {
          "indexed": true,
          "internalType": "address",
          "name": "newOwner",
          "type": "address"
        }
      ],
      "name": "OwnershipTransferred",
      "type": "event"
    },
    {
      "inputs": [],
      "name": "airnode",
      "outputs": [
        {
          "internalType": "contract IAirnode",
          "name": "",
          "type": "address"
        }
      ],
      "stateMutability": "view",
      "type": "function"
    },
    {
      "inputs": [],
      "name": "airnodeAddress",
      "outputs": [
        {
          "internalType": "address",
          "name": "_airnodeAddress",
          "type": "address"
        }
      ],
      "stateMutability": "view",
      "type": "function"
    },
    {
      "inputs": [
        {
          "internalType": "bytes32",
          "name": "",
          "type": "bytes32"
        }
      ],
      "name": "fulfilledData",
      "outputs": [
        {
          "internalType": "bytes32",
          "name": "",
          "type": "bytes32"
        }
      ],
      "stateMutability": "view",
      "type": "function"
    },
    {
      "inputs": [
        {
          "internalType": "bytes32",
          "name": "",
          "type": "bytes32"
        }
      ],
      "name": "incomingFulfillments",
      "outputs": [
        {
          "internalType": "bool",
          "name": "",
          "type": "bool"
        }
      ],
      "stateMutability": "view",
      "type": "function"
    },
    {
      "inputs": [],
      "name": "isOwner",
      "outputs": [
        {
          "internalType": "bool",
          "name": "",
          "type": "bool"
        }
      ],
      "stateMutability": "view",
      "type": "function"
    },
    {
      "inputs": [],
      "name": "number",
      "outputs": [
        {
          "internalType": "bytes32",
          "name": "",
          "type": "bytes32"
        }
      ],
      "stateMutability": "view",
      "type": "function"
    },
    {
      "inputs": [],
      "name": "owner",
      "outputs": [
        {
          "internalType": "address",
          "name": "",
          "type": "address"
        }
      ],
      "stateMutability": "view",
      "type": "function"
    },
    {
      "inputs": [],
      "name": "renounceOwnership",
      "outputs": [],
      "stateMutability": "nonpayable",
      "type": "function"
    },
    {
      "inputs": [
        {
          "internalType": "address",
          "name": "newOwner",
          "type": "address"
        }
      ],
      "name": "transferOwnership",
      "outputs": [],
      "stateMutability": "nonpayable",
      "type": "function"
    },
    {
      "inputs": [
        {
          "internalType": "bytes32",
          "name": "_number",
          "type": "bytes32"
        }
      ],
      "name": "setNumber",
      "outputs": [],
      "stateMutability": "nonpayable",
      "type": "function"
    },
    {
      "inputs": [],
      "name": "getNumber",
      "outputs": [
        {
          "internalType": "bytes32",
          "name": "",
          "type": "bytes32"
        }
      ],
      "stateMutability": "view",
      "type": "function"
    },
    {
      "inputs": [
        {
          "internalType": "bytes32",
          "name": "providerId",
          "type": "bytes32"
        },
        {
          "internalType": "bytes32",
          "name": "endpointId",
          "type": "bytes32"
        },
        {
          "internalType": "uint256",
          "name": "requesterInd",
          "type": "uint256"
        },
        {
          "internalType": "address",
          "name": "designatedWallet",
          "type": "address"
        },
        {
          "internalType": "bytes",
          "name": "parameters",
          "type": "bytes"
        }
      ],
      "name": "getGasPriceUpdate",
      "outputs": [],
      "stateMutability": "nonpayable",
      "type": "function"
    },
    {
      "inputs": [
        {
          "internalType": "bytes32",
          "name": "requestId",
          "type": "bytes32"
        },
        {
          "internalType": "uint256",
          "name": "statusCode",
          "type": "uint256"
        },
        {
          "internalType": "bytes32",
          "name": "data",
          "type": "bytes32"
        }
      ],
      "name": "fulfill",
      "outputs": [],
      "stateMutability": "nonpayable",
      "type": "function"
    }
  ],
  "bytecode": "0x608060405234801561001057600080fd5b50604051610b01380380610b018339818101604052602081101561003357600080fd5b810190808051906020019092919050505080806000806101000a81548173ffffffffffffffffffffffffffffffffffffffff021916908373ffffffffffffffffffffffffffffffffffffffff1602179055505033600160006101000a81548173ffffffffffffffffffffffffffffffffffffffff021916908373ffffffffffffffffffffffffffffffffffffffff16021790555050610a2a806100d76000396000f3fe608060405234801561001057600080fd5b50600436106100cf5760003560e01c8063a36ff4d81161008c578063dd2ae83f11610066578063dd2ae83f146102f3578063f1d4b2c514610337578063f2c9ecd814610365578063f2fde38b14610383576100cf565b8063a36ff4d814610249578063d0bdd66c1461027d578063d3bd1464146102b1576100cf565b8063406c6d6c146100d4578063715018a6146101165780638381f58a1461012057806388c02e331461013e5780638da5cb5b146101f55780638f32d59b14610229575b600080fd5b610100600480360360208110156100ea57600080fd5b81019080803590602001909291905050506103c7565b6040518082815260200191505060405180910390f35b61011e6103df565b005b610128610499565b6040518082815260200191505060405180910390f35b6101f3600480360360a081101561015457600080fd5b81019080803590602001909291908035906020019092919080359060200190929190803573ffffffffffffffffffffffffffffffffffffffff169060200190929190803590602001906401000000008111156101af57600080fd5b8201836020820111156101c157600080fd5b803590602001918460018302840111640100000000831117156101e357600080fd5b909192939192939050505061049f565b005b6101fd610635565b604051808273ffffffffffffffffffffffffffffffffffffffff16815260200191505060405180910390f35b61023161065f565b60405180821515815260200191505060405180910390f35b6102516106b7565b604051808273ffffffffffffffffffffffffffffffffffffffff16815260200191505060405180910390f35b6102856106db565b604051808273ffffffffffffffffffffffffffffffffffffffff16815260200191505060405180910390f35b6102f1600480360360608110156102c757600080fd5b81019080803590602001909291908035906020019092919080359060200190929190505050610704565b005b61031f6004803603602081101561030957600080fd5b81019080803590602001909291905050506108a9565b60405180821515815260200191505060405180910390f35b6103636004803603602081101561034d57600080fd5b81019080803590602001909291905050506108c9565b005b61036d6108d3565b6040518082815260200191505060405180910390f35b6103c56004803603602081101561039957600080fd5b81019080803573ffffffffffffffffffffffffffffffffffffffff1690602001909291905050506108dd565b005b60046020528060005260406000206000915090505481565b6103e761065f565b6103f057600080fd5b600160009054906101000a900473ffffffffffffffffffffffffffffffffffffffff1673ffffffffffffffffffffffffffffffffffffffff167ff8df31144d9c2f0f6b59d69b8b98abd5459d07f2742c4df920b25aae33c6482060405160405180910390a26000600160006101000a81548173ffffffffffffffffffffffffffffffffffffffff021916908373ffffffffffffffffffffffffffffffffffffffff160217905550565b60025481565b60008060009054906101000a900473ffffffffffffffffffffffffffffffffffffffff1673ffffffffffffffffffffffffffffffffffffffff1663dce9c276888888883063d3bd146460e01b8a8a6040518963ffffffff1660e01b8152600401808981526020018881526020018781526020018673ffffffffffffffffffffffffffffffffffffffff1681526020018573ffffffffffffffffffffffffffffffffffffffff168152602001847bffffffffffffffffffffffffffffffffffffffffffffffffffffffff19168152602001806020018281038252848482818152602001925080828437600081840152601f19601f8201169050808301925050509950505050505050505050602060405180830381600087803b1580156105c357600080fd5b505af11580156105d7573d6000803e3d6000fd5b505050506040513d60208110156105ed57600080fd5b8101908080519060200190929190505050905060016003600083815260200190815260200160002060006101000a81548160ff02191690831515021790555050505050505050565b6000600160009054906101000a900473ffffffffffffffffffffffffffffffffffffffff16905090565b6000600160009054906101000a900473ffffffffffffffffffffffffffffffffffffffff1673ffffffffffffffffffffffffffffffffffffffff163373ffffffffffffffffffffffffffffffffffffffff1614905090565b60008054906101000a900473ffffffffffffffffffffffffffffffffffffffff1681565b60008060009054906101000a900473ffffffffffffffffffffffffffffffffffffffff16905090565b60008054906101000a900473ffffffffffffffffffffffffffffffffffffffff1673ffffffffffffffffffffffffffffffffffffffff163373ffffffffffffffffffffffffffffffffffffffff16146107c5576040517f08c379a000000000000000000000000000000000000000000000000000000000815260040180806020018281038252601f8152602001807f43616c6c6572206e6f7420746865204169726e6f646520636f6e74726163740081525060200191505060405180910390fd5b6003600084815260200190815260200160002060009054906101000a900460ff16610858576040517f08c379a00000000000000000000000000000000000000000000000000000000081526004018080602001828103825260148152602001807f4e6f20737563682072657175657374206d61646500000000000000000000000081525060200191505060405180910390fd5b6003600084815260200190815260200160002060006101000a81549060ff021916905560008214156108a457806004600085815260200190815260200160002081905550806002819055505b505050565b60036020528060005260406000206000915054906101000a900460ff1681565b8060028190555050565b6000600254905090565b6108e561065f565b6108ee57600080fd5b6108f7816108fa565b50565b600073ffffffffffffffffffffffffffffffffffffffff168173ffffffffffffffffffffffffffffffffffffffff16141561093457600080fd5b8073ffffffffffffffffffffffffffffffffffffffff16600160009054906101000a900473ffffffffffffffffffffffffffffffffffffffff1673ffffffffffffffffffffffffffffffffffffffff167f8be0079c531659141344cd1fd0a4f28419497f9722a3daafe3b4186f6b6457e060405160405180910390a380600160006101000a81548173ffffffffffffffffffffffffffffffffffffffff021916908373ffffffffffffffffffffffffffffffffffffffff1602179055505056fea2646970667358221220eb571518faa9d3f2c66449aac3082025adb87b69d481afacdd0bdb8217cb66c364736f6c634300060c0033",
  "immutableReferences": {},
  "source": "pragma solidity >=0.6.12;\nimport \"./Ownable.sol\";\nimport \"@api3/airnode-protocol/contracts/AirnodeClient.sol\";\n\ncontract GasPriceClient is AirnodeClient,Ownable{\n    \n    /*storage*/\n    bytes32 public number;\n    mapping(bytes32 => bool) public incomingFulfillments;\n    mapping(bytes32 => bytes32) public fulfilledData;\n\n    constructor(address airnodeAddress) public AirnodeClient(airnodeAddress){\n    }\n\n\n    \n    /*function setting number to user input*/\n    function setNumber(bytes32 _number) public {\n        number = _number;\n    }\n    \n    /*getter for the number*/\n    function getNumber() public view returns (bytes32) {\n        return number;\n    }\n\n    \n    \n    function getGasPriceUpdate(bytes32 providerId,bytes32 endpointId,uint requesterInd,address designatedWallet,bytes calldata parameters) external\n    {\n        bytes32 requestId = airnode.makeFullRequest(\n            providerId,\n            endpointId,\n            requesterInd,\n            designatedWallet,\n            address(this),\n            this.fulfill.selector,\n            parameters\n        );\n        incomingFulfillments[requestId] = true;\n    }\n\n\n    function fulfill(bytes32 requestId,uint256 statusCode,bytes32 data) external onlyAirnode()\n    {\n        \n        require(incomingFulfillments[requestId], \"No such request made\");\n        delete incomingFulfillments[requestId];\n        \n        if (statusCode == 0)\n        {\n            fulfilledData[requestId] = data;\n            number = data;\n        }\n\n    }\n    \n    \n}\n",
  "sourcePath": "/home/kesha/Documents/Summer2021/phase_2/transfer/contracts/GasPriceClient.sol",
  "compiler": {
    "name": "solc",
    "version": "0.6.12+commit.27d51765.Emscripten.clang"
  },
  "schemaVersion": "3.4.1",
  "updatedAt": "2021-06-24T05:09:14.533Z",
  "devdoc": {
    "kind": "dev",
    "methods": {
      "airnodeAddress()": {
        "returns": {
          "_airnodeAddress": "Airnode contract address"
        }
      },
      "isOwner()": {
        "returns": {
          "_0": "true if `msg.sender` is the owner of the contract."
        }
      },
      "owner()": {
        "returns": {
          "_0": "the address of the owner."
        }
      },
      "renounceOwnership()": {
        "details": "Allows the current owner to relinquish control of the contract."
      },
      "transferOwnership(address)": {
        "details": "Allows the current owner to transfer control of the contract to a newOwner.",
        "params": {
          "newOwner": "The address to transfer ownership to."
        }
      }
    },
    "version": 1
  },
  "userdoc": {
    "kind": "user",
    "methods": {
      "airnodeAddress()": {
        "notice": "Returns the Airnode contract address used by this client"
      },
      "renounceOwnership()": {
        "notice": "Renouncing to ownership will leave the contract without an owner. It will not be possible to call the functions with the `onlyOwner` modifier anymore."
      }
    },
    "version": 1
  }
}