{
  "contractName": "WeatherClient",
  "abi": [
    {
      "inputs": [
        {
          "internalType": "address",
          "name": "airnodeAddress",
          "type": "address"
        }
      ],
      "stateMutability": "nonpayable",
      "type": "constructor"
    },
    {
      "anonymous": false,
      "inputs": [
        {
          "indexed": true,
          "internalType": "address",
          "name": "previousOwner",
          "type": "address"
        }
      ],
      "name": "OwnershipRenounced",
      "type": "event"
    },
    {
      "anonymous": false,
      "inputs": [
        {
          "indexed": true,
          "internalType": "address",
          "name": "previousOwner",
          "type": "address"
        },
        {
          "indexed": true,
          "internalType": "address",
          "name": "newOwner",
          "type": "address"
        }
      ],
      "name": "OwnershipTransferred",
      "type": "event"
    },
    {
      "inputs": [],
      "name": "airnode",
      "outputs": [
        {
          "internalType": "contract IAirnode",
          "name": "",
          "type": "address"
        }
      ],
      "stateMutability": "view",
      "type": "function"
    },
    {
      "inputs": [],
      "name": "airnodeAddress",
      "outputs": [
        {
          "internalType": "address",
          "name": "_airnodeAddress",
          "type": "address"
        }
      ],
      "stateMutability": "view",
      "type": "function"
    },
    {
      "inputs": [
        {
          "internalType": "bytes32",
          "name": "",
          "type": "bytes32"
        }
      ],
      "name": "fulfilledData",
      "outputs": [
        {
          "internalType": "bytes32",
          "name": "",
          "type": "bytes32"
        }
      ],
      "stateMutability": "view",
      "type": "function"
    },
    {
      "inputs": [
        {
          "internalType": "bytes32",
          "name": "",
          "type": "bytes32"
        }
      ],
      "name": "incomingFulfillments",
      "outputs": [
        {
          "internalType": "bool",
          "name": "",
          "type": "bool"
        }
      ],
      "stateMutability": "view",
      "type": "function"
    },
    {
      "inputs": [],
      "name": "isOwner",
      "outputs": [
        {
          "internalType": "bool",
          "name": "",
          "type": "bool"
        }
      ],
      "stateMutability": "view",
      "type": "function"
    },
    {
      "inputs": [],
      "name": "owner",
      "outputs": [
        {
          "internalType": "address",
          "name": "",
          "type": "address"
        }
      ],
      "stateMutability": "view",
      "type": "function"
    },
    {
      "inputs": [],
      "name": "place",
      "outputs": [
        {
          "internalType": "string",
          "name": "",
          "type": "string"
        }
      ],
      "stateMutability": "view",
      "type": "function"
    },
    {
      "inputs": [],
      "name": "renounceOwnership",
      "outputs": [],
      "stateMutability": "nonpayable",
      "type": "function"
    },
    {
      "inputs": [
        {
          "internalType": "address",
          "name": "newOwner",
          "type": "address"
        }
      ],
      "name": "transferOwnership",
      "outputs": [],
      "stateMutability": "nonpayable",
      "type": "function"
    },
    {
      "inputs": [
        {
          "internalType": "string",
          "name": "_place",
          "type": "string"
        }
      ],
      "name": "setPlace",
      "outputs": [],
      "stateMutability": "nonpayable",
      "type": "function"
    },
    {
      "inputs": [
        {
          "internalType": "bytes32",
          "name": "providerId",
          "type": "bytes32"
        },
        {
          "internalType": "bytes32",
          "name": "endpointId",
          "type": "bytes32"
        },
        {
          "internalType": "uint256",
          "name": "requesterInd",
          "type": "uint256"
        },
        {
          "internalType": "address",
          "name": "designatedWallet",
          "type": "address"
        },
        {
          "internalType": "bytes",
          "name": "parameters",
          "type": "bytes"
        }
      ],
      "name": "getWeatherUpdate",
      "outputs": [],
      "stateMutability": "nonpayable",
      "type": "function"
    },
    {
      "inputs": [
        {
          "internalType": "bytes32",
          "name": "requestId",
          "type": "bytes32"
        },
        {
          "internalType": "uint256",
          "name": "statusCode",
          "type": "uint256"
        },
        {
          "internalType": "bytes32",
          "name": "data",
          "type": "bytes32"
        }
      ],
      "name": "fulfill",
      "outputs": [],
      "stateMutability": "nonpayable",
      "type": "function"
    }
  ],
  "bytecode": "0x608060405234801561001057600080fd5b50604051610db6380380610db68339818101604052602081101561003357600080fd5b810190808051906020019092919050505080806000806101000a81548173ffffffffffffffffffffffffffffffffffffffff021916908373ffffffffffffffffffffffffffffffffffffffff1602179055505033600160006101000a81548173ffffffffffffffffffffffffffffffffffffffff021916908373ffffffffffffffffffffffffffffffffffffffff16021790555060405180602001604052806000815250600290805190602001906100ec9291906100f3565b5050610190565b828054600181600116156101000203166002900490600052602060002090601f016020900481019282601f1061013457805160ff1916838001178555610162565b82800160010185558215610162579182015b82811115610161578251825591602001919060010190610146565b5b50905061016f9190610173565b5090565b5b8082111561018c576000816000905550600101610174565b5090565b610c178061019f6000396000f3fe608060405234801561001057600080fd5b50600436106100b45760003560e01c8063a36ff4d811610071578063a36ff4d814610297578063c6cab658146102cb578063d0bdd66c14610382578063d3bd1464146103b6578063dd2ae83f146103f8578063f2fde38b1461043c576100b4565b80630b04cca8146100b9578063406c6d6c14610174578063715018a6146101b65780638da5cb5b146101c05780638f32d59b146101f457806393cca91814610214575b600080fd5b610172600480360360208110156100cf57600080fd5b81019080803590602001906401000000008111156100ec57600080fd5b8201836020820111156100fe57600080fd5b8035906020019184600183028401116401000000008311171561012057600080fd5b91908080601f016020809104026020016040519081016040528093929190818152602001838380828437600081840152601f19601f820116905080830192505050505050509192919290505050610480565b005b6101a06004803603602081101561018a57600080fd5b810190808035906020019092919050505061049a565b6040518082815260200191505060405180910390f35b6101be6104b2565b005b6101c861056c565b604051808273ffffffffffffffffffffffffffffffffffffffff16815260200191505060405180910390f35b6101fc610596565b60405180821515815260200191505060405180910390f35b61021c6105ee565b6040518080602001828103825283818151815260200191508051906020019080838360005b8381101561025c578082015181840152602081019050610241565b50505050905090810190601f1680156102895780820380516001836020036101000a031916815260200191505b509250505060405180910390f35b61029f61068c565b604051808273ffffffffffffffffffffffffffffffffffffffff16815260200191505060405180910390f35b610380600480360360a08110156102e157600080fd5b81019080803590602001909291908035906020019092919080359060200190929190803573ffffffffffffffffffffffffffffffffffffffff1690602001909291908035906020019064010000000081111561033c57600080fd5b82018360208201111561034e57600080fd5b8035906020019184600183028401116401000000008311171561037057600080fd5b90919293919293905050506106b0565b005b61038a610846565b604051808273ffffffffffffffffffffffffffffffffffffffff16815260200191505060405180910390f35b6103f6600480360360608110156103cc57600080fd5b8101908080359060200190929190803590602001909291908035906020019092919050505061086f565b005b6104246004803603602081101561040e57600080fd5b8101908080359060200190929190505050610a0d565b60405180821515815260200191505060405180910390f35b61047e6004803603602081101561045257600080fd5b81019080803573ffffffffffffffffffffffffffffffffffffffff169060200190929190505050610a2d565b005b8060029080519060200190610496929190610b44565b5050565b60046020528060005260406000206000915090505481565b6104ba610596565b6104c357600080fd5b600160009054906101000a900473ffffffffffffffffffffffffffffffffffffffff1673ffffffffffffffffffffffffffffffffffffffff167ff8df31144d9c2f0f6b59d69b8b98abd5459d07f2742c4df920b25aae33c6482060405160405180910390a26000600160006101000a81548173ffffffffffffffffffffffffffffffffffffffff021916908373ffffffffffffffffffffffffffffffffffffffff160217905550565b6000600160009054906101000a900473ffffffffffffffffffffffffffffffffffffffff16905090565b6000600160009054906101000a900473ffffffffffffffffffffffffffffffffffffffff1673ffffffffffffffffffffffffffffffffffffffff163373ffffffffffffffffffffffffffffffffffffffff1614905090565b60028054600181600116156101000203166002900480601f0160208091040260200160405190810160405280929190818152602001828054600181600116156101000203166002900480156106845780601f1061065957610100808354040283529160200191610684565b820191906000526020600020905b81548152906001019060200180831161066757829003601f168201915b505050505081565b60008054906101000a900473ffffffffffffffffffffffffffffffffffffffff1681565b60008060009054906101000a900473ffffffffffffffffffffffffffffffffffffffff1673ffffffffffffffffffffffffffffffffffffffff1663dce9c276888888883063d3bd146460e01b8a8a6040518963ffffffff1660e01b8152600401808981526020018881526020018781526020018673ffffffffffffffffffffffffffffffffffffffff1681526020018573ffffffffffffffffffffffffffffffffffffffff168152602001847bffffffffffffffffffffffffffffffffffffffffffffffffffffffff19168152602001806020018281038252848482818152602001925080828437600081840152601f19601f8201169050808301925050509950505050505050505050602060405180830381600087803b1580156107d457600080fd5b505af11580156107e8573d6000803e3d6000fd5b505050506040513d60208110156107fe57600080fd5b8101908080519060200190929190505050905060016003600083815260200190815260200160002060006101000a81548160ff02191690831515021790555050505050505050565b60008060009054906101000a900473ffffffffffffffffffffffffffffffffffffffff16905090565b60008054906101000a900473ffffffffffffffffffffffffffffffffffffffff1673ffffffffffffffffffffffffffffffffffffffff163373ffffffffffffffffffffffffffffffffffffffff1614610930576040517f08c379a000000000000000000000000000000000000000000000000000000000815260040180806020018281038252601f8152602001807f43616c6c6572206e6f7420746865204169726e6f646520636f6e74726163740081525060200191505060405180910390fd5b6003600084815260200190815260200160002060009054906101000a900460ff166109c3576040517f08c379a00000000000000000000000000000000000000000000000000000000081526004018080602001828103825260148152602001807f4e6f20737563682072657175657374206d61646500000000000000000000000081525060200191505060405180910390fd5b6003600084815260200190815260200160002060006101000a81549060ff02191690556000821415610a08578060046000858152602001908152602001600020819055505b505050565b60036020528060005260406000206000915054906101000a900460ff1681565b610a35610596565b610a3e57600080fd5b610a4781610a4a565b50565b600073ffffffffffffffffffffffffffffffffffffffff168173ffffffffffffffffffffffffffffffffffffffff161415610a8457600080fd5b8073ffffffffffffffffffffffffffffffffffffffff16600160009054906101000a900473ffffffffffffffffffffffffffffffffffffffff1673ffffffffffffffffffffffffffffffffffffffff167f8be0079c531659141344cd1fd0a4f28419497f9722a3daafe3b4186f6b6457e060405160405180910390a380600160006101000a81548173ffffffffffffffffffffffffffffffffffffffff021916908373ffffffffffffffffffffffffffffffffffffffff16021790555050565b828054600181600116156101000203166002900490600052602060002090601f016020900481019282601f10610b8557805160ff1916838001178555610bb3565b82800160010185558215610bb3579182015b82811115610bb2578251825591602001919060010190610b97565b5b509050610bc09190610bc4565b5090565b5b80821115610bdd576000816000905550600101610bc5565b509056fea2646970667358221220766947f628fa9688f6d192ffb017db9aefbd1ddb25d95dc01552be02126cffaf64736f6c634300060c0033",
  "immutableReferences": {},
  "source": "pragma solidity >=0.6.12;\nimport \"./Ownable.sol\";\nimport \"@api3/airnode-protocol/contracts/AirnodeClient.sol\";\n\ncontract WeatherClient is AirnodeClient,Ownable{\n    string public place;\n    mapping(bytes32 => bool) public incomingFulfillments;\n    mapping(bytes32 => bytes32) public fulfilledData;\n\n    constructor(address airnodeAddress) public AirnodeClient(airnodeAddress){\n        place = \"\";\n    }\n\n    function setPlace(string memory _place) public {\n        place = _place;\n    }\n    \n    function getWeatherUpdate(bytes32 providerId,bytes32 endpointId,uint requesterInd,address designatedWallet,bytes calldata parameters) external\n    {\n        bytes32 requestId = airnode.makeFullRequest(\n            providerId,\n            endpointId,\n            requesterInd,\n            designatedWallet,\n            address(this),\n            this.fulfill.selector,\n            parameters\n        );\n        incomingFulfillments[requestId] = true;\n    }\n\n\n    function fulfill(bytes32 requestId,uint256 statusCode,bytes32 data) external onlyAirnode()\n    {\n        \n        require(incomingFulfillments[requestId], \"No such request made\");\n        delete incomingFulfillments[requestId];\n        \n        if (statusCode == 0)\n        {\n            fulfilledData[requestId] = data;\n            //place = string(abi.encodePacked(data));\n        }\n\n    }\n    \n    \n}\n",
  "sourcePath": "/home/kesha/Documents/Summer2021/phase_2/transfer/contracts/WeatherClient.sol",
  "compiler": {
    "name": "solc",
    "version": "0.6.12+commit.27d51765.Emscripten.clang"
  },
  "schemaVersion": "3.4.1",
  "updatedAt": "2021-06-24T05:09:14.563Z",
  "devdoc": {
    "kind": "dev",
    "methods": {
      "airnodeAddress()": {
        "returns": {
          "_airnodeAddress": "Airnode contract address"
        }
      },
      "isOwner()": {
        "returns": {
          "_0": "true if `msg.sender` is the owner of the contract."
        }
      },
      "owner()": {
        "returns": {
          "_0": "the address of the owner."
        }
      },
      "renounceOwnership()": {
        "details": "Allows the current owner to relinquish control of the contract."
      },
      "transferOwnership(address)": {
        "details": "Allows the current owner to transfer control of the contract to a newOwner.",
        "params": {
          "newOwner": "The address to transfer ownership to."
        }
      }
    },
    "version": 1
  },
  "userdoc": {
    "kind": "user",
    "methods": {
      "airnodeAddress()": {
        "notice": "Returns the Airnode contract address used by this client"
      },
      "renounceOwnership()": {
        "notice": "Renouncing to ownership will leave the contract without an owner. It will not be possible to call the functions with the `onlyOwner` modifier anymore."
      }
    },
    "version": 1
  }
}