{
  "contractName": "GasPriceClient",
  "abi": [
    {
      "inputs": [
        {
          "internalType": "address",
          "name": "airnodeAddress",
          "type": "address"
        }
      ],
      "stateMutability": "nonpayable",
      "type": "constructor"
    },
    {
      "anonymous": false,
      "inputs": [
        {
          "indexed": true,
          "internalType": "address",
          "name": "previousOwner",
          "type": "address"
        }
      ],
      "name": "OwnershipRenounced",
      "type": "event"
    },
    {
      "anonymous": false,
      "inputs": [
        {
          "indexed": true,
          "internalType": "address",
          "name": "previousOwner",
          "type": "address"
        },
        {
          "indexed": true,
          "internalType": "address",
          "name": "newOwner",
          "type": "address"
        }
      ],
      "name": "OwnershipTransferred",
      "type": "event"
    },
    {
      "inputs": [],
      "name": "airnode",
      "outputs": [
        {
          "internalType": "contract IAirnode",
          "name": "",
          "type": "address"
        }
      ],
      "stateMutability": "view",
      "type": "function"
    },
    {
      "inputs": [],
      "name": "airnodeAddress",
      "outputs": [
        {
          "internalType": "address",
          "name": "_airnodeAddress",
          "type": "address"
        }
      ],
      "stateMutability": "view",
      "type": "function"
    },
    {
      "inputs": [
        {
          "internalType": "bytes32",
          "name": "",
          "type": "bytes32"
        }
      ],
      "name": "fulfilledData",
      "outputs": [
        {
          "internalType": "bytes32",
          "name": "",
          "type": "bytes32"
        }
      ],
      "stateMutability": "view",
      "type": "function"
    },
    {
      "inputs": [
        {
          "internalType": "bytes32",
          "name": "",
          "type": "bytes32"
        }
      ],
      "name": "incomingFulfillments",
      "outputs": [
        {
          "internalType": "bool",
          "name": "",
          "type": "bool"
        }
      ],
      "stateMutability": "view",
      "type": "function"
    },
    {
      "inputs": [],
      "name": "isOwner",
      "outputs": [
        {
          "internalType": "bool",
          "name": "",
          "type": "bool"
        }
      ],
      "stateMutability": "view",
      "type": "function"
    },
    {
      "inputs": [],
      "name": "number",
      "outputs": [
        {
          "internalType": "bytes32",
          "name": "",
          "type": "bytes32"
        }
      ],
      "stateMutability": "view",
      "type": "function"
    },
    {
      "inputs": [],
      "name": "owner",
      "outputs": [
        {
          "internalType": "address",
          "name": "",
          "type": "address"
        }
      ],
      "stateMutability": "view",
      "type": "function"
    },
    {
      "inputs": [],
      "name": "renounceOwnership",
      "outputs": [],
      "stateMutability": "nonpayable",
      "type": "function"
    },
    {
      "inputs": [
        {
          "internalType": "address",
          "name": "newOwner",
          "type": "address"
        }
      ],
      "name": "transferOwnership",
      "outputs": [],
      "stateMutability": "nonpayable",
      "type": "function"
    },
    {
      "inputs": [
        {
          "internalType": "bytes32",
          "name": "_number",
          "type": "bytes32"
        }
      ],
      "name": "setNumber",
      "outputs": [],
      "stateMutability": "nonpayable",
      "type": "function"
    },
    {
      "inputs": [],
      "name": "getNumber",
      "outputs": [
        {
          "internalType": "bytes32",
          "name": "",
          "type": "bytes32"
        }
      ],
      "stateMutability": "view",
      "type": "function"
    },
    {
      "inputs": [
        {
          "internalType": "bytes32",
          "name": "_template_id",
          "type": "bytes32"
        }
      ],
      "name": "getGasPriceUpdate",
      "outputs": [],
      "stateMutability": "nonpayable",
      "type": "function"
    },
    {
      "inputs": [
        {
          "internalType": "bytes32",
          "name": "requestId",
          "type": "bytes32"
        },
        {
          "internalType": "uint256",
          "name": "statusCode",
          "type": "uint256"
        },
        {
          "internalType": "bytes32",
          "name": "data",
          "type": "bytes32"
        }
      ],
      "name": "fulfill",
      "outputs": [],
      "stateMutability": "nonpayable",
      "type": "function"
    }
  ],
  "bytecode": "0x608060405234801561001057600080fd5b50604051610a71380380610a718339818101604052602081101561003357600080fd5b810190808051906020019092919050505080806000806101000a81548173ffffffffffffffffffffffffffffffffffffffff021916908373ffffffffffffffffffffffffffffffffffffffff1602179055505033600160006101000a81548173ffffffffffffffffffffffffffffffffffffffff021916908373ffffffffffffffffffffffffffffffffffffffff1602179055505061099a806100d76000396000f3fe608060405234801561001057600080fd5b50600436106100cf5760003560e01c8063a36ff4d81161008c578063dd2ae83f11610066578063dd2ae83f1461026a578063f1d4b2c5146102ae578063f2c9ecd8146102dc578063f2fde38b146102fa576100cf565b8063a36ff4d8146101c0578063d0bdd66c146101f4578063d3bd146414610228576100cf565b8063406c6d6c146100d45780635a8c288514610116578063715018a6146101445780638381f58a1461014e5780638da5cb5b1461016c5780638f32d59b146101a0575b600080fd5b610100600480360360208110156100ea57600080fd5b810190808035906020019092919050505061033e565b6040518082815260200191505060405180910390f35b6101426004803603602081101561012c57600080fd5b8101908080359060200190929190505050610356565b005b61014c6104e5565b005b61015661059f565b6040518082815260200191505060405180910390f35b6101746105a5565b604051808273ffffffffffffffffffffffffffffffffffffffff16815260200191505060405180910390f35b6101a86105cf565b60405180821515815260200191505060405180910390f35b6101c8610627565b604051808273ffffffffffffffffffffffffffffffffffffffff16815260200191505060405180910390f35b6101fc61064b565b604051808273ffffffffffffffffffffffffffffffffffffffff16815260200191505060405180910390f35b6102686004803603606081101561023e57600080fd5b81019080803590602001909291908035906020019092919080359060200190929190505050610674565b005b6102966004803603602081101561028057600080fd5b8101908080359060200190929190505050610819565b60405180821515815260200191505060405180910390f35b6102da600480360360208110156102c457600080fd5b8101908080359060200190929190505050610839565b005b6102e4610843565b6040518082815260200191505060405180910390f35b61033c6004803603602081101561031057600080fd5b81019080803573ffffffffffffffffffffffffffffffffffffffff16906020019092919050505061084d565b005b60046020528060005260406000206000915090505481565b60008060009054906101000a900473ffffffffffffffffffffffffffffffffffffffff1673ffffffffffffffffffffffffffffffffffffffff166327091153837f3100000000000000000000000000000000000000000000000000000000000000604051602001808281526020019150506040516020818303038152906040526040518363ffffffff1660e01b81526004018083815260200180602001828103825283818151815260200191508051906020019080838360005b8381101561042b578082015181840152602081019050610410565b50505050905090810190601f1680156104585780820380516001836020036101000a031916815260200191505b509350505050602060405180830381600087803b15801561047857600080fd5b505af115801561048c573d6000803e3d6000fd5b505050506040513d60208110156104a257600080fd5b8101908080519060200190929190505050905060016003600083815260200190815260200160002060006101000a81548160ff0219169083151502179055505050565b6104ed6105cf565b6104f657600080fd5b600160009054906101000a900473ffffffffffffffffffffffffffffffffffffffff1673ffffffffffffffffffffffffffffffffffffffff167ff8df31144d9c2f0f6b59d69b8b98abd5459d07f2742c4df920b25aae33c6482060405160405180910390a26000600160006101000a81548173ffffffffffffffffffffffffffffffffffffffff021916908373ffffffffffffffffffffffffffffffffffffffff160217905550565b60025481565b6000600160009054906101000a900473ffffffffffffffffffffffffffffffffffffffff16905090565b6000600160009054906101000a900473ffffffffffffffffffffffffffffffffffffffff1673ffffffffffffffffffffffffffffffffffffffff163373ffffffffffffffffffffffffffffffffffffffff1614905090565b60008054906101000a900473ffffffffffffffffffffffffffffffffffffffff1681565b60008060009054906101000a900473ffffffffffffffffffffffffffffffffffffffff16905090565b60008054906101000a900473ffffffffffffffffffffffffffffffffffffffff1673ffffffffffffffffffffffffffffffffffffffff163373ffffffffffffffffffffffffffffffffffffffff1614610735576040517f08c379a000000000000000000000000000000000000000000000000000000000815260040180806020018281038252601f8152602001807f43616c6c6572206e6f7420746865204169726e6f646520636f6e74726163740081525060200191505060405180910390fd5b6003600084815260200190815260200160002060009054906101000a900460ff166107c8576040517f08c379a00000000000000000000000000000000000000000000000000000000081526004018080602001828103825260148152602001807f4e6f20737563682072657175657374206d61646500000000000000000000000081525060200191505060405180910390fd5b6003600084815260200190815260200160002060006101000a81549060ff0219169055600082141561081457806004600085815260200190815260200160002081905550806002819055505b505050565b60036020528060005260406000206000915054906101000a900460ff1681565b8060028190555050565b6000600254905090565b6108556105cf565b61085e57600080fd5b6108678161086a565b50565b600073ffffffffffffffffffffffffffffffffffffffff168173ffffffffffffffffffffffffffffffffffffffff1614156108a457600080fd5b8073ffffffffffffffffffffffffffffffffffffffff16600160009054906101000a900473ffffffffffffffffffffffffffffffffffffffff1673ffffffffffffffffffffffffffffffffffffffff167f8be0079c531659141344cd1fd0a4f28419497f9722a3daafe3b4186f6b6457e060405160405180910390a380600160006101000a81548173ffffffffffffffffffffffffffffffffffffffff021916908373ffffffffffffffffffffffffffffffffffffffff1602179055505056fea26469706673582212208dfb913928f3e546a2407f8fd36be6ebd83076e5f0995c6af1f261a02442d41564736f6c634300060c0033",
  "immutableReferences": {},
  "source": "pragma solidity >=0.6.12;\nimport \"./Ownable.sol\";\nimport \"@api3/airnode-protocol/contracts/AirnodeClient.sol\";\n\ncontract GasPriceClient is AirnodeClient,Ownable{\n    \n    /*storage*/\n    bytes32 public number;\n    mapping(bytes32 => bool) public incomingFulfillments;\n    mapping(bytes32 => bytes32) public fulfilledData;\n\n    constructor(address airnodeAddress) public AirnodeClient(airnodeAddress){\n    }\n\n\n    \n    /*function setting number to user input*/\n    function setNumber(bytes32 _number) public {\n        number = _number;\n    }\n    \n    /*getter for the number*/\n    function getNumber() public view returns (bytes32) {\n        return number;\n    }\n\n    \n    \n    function getGasPriceUpdate(bytes32 _template_id) external\n    {\n        bytes32 requestId = airnode.makeShortRequest(\n            _template_id,\n            abi.encode(bytes32(\"1\"))\n        );\n        incomingFulfillments[requestId] = true;\n    }\n\n\n    function fulfill(bytes32 requestId,uint256 statusCode,bytes32 data) external onlyAirnode()\n    {\n        \n        require(incomingFulfillments[requestId], \"No such request made\");\n        delete incomingFulfillments[requestId];\n        \n        if (statusCode == 0)\n        {\n            fulfilledData[requestId] = data;\n            number = data;\n        }\n\n    }\n    \n    \n}\n",
  "sourcePath": "/home/kesha/Desktop/multi_oracle_airnode/contracts/GasPriceClient.sol",
  "compiler": {
    "name": "solc",
    "version": "0.6.12+commit.27d51765.Emscripten.clang"
  },
  "schemaVersion": "3.4.1",
  "updatedAt": "2021-06-27T16:26:17.041Z",
  "devdoc": {
    "kind": "dev",
    "methods": {
      "airnodeAddress()": {
        "returns": {
          "_airnodeAddress": "Airnode contract address"
        }
      },
      "isOwner()": {
        "returns": {
          "_0": "true if `msg.sender` is the owner of the contract."
        }
      },
      "owner()": {
        "returns": {
          "_0": "the address of the owner."
        }
      },
      "renounceOwnership()": {
        "details": "Allows the current owner to relinquish control of the contract."
      },
      "transferOwnership(address)": {
        "details": "Allows the current owner to transfer control of the contract to a newOwner.",
        "params": {
          "newOwner": "The address to transfer ownership to."
        }
      }
    },
    "version": 1
  },
  "userdoc": {
    "kind": "user",
    "methods": {
      "airnodeAddress()": {
        "notice": "Returns the Airnode contract address used by this client"
      },
      "renounceOwnership()": {
        "notice": "Renouncing to ownership will leave the contract without an owner. It will not be possible to call the functions with the `onlyOwner` modifier anymore."
      }
    },
    "version": 1
  }
}