{
  "contractName": "TransferRequestClient",
  "abi": [
    {
      "inputs": [
        {
          "internalType": "address",
          "name": "airnodeAddress",
          "type": "address"
        }
      ],
      "stateMutability": "nonpayable",
      "type": "constructor"
    },
    {
      "anonymous": false,
      "inputs": [
        {
          "indexed": true,
          "internalType": "address",
          "name": "previousOwner",
          "type": "address"
        }
      ],
      "name": "OwnershipRenounced",
      "type": "event"
    },
    {
      "anonymous": false,
      "inputs": [
        {
          "indexed": true,
          "internalType": "address",
          "name": "previousOwner",
          "type": "address"
        },
        {
          "indexed": true,
          "internalType": "address",
          "name": "newOwner",
          "type": "address"
        }
      ],
      "name": "OwnershipTransferred",
      "type": "event"
    },
    {
      "inputs": [],
      "name": "airnode",
      "outputs": [
        {
          "internalType": "contract IAirnode",
          "name": "",
          "type": "address"
        }
      ],
      "stateMutability": "view",
      "type": "function"
    },
    {
      "inputs": [],
      "name": "airnodeAddress",
      "outputs": [
        {
          "internalType": "address",
          "name": "_airnodeAddress",
          "type": "address"
        }
      ],
      "stateMutability": "view",
      "type": "function"
    },
    {
      "inputs": [
        {
          "internalType": "bytes32",
          "name": "",
          "type": "bytes32"
        }
      ],
      "name": "amountSent",
      "outputs": [
        {
          "internalType": "uint256",
          "name": "",
          "type": "uint256"
        }
      ],
      "stateMutability": "view",
      "type": "function"
    },
    {
      "inputs": [],
      "name": "creator",
      "outputs": [
        {
          "internalType": "address",
          "name": "",
          "type": "address"
        }
      ],
      "stateMutability": "view",
      "type": "function"
    },
    {
      "inputs": [
        {
          "internalType": "bytes32",
          "name": "",
          "type": "bytes32"
        }
      ],
      "name": "dataRecepient",
      "outputs": [
        {
          "internalType": "address",
          "name": "",
          "type": "address"
        }
      ],
      "stateMutability": "view",
      "type": "function"
    },
    {
      "inputs": [
        {
          "internalType": "uint256",
          "name": "",
          "type": "uint256"
        }
      ],
      "name": "exchangeAddresses",
      "outputs": [
        {
          "internalType": "address",
          "name": "",
          "type": "address"
        }
      ],
      "stateMutability": "view",
      "type": "function"
    },
    {
      "inputs": [
        {
          "internalType": "bytes32",
          "name": "",
          "type": "bytes32"
        }
      ],
      "name": "exchangeParty",
      "outputs": [
        {
          "internalType": "address",
          "name": "",
          "type": "address"
        }
      ],
      "stateMutability": "view",
      "type": "function"
    },
    {
      "inputs": [
        {
          "internalType": "bytes32",
          "name": "",
          "type": "bytes32"
        }
      ],
      "name": "fulfilledData",
      "outputs": [
        {
          "internalType": "uint256",
          "name": "",
          "type": "uint256"
        }
      ],
      "stateMutability": "view",
      "type": "function"
    },
    {
      "inputs": [
        {
          "internalType": "bytes32",
          "name": "",
          "type": "bytes32"
        }
      ],
      "name": "incomingFulfillments",
      "outputs": [
        {
          "internalType": "bool",
          "name": "",
          "type": "bool"
        }
      ],
      "stateMutability": "view",
      "type": "function"
    },
    {
      "inputs": [],
      "name": "isOwner",
      "outputs": [
        {
          "internalType": "bool",
          "name": "",
          "type": "bool"
        }
      ],
      "stateMutability": "view",
      "type": "function"
    },
    {
      "inputs": [],
      "name": "owner",
      "outputs": [
        {
          "internalType": "address",
          "name": "",
          "type": "address"
        }
      ],
      "stateMutability": "view",
      "type": "function"
    },
    {
      "inputs": [],
      "name": "renounceOwnership",
      "outputs": [],
      "stateMutability": "nonpayable",
      "type": "function"
    },
    {
      "inputs": [
        {
          "internalType": "bytes32",
          "name": "",
          "type": "bytes32"
        }
      ],
      "name": "tokenName",
      "outputs": [
        {
          "internalType": "string",
          "name": "",
          "type": "string"
        }
      ],
      "stateMutability": "view",
      "type": "function"
    },
    {
      "inputs": [
        {
          "internalType": "address",
          "name": "newOwner",
          "type": "address"
        }
      ],
      "name": "transferOwnership",
      "outputs": [],
      "stateMutability": "nonpayable",
      "type": "function"
    },
    {
      "inputs": [
        {
          "internalType": "address",
          "name": "",
          "type": "address"
        }
      ],
      "name": "users",
      "outputs": [
        {
          "internalType": "string",
          "name": "name",
          "type": "string"
        },
        {
          "internalType": "string",
          "name": "userType",
          "type": "string"
        },
        {
          "internalType": "bool",
          "name": "exists",
          "type": "bool"
        }
      ],
      "stateMutability": "view",
      "type": "function"
    },
    {
      "inputs": [
        {
          "internalType": "string",
          "name": "_name",
          "type": "string"
        }
      ],
      "name": "registerAsExchange",
      "outputs": [
        {
          "internalType": "bool",
          "name": "",
          "type": "bool"
        }
      ],
      "stateMutability": "nonpayable",
      "type": "function"
    },
    {
      "inputs": [
        {
          "internalType": "string",
          "name": "_name",
          "type": "string"
        }
      ],
      "name": "registerAsUser",
      "outputs": [
        {
          "internalType": "bool",
          "name": "",
          "type": "bool"
        }
      ],
      "stateMutability": "nonpayable",
      "type": "function"
    },
    {
      "inputs": [
        {
          "internalType": "string",
          "name": "_currency",
          "type": "string"
        }
      ],
      "name": "getTokenBalance",
      "outputs": [
        {
          "internalType": "uint256",
          "name": "",
          "type": "uint256"
        }
      ],
      "stateMutability": "view",
      "type": "function"
    },
    {
      "inputs": [],
      "name": "getEthBalance",
      "outputs": [
        {
          "internalType": "uint256",
          "name": "",
          "type": "uint256"
        }
      ],
      "stateMutability": "view",
      "type": "function"
    },
    {
      "inputs": [
        {
          "internalType": "address payable",
          "name": "_receiver",
          "type": "address"
        }
      ],
      "name": "transferEth",
      "outputs": [],
      "stateMutability": "payable",
      "type": "function"
    },
    {
      "inputs": [
        {
          "internalType": "address",
          "name": "_receiver",
          "type": "address"
        },
        {
          "internalType": "uint256",
          "name": "_amount",
          "type": "uint256"
        },
        {
          "internalType": "string",
          "name": "_currency",
          "type": "string"
        }
      ],
      "name": "transferToken",
      "outputs": [],
      "stateMutability": "payable",
      "type": "function"
    },
    {
      "inputs": [
        {
          "internalType": "address",
          "name": "_address",
          "type": "address"
        },
        {
          "internalType": "uint256",
          "name": "_amount",
          "type": "uint256"
        },
        {
          "internalType": "string",
          "name": "_currency",
          "type": "string"
        }
      ],
      "name": "deposit",
      "outputs": [],
      "stateMutability": "payable",
      "type": "function"
    },
    {
      "inputs": [],
      "name": "getExchangeList",
      "outputs": [
        {
          "internalType": "address[]",
          "name": "",
          "type": "address[]"
        }
      ],
      "stateMutability": "view",
      "type": "function"
    },
    {
      "inputs": [
        {
          "internalType": "bytes32",
          "name": "_template_id",
          "type": "bytes32"
        },
        {
          "internalType": "string",
          "name": "_token_name",
          "type": "string"
        },
        {
          "internalType": "address",
          "name": "_exchange_address",
          "type": "address"
        }
      ],
      "name": "exchangeEthForToken",
      "outputs": [],
      "stateMutability": "payable",
      "type": "function"
    },
    {
      "inputs": [
        {
          "internalType": "bytes32",
          "name": "requestId",
          "type": "bytes32"
        },
        {
          "internalType": "uint256",
          "name": "statusCode",
          "type": "uint256"
        },
        {
          "internalType": "bytes32",
          "name": "data",
          "type": "bytes32"
        }
      ],
      "name": "fulfill",
      "outputs": [],
      "stateMutability": "nonpayable",
      "type": "function"
    }
  ],
  "bytecode": "0x60806040523480156200001157600080fd5b5060405162003efe38038062003efe833981810160405260208110156200003757600080fd5b810190808051906020019092919050505080806000806101000a81548173ffffffffffffffffffffffffffffffffffffffff021916908373ffffffffffffffffffffffffffffffffffffffff1602179055505033600160006101000a81548173ffffffffffffffffffffffffffffffffffffffff021916908373ffffffffffffffffffffffffffffffffffffffff16021790555033600960006101000a81548173ffffffffffffffffffffffffffffffffffffffff021916908373ffffffffffffffffffffffffffffffffffffffff160217905550624c4b4060086000600960009054906101000a900473ffffffffffffffffffffffffffffffffffffffff1673ffffffffffffffffffffffffffffffffffffffff1673ffffffffffffffffffffffffffffffffffffffff16815260200190815260200160002060405180807f7573640000000000000000000000000000000000000000000000000000000000815250600301905090815260200160405180910390208190555064174876e80060086000600960009054906101000a900473ffffffffffffffffffffffffffffffffffffffff1673ffffffffffffffffffffffffffffffffffffffff1673ffffffffffffffffffffffffffffffffffffffff16815260200190815260200160002060405180807f627463000000000000000000000000000000000000000000000000000000000081525060030190509081526020016040518091039020819055506040518060400160405280600581526020017f61646d696e000000000000000000000000000000000000000000000000000000815250600a6000600960009054906101000a900473ffffffffffffffffffffffffffffffffffffffff1673ffffffffffffffffffffffffffffffffffffffff1673ffffffffffffffffffffffffffffffffffffffff1681526020019081526020016000206000019080519060200190620003079291906200043c565b506001600a6000600960009054906101000a900473ffffffffffffffffffffffffffffffffffffffff1673ffffffffffffffffffffffffffffffffffffffff1673ffffffffffffffffffffffffffffffffffffffff16815260200190815260200160002060020160006101000a81548160ff0219169083151502179055506040518060400160405280600581526020017f61646d696e000000000000000000000000000000000000000000000000000000815250600a6000600960009054906101000a900473ffffffffffffffffffffffffffffffffffffffff1673ffffffffffffffffffffffffffffffffffffffff1673ffffffffffffffffffffffffffffffffffffffff1681526020019081526020016000206001019080519060200190620004349291906200043c565b5050620004e2565b828054600181600116156101000203166002900490600052602060002090601f016020900481019282601f106200047f57805160ff1916838001178555620004b0565b82800160010185558215620004b0579182015b82811115620004af57825182559160200191906001019062000492565b5b509050620004bf9190620004c3565b5090565b5b80821115620004de576000816000905550600101620004c4565b5090565b613a0c80620004f26000396000f3fe6080604052600436106101665760003560e01c80638da5cb5b116100d1578063d0bdd66c1161008a578063dd2ae83f11610064578063dd2ae83f14610b21578063e587ab6714610b72578063e748135d14610c57578063f2fde38b14610d3557610166565b8063d0bdd66c146109dd578063d3bd146414610a1e578063dab68e4214610a6d57610166565b80638da5cb5b1461069e5780638f32d59b146106df5780639130e1821461070c578063a36ff4d814610778578063a87430ba146107b9578063bfe07da6146108f857610166565b8063406c6d6c11610123578063406c6d6c14610465578063515ef106146104b45780635c0715a3146105925780637077ae05146105f757806370ed0ada1461065c578063715018a61461068757610166565b8063025abd581461016b57806302d05d3f1461024757806303dcdfe4146102885780630c203541146102ed57806310228dc31461033c57806330df47af14610421575b600080fd5b34801561017757600080fd5b506102316004803603602081101561018e57600080fd5b81019080803590602001906401000000008111156101ab57600080fd5b8201836020820111156101bd57600080fd5b803590602001918460018302840111640100000000831117156101df57600080fd5b91908080601f016020809104026020016040519081016040528093929190818152602001838380828437600081840152601f19601f820116905080830192505050505050509192919290505050610d86565b6040518082815260200191505060405180910390f35b34801561025357600080fd5b5061025c610f01565b604051808273ffffffffffffffffffffffffffffffffffffffff16815260200191505060405180910390f35b34801561029457600080fd5b506102c1600480360360208110156102ab57600080fd5b8101908080359060200190929190505050610f27565b604051808273ffffffffffffffffffffffffffffffffffffffff16815260200191505060405180910390f35b3480156102f957600080fd5b506103266004803603602081101561031057600080fd5b8101908080359060200190929190505050610f63565b6040518082815260200191505060405180910390f35b61041f6004803603606081101561035257600080fd5b81019080803573ffffffffffffffffffffffffffffffffffffffff169060200190929190803590602001909291908035906020019064010000000081111561039957600080fd5b8201836020820111156103ab57600080fd5b803590602001918460018302840111640100000000831117156103cd57600080fd5b91908080601f016020809104026020016040519081016040528093929190818152602001838380828437600081840152601f19601f820116905080830192505050505050509192919290505050610f7b565b005b6104636004803603602081101561043757600080fd5b81019080803573ffffffffffffffffffffffffffffffffffffffff1690602001909291905050506114ea565b005b34801561047157600080fd5b5061049e6004803603602081101561048857600080fd5b8101908080359060200190929190505050611730565b6040518082815260200191505060405180910390f35b3480156104c057600080fd5b5061057a600480360360208110156104d757600080fd5b81019080803590602001906401000000008111156104f457600080fd5b82018360208201111561050657600080fd5b8035906020019184600183028401116401000000008311171561052857600080fd5b91908080601f016020809104026020016040519081016040528093929190818152602001838380828437600081840152601f19601f820116905080830192505050505050509192919290505050611748565b60405180821515815260200191505060405180910390f35b34801561059e57600080fd5b506105cb600480360360208110156105b557600080fd5b8101908080359060200190929190505050611b31565b604051808273ffffffffffffffffffffffffffffffffffffffff16815260200191505060405180910390f35b34801561060357600080fd5b506106306004803603602081101561061a57600080fd5b8101908080359060200190929190505050611b64565b604051808273ffffffffffffffffffffffffffffffffffffffff16815260200191505060405180910390f35b34801561066857600080fd5b50610671611b97565b6040518082815260200191505060405180910390f35b34801561069357600080fd5b5061069c611bb6565b005b3480156106aa57600080fd5b506106b3611c70565b604051808273ffffffffffffffffffffffffffffffffffffffff16815260200191505060405180910390f35b3480156106eb57600080fd5b506106f4611c9a565b60405180821515815260200191505060405180910390f35b34801561071857600080fd5b50610721611cf2565b6040518080602001828103825283818151815260200191508051906020019060200280838360005b83811015610764578082015181840152602081019050610749565b505050509050019250505060405180910390f35b34801561078457600080fd5b5061078d611d80565b604051808273ffffffffffffffffffffffffffffffffffffffff16815260200191505060405180910390f35b3480156107c557600080fd5b50610808600480360360208110156107dc57600080fd5b81019080803573ffffffffffffffffffffffffffffffffffffffff169060200190929190505050611da4565b6040518080602001806020018415158152602001838103835286818151815260200191508051906020019080838360005b83811015610854578082015181840152602081019050610839565b50505050905090810190601f1680156108815780820380516001836020036101000a031916815260200191505b50838103825285818151815260200191508051906020019080838360005b838110156108ba57808201518184015260208101905061089f565b50505050905090810190601f1680156108e75780820380516001836020036101000a031916815260200191505b509550505050505060405180910390f35b6109db6004803603606081101561090e57600080fd5b81019080803573ffffffffffffffffffffffffffffffffffffffff169060200190929190803590602001909291908035906020019064010000000081111561095557600080fd5b82018360208201111561096757600080fd5b8035906020019184600183028401116401000000008311171561098957600080fd5b91908080601f016020809104026020016040519081016040528093929190818152602001838380828437600081840152601f19601f820116905080830192505050505050509192919290505050611f0b565b005b3480156109e957600080fd5b506109f26123fe565b604051808273ffffffffffffffffffffffffffffffffffffffff16815260200191505060405180910390f35b348015610a2a57600080fd5b50610a6b60048036036060811015610a4157600080fd5b81019080803590602001909291908035906020019092919080359060200190929190505050612427565b005b348015610a7957600080fd5b50610aa660048036036020811015610a9057600080fd5b8101908080359060200190929190505050612ce5565b6040518080602001828103825283818151815260200191508051906020019080838360005b83811015610ae6578082015181840152602081019050610acb565b50505050905090810190601f168015610b135780820380516001836020036101000a031916815260200191505b509250505060405180910390f35b348015610b2d57600080fd5b50610b5a60048036036020811015610b4457600080fd5b8101908080359060200190929190505050612d95565b60405180821515815260200191505060405180910390f35b610c5560048036036060811015610b8857600080fd5b810190808035906020019092919080359060200190640100000000811115610baf57600080fd5b820183602082011115610bc157600080fd5b80359060200191846001830284011164010000000083111715610be357600080fd5b91908080601f016020809104026020016040519081016040528093929190818152602001838380828437600081840152601f19601f820116905080830192505050505050509192919290803573ffffffffffffffffffffffffffffffffffffffff169060200190929190505050612db5565b005b348015610c6357600080fd5b50610d1d60048036036020811015610c7a57600080fd5b8101908080359060200190640100000000811115610c9757600080fd5b820183602082011115610ca957600080fd5b80359060200191846001830284011164010000000083111715610ccb57600080fd5b91908080601f016020809104026020016040519081016040528093929190818152602001838380828437600081840152601f19601f8201169050808301925050505050505091929192905050506132bc565b60405180821515815260200191505060405180910390f35b348015610d4157600080fd5b50610d8460048036036020811015610d5857600080fd5b81019080803573ffffffffffffffffffffffffffffffffffffffff169060200190929190505050613708565b005b60003360011515600a60008373ffffffffffffffffffffffffffffffffffffffff1673ffffffffffffffffffffffffffffffffffffffff16815260200190815260200160002060020160009054906101000a900460ff16151514610e52576040517f08c379a000000000000000000000000000000000000000000000000000000000815260040180806020018281038252601b8152602001807f4f6f6f707320212055736572206e6f742072656769737465726564000000000081525060200191505060405180910390fd5b600860003373ffffffffffffffffffffffffffffffffffffffff1673ffffffffffffffffffffffffffffffffffffffff168152602001908152602001600020836040518082805190602001908083835b60208310610ec55780518252602082019150602081019050602083039250610ea2565b6001836020036101000a038019825116818451168082178552505050505050905001915050908152602001604051809103902054915050919050565b600960009054906101000a900473ffffffffffffffffffffffffffffffffffffffff1681565b600b8181548110610f3457fe5b906000526020600020016000915054906101000a900473ffffffffffffffffffffffffffffffffffffffff1681565b60066020528060005260406000206000915090505481565b8082600a60003373ffffffffffffffffffffffffffffffffffffffff1673ffffffffffffffffffffffffffffffffffffffff16815260200190815260200160002060020160009054906101000a900460ff1661103f576040517f08c379a00000000000000000000000000000000000000000000000000000000081526004018080602001828103825260128152602001807f5573657220646f65736e2774206578697374000000000000000000000000000081525060200191505060405180910390fd5b80600860003373ffffffffffffffffffffffffffffffffffffffff1673ffffffffffffffffffffffffffffffffffffffff168152602001908152602001600020836040518082805190602001908083835b602083106110b35780518252602082019150602081019050602083039250611090565b6001836020036101000a038019825116818451168082178552505050505050905001915050908152602001604051809103902054101561115b576040517f08c379a00000000000000000000000000000000000000000000000000000000081526004018080602001828103825260148152602001807f696e73756666696369656e742062616c616e636500000000000000000000000081525060200191505060405180910390fd5b600a60003373ffffffffffffffffffffffffffffffffffffffff1673ffffffffffffffffffffffffffffffffffffffff16815260200190815260200160002060020160009054906101000a900460ff1661121d576040517f08c379a00000000000000000000000000000000000000000000000000000000081526004018080602001828103825260138152602001807f55736572206e6f7420726567697374657265640000000000000000000000000081525060200191505060405180910390fd5b6112d684600860003373ffffffffffffffffffffffffffffffffffffffff1673ffffffffffffffffffffffffffffffffffffffff168152602001908152602001600020856040518082805190602001908083835b602083106112945780518252602082019150602081019050602083039250611271565b6001836020036101000a03801982511681845116808217855250505050505090500191505090815260200160405180910390205461372590919063ffffffff16565b600860003373ffffffffffffffffffffffffffffffffffffffff1673ffffffffffffffffffffffffffffffffffffffff168152602001908152602001600020846040518082805190602001908083835b602083106113495780518252602082019150602081019050602083039250611326565b6001836020036101000a03801982511681845116808217855250505050505090500191505090815260200160405180910390208190555061143984600860008873ffffffffffffffffffffffffffffffffffffffff1673ffffffffffffffffffffffffffffffffffffffff168152602001908152602001600020856040518082805190602001908083835b602083106113f757805182526020820191506020810190506020830392506113d4565b6001836020036101000a03801982511681845116808217855250505050505090500191505090815260200160405180910390205461373c90919063ffffffff16565b600860008773ffffffffffffffffffffffffffffffffffffffff1673ffffffffffffffffffffffffffffffffffffffff168152602001908152602001600020846040518082805190602001908083835b602083106114ac5780518252602082019150602081019050602083039250611489565b6001836020036101000a0380198251168184511680821785525050505050509050019150509081526020016040518091039020819055505050505050565b34600a60003373ffffffffffffffffffffffffffffffffffffffff1673ffffffffffffffffffffffffffffffffffffffff16815260200190815260200160002060020160009054906101000a900460ff166115ad576040517f08c379a00000000000000000000000000000000000000000000000000000000081526004018080602001828103825260128152602001807f5573657220646f65736e2774206578697374000000000000000000000000000081525060200191505060405180910390fd5b80341015611623576040517f08c379a00000000000000000000000000000000000000000000000000000000081526004018080602001828103825260148152602001807f696e73756666696369656e742062616c616e636500000000000000000000000081525060200191505060405180910390fd5b600a60003373ffffffffffffffffffffffffffffffffffffffff1673ffffffffffffffffffffffffffffffffffffffff16815260200190815260200160002060020160009054906101000a900460ff166116e5576040517f08c379a00000000000000000000000000000000000000000000000000000000081526004018080602001828103825260138152602001807f55736572206e6f7420726567697374657265640000000000000000000000000081525060200191505060405180910390fd5b8173ffffffffffffffffffffffffffffffffffffffff166108fc349081150290604051600060405180830381858888f1935050505015801561172b573d6000803e3d6000fd5b505050565b60036020528060005260406000206000915090505481565b60008160001515600c826040518082805190602001908083835b602083106117855780518252602082019150602081019050602083039250611762565b6001836020036101000a038019825116818451168082178552505050505050905001915050908152602001604051809103902060009054906101000a900460ff1615151461183b576040517f08c379a000000000000000000000000000000000000000000000000000000000815260040180806020018281038252601b8152602001807f4f6f6f70732021204e616d6520616c726561647920657869737473000000000081525060200191505060405180910390fd5b60001515600a60003373ffffffffffffffffffffffffffffffffffffffff1673ffffffffffffffffffffffffffffffffffffffff16815260200190815260200160002060020160009054906101000a900460ff161515146118e7576040517f08c379a000000000000000000000000000000000000000000000000000000000815260040180806020018281038252602281526020018061398a6022913960400191505060405180910390fd5b82600a60003373ffffffffffffffffffffffffffffffffffffffff1673ffffffffffffffffffffffffffffffffffffffff168152602001908152602001600020600001908051906020019061193d929190613881565b506000600860003373ffffffffffffffffffffffffffffffffffffffff1673ffffffffffffffffffffffffffffffffffffffff16815260200190815260200160002060405180807f627463000000000000000000000000000000000000000000000000000000000081525060030190509081526020016040518091039020819055506000600860003373ffffffffffffffffffffffffffffffffffffffff1673ffffffffffffffffffffffffffffffffffffffff16815260200190815260200160002060405180807f757364000000000000000000000000000000000000000000000000000000000081525060030190509081526020016040518091039020819055506001600a60003373ffffffffffffffffffffffffffffffffffffffff1673ffffffffffffffffffffffffffffffffffffffff16815260200190815260200160002060020160006101000a81548160ff0219169083151502179055506040518060400160405280600481526020017f7573657200000000000000000000000000000000000000000000000000000000815250600a60003373ffffffffffffffffffffffffffffffffffffffff1673ffffffffffffffffffffffffffffffffffffffff1681526020019081526020016000206001019080519060200190611b26929190613881565b506001915050919050565b60046020528060005260406000206000915054906101000a900473ffffffffffffffffffffffffffffffffffffffff1681565b60056020528060005260406000206000915054906101000a900473ffffffffffffffffffffffffffffffffffffffff1681565b60003373ffffffffffffffffffffffffffffffffffffffff1631905090565b611bbe611c9a565b611bc757600080fd5b600160009054906101000a900473ffffffffffffffffffffffffffffffffffffffff1673ffffffffffffffffffffffffffffffffffffffff167ff8df31144d9c2f0f6b59d69b8b98abd5459d07f2742c4df920b25aae33c6482060405160405180910390a26000600160006101000a81548173ffffffffffffffffffffffffffffffffffffffff021916908373ffffffffffffffffffffffffffffffffffffffff160217905550565b6000600160009054906101000a900473ffffffffffffffffffffffffffffffffffffffff16905090565b6000600160009054906101000a900473ffffffffffffffffffffffffffffffffffffffff1673ffffffffffffffffffffffffffffffffffffffff163373ffffffffffffffffffffffffffffffffffffffff1614905090565b6060600b805480602002602001604051908101604052809291908181526020018280548015611d7657602002820191906000526020600020905b8160009054906101000a900473ffffffffffffffffffffffffffffffffffffffff1673ffffffffffffffffffffffffffffffffffffffff1681526020019060010190808311611d2c575b5050505050905090565b60008054906101000a900473ffffffffffffffffffffffffffffffffffffffff1681565b600a602052806000526040600020600091509050806000018054600181600116156101000203166002900480601f016020809104026020016040519081016040528092919081815260200182805460018160011615610100020316600290048015611e505780601f10611e2557610100808354040283529160200191611e50565b820191906000526020600020905b815481529060010190602001808311611e3357829003601f168201915b505050505090806001018054600181600116156101000203166002900480601f016020809104026020016040519081016040528092919081815260200182805460018160011615610100020316600290048015611eee5780601f10611ec357610100808354040283529160200191611eee565b820191906000526020600020905b815481529060010190602001808311611ed157829003601f168201915b5050505050908060020160009054906101000a900460ff16905083565b600960009054906101000a900473ffffffffffffffffffffffffffffffffffffffff1673ffffffffffffffffffffffffffffffffffffffff163373ffffffffffffffffffffffffffffffffffffffff1614611fb1576040517f08c379a00000000000000000000000000000000000000000000000000000000081526004018080602001828103825260238152602001806139676023913960400191505060405180910390fd5b8160086000600960009054906101000a900473ffffffffffffffffffffffffffffffffffffffff1673ffffffffffffffffffffffffffffffffffffffff1673ffffffffffffffffffffffffffffffffffffffff168152602001908152602001600020826040518082805190602001908083835b602083106120475780518252602082019150602081019050602083039250612024565b6001836020036101000a03801982511681845116808217855250505050505090500191505090815260200160405180910390205410156120ef576040517f08c379a00000000000000000000000000000000000000000000000000000000081526004018080602001828103825260208152602001807f596f7520646f6e277420686176652073756666696369656e7420746f6b656e7381525060200191505060405180910390fd5b6121ca8260086000600960009054906101000a900473ffffffffffffffffffffffffffffffffffffffff1673ffffffffffffffffffffffffffffffffffffffff1673ffffffffffffffffffffffffffffffffffffffff168152602001908152602001600020836040518082805190602001908083835b602083106121885780518252602082019150602081019050602083039250612165565b6001836020036101000a03801982511681845116808217855250505050505090500191505090815260200160405180910390205461372590919063ffffffff16565b60086000600960009054906101000a900473ffffffffffffffffffffffffffffffffffffffff1673ffffffffffffffffffffffffffffffffffffffff1673ffffffffffffffffffffffffffffffffffffffff168152602001908152602001600020826040518082805190602001908083835b6020831061225f578051825260208201915060208101905060208303925061223c565b6001836020036101000a03801982511681845116808217855250505050505090500191505090815260200160405180910390208190555061234f82600860008673ffffffffffffffffffffffffffffffffffffffff1673ffffffffffffffffffffffffffffffffffffffff168152602001908152602001600020836040518082805190602001908083835b6020831061230d57805182526020820191506020810190506020830392506122ea565b6001836020036101000a03801982511681845116808217855250505050505090500191505090815260200160405180910390205461373c90919063ffffffff16565b600860008573ffffffffffffffffffffffffffffffffffffffff1673ffffffffffffffffffffffffffffffffffffffff168152602001908152602001600020826040518082805190602001908083835b602083106123c2578051825260208201915060208101905060208303925061239f565b6001836020036101000a038019825116818451168082178552505050505050905001915050908152602001604051809103902081905550505050565b60008060009054906101000a900473ffffffffffffffffffffffffffffffffffffffff16905090565b60008054906101000a900473ffffffffffffffffffffffffffffffffffffffff1673ffffffffffffffffffffffffffffffffffffffff163373ffffffffffffffffffffffffffffffffffffffff16146124e8576040517f08c379a000000000000000000000000000000000000000000000000000000000815260040180806020018281038252601f8152602001807f43616c6c6572206e6f7420746865204169726e6f646520636f6e74726163740081525060200191505060405180910390fd5b6002600084815260200190815260200160002060009054906101000a900460ff1661257b576040517f08c379a00000000000000000000000000000000000000000000000000000000081526004018080602001828103825260148152602001807f4e6f20737563682072657175657374206d61646500000000000000000000000081525060200191505060405180910390fd5b6002600084815260200190815260200160002060006101000a81549060ff021916905560008214612614576040517f08c379a000000000000000000000000000000000000000000000000000000000815260040180806020018281038252600e8152602001807f4572726f7220726573706f6e736500000000000000000000000000000000000081525060200191505060405180910390fd5b6000670de0b6b3a764000061264860066000878152602001908152602001600020548460001c61375890919063ffffffff16565b8161264f57fe5b04905080600860006005600088815260200190815260200160002060009054906101000a900473ffffffffffffffffffffffffffffffffffffffff1673ffffffffffffffffffffffffffffffffffffffff1673ffffffffffffffffffffffffffffffffffffffff1681526020019081526020016000206007600087815260200190815260200160002060405180828054600181600116156101000203166002900480156127335780601f10612711576101008083540402835291820191612733565b820191906000526020600020905b81548152906001019060200180831161271f575b5050915050908152602001604051809103902054101561279e576040517f08c379a000000000000000000000000000000000000000000000000000000000815260040180806020018281038252602b8152602001806139ac602b913960400191505060405180910390fd5b6005600085815260200190815260200160002060009054906101000a900473ffffffffffffffffffffffffffffffffffffffff1673ffffffffffffffffffffffffffffffffffffffff166108fc60066000878152602001908152602001600020549081150290604051600060405180830381858888f1935050505015801561282a573d6000803e3d6000fd5b5061293181600860006004600089815260200190815260200160002060009054906101000a900473ffffffffffffffffffffffffffffffffffffffff1673ffffffffffffffffffffffffffffffffffffffff1673ffffffffffffffffffffffffffffffffffffffff16815260200190815260200160002060076000888152602001908152602001600020604051808280546001816001161561010002031660029004801561290f5780601f106128ed57610100808354040283529182019161290f565b820191906000526020600020905b8154815290600101906020018083116128fb575b505091505090815260200160405180910390205461373c90919063ffffffff16565b600860006004600088815260200190815260200160002060009054906101000a900473ffffffffffffffffffffffffffffffffffffffff1673ffffffffffffffffffffffffffffffffffffffff1673ffffffffffffffffffffffffffffffffffffffff168152602001908152602001600020600760008781526020019081526020016000206040518082805460018160011615610100020316600290048015612a115780601f106129ef576101008083540402835291820191612a11565b820191906000526020600020905b8154815290600101906020018083116129fd575b5050915050908152602001604051809103902081905550612b2e81600860006005600089815260200190815260200160002060009054906101000a900473ffffffffffffffffffffffffffffffffffffffff1673ffffffffffffffffffffffffffffffffffffffff1673ffffffffffffffffffffffffffffffffffffffff168152602001908152602001600020600760008881526020019081526020016000206040518082805460018160011615610100020316600290048015612b0c5780601f10612aea576101008083540402835291820191612b0c565b820191906000526020600020905b815481529060010190602001808311612af8575b505091505090815260200160405180910390205461372590919063ffffffff16565b600860006005600088815260200190815260200160002060009054906101000a900473ffffffffffffffffffffffffffffffffffffffff1673ffffffffffffffffffffffffffffffffffffffff1673ffffffffffffffffffffffffffffffffffffffff168152602001908152602001600020600760008781526020019081526020016000206040518082805460018160011615610100020316600290048015612c0e5780601f10612bec576101008083540402835291820191612c0e565b820191906000526020600020905b815481529060010190602001808311612bfa575b50509150509081526020016040518091039020819055508060036000868152602001908152602001600020819055506004600085815260200190815260200160002060006101000a81549073ffffffffffffffffffffffffffffffffffffffff0219169055600760008581526020019081526020016000206000612c929190613901565b60066000858152602001908152602001600020600090556005600085815260200190815260200160002060006101000a81549073ffffffffffffffffffffffffffffffffffffffff021916905550505050565b60076020528060005260406000206000915090508054600181600116156101000203166002900480601f016020809104026020016040519081016040528092919081815260200182805460018160011615610100020316600290048015612d8d5780601f10612d6257610100808354040283529160200191612d8d565b820191906000526020600020905b815481529060010190602001808311612d7057829003601f168201915b505050505081565b60026020528060005260406000206000915054906101000a900460ff1681565b3360011515600a60008373ffffffffffffffffffffffffffffffffffffffff1673ffffffffffffffffffffffffffffffffffffffff16815260200190815260200160002060020160009054906101000a900460ff16151514612e7f576040517f08c379a000000000000000000000000000000000000000000000000000000000815260040180806020018281038252601b8152602001807f4f6f6f707320212055736572206e6f742072656769737465726564000000000081525060200191505060405180910390fd5b34600a60003373ffffffffffffffffffffffffffffffffffffffff1673ffffffffffffffffffffffffffffffffffffffff16815260200190815260200160002060020160009054906101000a900460ff16612f42576040517f08c379a00000000000000000000000000000000000000000000000000000000081526004018080602001828103825260128152602001807f5573657220646f65736e2774206578697374000000000000000000000000000081525060200191505060405180910390fd5b80341015612fb8576040517f08c379a00000000000000000000000000000000000000000000000000000000081526004018080602001828103825260148152602001807f696e73756666696369656e742062616c616e636500000000000000000000000081525060200191505060405180910390fd5b60008060009054906101000a900473ffffffffffffffffffffffffffffffffffffffff1673ffffffffffffffffffffffffffffffffffffffff166327091153877f31530000000000000000000000000000000000000000000000000000000000007f636f696e496400000000000000000000000000000000000000000000000000006040516020018083815260200182815260200180602001828103825260088152602001807f657468657265756d00000000000000000000000000000000000000000000000081525060200193505050506040516020818303038152906040526040518363ffffffff1660e01b81526004018083815260200180602001828103825283818151815260200191508051906020019080838360005b838110156130ee5780820151818401526020810190506130d3565b50505050905090810190601f16801561311b5780820380516001836020036101000a031916815260200191505b509350505050602060405180830381600087803b15801561313b57600080fd5b505af115801561314f573d6000803e3d6000fd5b505050506040513d602081101561316557600080fd5b8101908080519060200190929190505050905060016002600083815260200190815260200160002060006101000a81548160ff021916908315150217905550336004600083815260200190815260200160002060006101000a81548173ffffffffffffffffffffffffffffffffffffffff021916908373ffffffffffffffffffffffffffffffffffffffff1602179055508460076000838152602001908152602001600020908051906020019061321d929190613881565b50346006600083815260200190815260200160002081905550836005600083815260200190815260200160002060006101000a81548173ffffffffffffffffffffffffffffffffffffffff021916908373ffffffffffffffffffffffffffffffffffffffff16021790555060016002600083815260200190815260200160002060006101000a81548160ff021916908315150217905550505050505050565b60008160001515600c826040518082805190602001908083835b602083106132f957805182526020820191506020810190506020830392506132d6565b6001836020036101000a038019825116818451168082178552505050505050905001915050908152602001604051809103902060009054906101000a900460ff161515146133af576040517f08c379a000000000000000000000000000000000000000000000000000000000815260040180806020018281038252601b8152602001807f4f6f6f70732021204e616d6520616c726561647920657869737473000000000081525060200191505060405180910390fd5b60001515600a60003373ffffffffffffffffffffffffffffffffffffffff1673ffffffffffffffffffffffffffffffffffffffff16815260200190815260200160002060020160009054906101000a900460ff1615151461345b576040517f08c379a000000000000000000000000000000000000000000000000000000000815260040180806020018281038252602281526020018061398a6022913960400191505060405180910390fd5b82600a60003373ffffffffffffffffffffffffffffffffffffffff1673ffffffffffffffffffffffffffffffffffffffff16815260200190815260200160002060000190805190602001906134b1929190613881565b506000600860003373ffffffffffffffffffffffffffffffffffffffff1673ffffffffffffffffffffffffffffffffffffffff16815260200190815260200160002060405180807f627463000000000000000000000000000000000000000000000000000000000081525060030190509081526020016040518091039020819055506000600860003373ffffffffffffffffffffffffffffffffffffffff1673ffffffffffffffffffffffffffffffffffffffff16815260200190815260200160002060405180807f757364000000000000000000000000000000000000000000000000000000000081525060030190509081526020016040518091039020819055506001600a60003373ffffffffffffffffffffffffffffffffffffffff1673ffffffffffffffffffffffffffffffffffffffff16815260200190815260200160002060020160006101000a81548160ff0219169083151502179055506040518060400160405280600881526020017f65786368616e6765000000000000000000000000000000000000000000000000815250600a60003373ffffffffffffffffffffffffffffffffffffffff1673ffffffffffffffffffffffffffffffffffffffff168152602001908152602001600020600101908051906020019061369a929190613881565b50600b339080600181540180825580915050600190039060005260206000200160009091909190916101000a81548173ffffffffffffffffffffffffffffffffffffffff021916908373ffffffffffffffffffffffffffffffffffffffff1602179055506001915050919050565b613710611c9a565b61371957600080fd5b61372281613787565b50565b60008282111561373157fe5b818303905092915050565b60008082840190508381101561374e57fe5b8091505092915050565b6000808284029050600084148061377757508284828161377457fe5b04145b61377d57fe5b8091505092915050565b600073ffffffffffffffffffffffffffffffffffffffff168173ffffffffffffffffffffffffffffffffffffffff1614156137c157600080fd5b8073ffffffffffffffffffffffffffffffffffffffff16600160009054906101000a900473ffffffffffffffffffffffffffffffffffffffff1673ffffffffffffffffffffffffffffffffffffffff167f8be0079c531659141344cd1fd0a4f28419497f9722a3daafe3b4186f6b6457e060405160405180910390a380600160006101000a81548173ffffffffffffffffffffffffffffffffffffffff021916908373ffffffffffffffffffffffffffffffffffffffff16021790555050565b828054600181600116156101000203166002900490600052602060002090601f016020900481019282601f106138c257805160ff19168380011785556138f0565b828001600101855582156138f0579182015b828111156138ef5782518255916020019190600101906138d4565b5b5090506138fd9190613949565b5090565b50805460018160011615610100020316600290046000825580601f106139275750613946565b601f0160209004906000526020600020908101906139459190613949565b5b50565b5b8082111561396257600081600090555060010161394a565b509056fe4f6e6c79206f776e65722063616e20696e766f6b6520746869732066756e6374696f6e4f6f6f70732021204164647265737320616c726561647920726567697374657265645468652065786368616e676520646f65736e277420686176652073756666696369656e7420746f6b656e73a2646970667358221220c6b11c5126115af3c4a6f75e55fd9641d18615d698cebb19eb01d66a5930509764736f6c634300060c0033",
  "immutableReferences": {},
  "source": "pragma solidity >=0.6.12;\nimport \"./Ownable.sol\";\nimport \"./SafeMath.sol\";\nimport \"@api3/airnode-protocol/contracts/AirnodeClient.sol\";\n\n\ncontract TransferRequestClient is AirnodeClient,Ownable{\n\n    \n    using SafeMath for uint256;\n\n    struct User{\n        string name;\n        string userType;\n        bool exists;\n    }\n    \n    //Use and delete\n    mapping(bytes32 => bool) public incomingFulfillments;\n    mapping(bytes32 => uint) public fulfilledData;\n    mapping(bytes32 => address) public dataRecepient;\n    mapping(bytes32 => address) public exchangeParty;\n    mapping(bytes32 => uint) public amountSent;\n    mapping(bytes32 => string) public tokenName;\n\n    //persistent\n    mapping(address => mapping(string =>uint)) internal balances;    \n    address public creator;\n    mapping(address => User) public users;\n    address[] public exchangeAddresses;\n    mapping (string => bool) isUsernameTaken;\n\n\n    constructor(address airnodeAddress) public AirnodeClient(airnodeAddress){\n        creator = msg.sender;\n        balances[creator][\"usd\"] = 50000 * 1e2; // 50000 dollars in lowesr unit cents\n        balances[creator][\"btc\"] = 1000 * 1e8; // 1000 bitcoins in lowest unit satoshi\n        users[creator].name = \"admin\";\n        users[creator].exists = true;\n        users[creator].userType = \"admin\";\n    }\n\n\n\n    modifier ownerOnly{\n        require(msg.sender == creator, \"Only owner can invoke this function\");\n        _;\n    }\n\n\n    modifier ifNameExists(string memory _name){\n        require(isUsernameTaken[_name] == false, \"Ooops ! Name already exists\");\n        require(users[msg.sender].exists == false, \"Ooops ! Address already registered\");\n        _;\n    }\n\n    modifier isUserRegistered(address _address){\n        require(users[_address].exists == true, \"Ooops ! User not registered\");\n        _;\n    }\n\n    modifier amountCheck(string memory _currency,uint _amount){\n        require(users[msg.sender].exists,\"User doesn't exist\");\n        require(balances[msg.sender][_currency] >= _amount,\"insufficient balance\");\n        _;\n    }\n    \n    \n    modifier ethCheck(uint _value){\n        require(users[msg.sender].exists,\"User doesn't exist\");\n        require(msg.value >= _value,\"insufficient balance\");\n        _;\n    }\n    \n    \n\n    function registerAsExchange(string memory _name) public ifNameExists(_name) returns(bool) {\n        users[msg.sender].name = _name;\n        balances[msg.sender][\"btc\"] = 0;\n        balances[msg.sender][\"usd\"] = 0;\n        users[msg.sender].exists = true;\n        users[msg.sender].userType = \"exchange\";\n        exchangeAddresses.push(msg.sender);\n        return true;\n    }\n\n    function registerAsUser(string memory _name) public ifNameExists(_name) returns(bool){\n        users[msg.sender].name = _name;\n        balances[msg.sender][\"btc\"] = 0;\n        balances[msg.sender][\"usd\"] = 0;\n        users[msg.sender].exists = true;\n        users[msg.sender].userType = \"user\";\n        return true;\n    }\n\n\n\n\n    function getTokenBalance(string memory _currency) public isUserRegistered(msg.sender) view returns(uint){\n        return balances[msg.sender][_currency];\n    }\n    \n    function getEthBalance() public view returns(uint){\n        return msg.sender.balance;\n    }\n    \n    \n\n\n\n    function transferEth(address payable _receiver) public payable ethCheck(msg.value){\n        require(users[msg.sender].exists,\"User not registered\");\n        _receiver.transfer(msg.value);\n    }\n    \n    \n    function transferToken(address _receiver, uint _amount, string memory _currency) public payable amountCheck(_currency, _amount){\n        require(users[msg.sender].exists,\"User not registered\");\n        balances[msg.sender][_currency] = balances[msg.sender][_currency].sub(_amount);\n        balances[_receiver][_currency] = balances[_receiver][_currency].add(_amount);\n    }\n\n\n\n    function deposit(address _address,uint _amount,string memory _currency) public payable ownerOnly{\n        require(balances[creator][_currency]>=_amount,\"You don't have sufficient tokens\");\n        balances[creator][_currency] = balances[creator][_currency].sub(_amount);\n        balances[_address][_currency] = balances[_address][_currency].add(_amount);\n    }\n\n\n    function getExchangeList() public view returns(address[] memory){\n        return exchangeAddresses;\n    }\n    \n    \n    \n    function exchangeEthForToken(bytes32 _template_id, string memory _token_name, address _exchange_address) public payable isUserRegistered(msg.sender) ethCheck(msg.value){\n\n        bytes32 requestId = airnode.makeShortRequest(\n            _template_id,\n            abi.encode(\n                bytes32(\"1S\"),\n                bytes32(\"coinId\"),\"ethereum\"\n                       )\n        );\n        incomingFulfillments[requestId] = true; \n        dataRecepient[requestId] = msg.sender;\n        tokenName[requestId] = _token_name;\n        amountSent[requestId] = msg.value;\n        exchangeParty[requestId] = _exchange_address;\n        incomingFulfillments[requestId] = true;\n    }\n\n\n    function fulfill(bytes32 requestId,uint256 statusCode,bytes32 data) external onlyAirnode()\n    {\n        require(incomingFulfillments[requestId], \"No such request made\");\n        delete incomingFulfillments[requestId];\n        require(statusCode == 0,\"Error response\");\n        uint tokensToSend = uint(data).mul(amountSent[requestId]) / 1e18;\n        require(balances[exchangeParty[requestId]][tokenName[requestId]] >= tokensToSend,\"The exchange doesn't have sufficient tokens\");\n        payable(exchangeParty[requestId]).transfer(amountSent[requestId]);\n        balances[dataRecepient[requestId]][tokenName[requestId]] = balances[dataRecepient[requestId]][tokenName[requestId]].add(tokensToSend);\n        balances[exchangeParty[requestId]][tokenName[requestId]] = balances[exchangeParty[requestId]][tokenName[requestId]].sub(tokensToSend);\n        fulfilledData[requestId] = tokensToSend;\n        delete dataRecepient[requestId];\n        delete tokenName[requestId];\n        delete amountSent[requestId];\n        delete exchangeParty[requestId];\n    }\n\n}\n\n",
  "sourcePath": "/home/kesha/Desktop/multi_oracle_airnode/contracts/TransferRequestClient.sol",
  "compiler": {
    "name": "solc",
    "version": "0.6.12+commit.27d51765.Emscripten.clang"
  },
  "schemaVersion": "3.4.1",
  "updatedAt": "2021-06-27T16:11:51.846Z",
  "devdoc": {
    "kind": "dev",
    "methods": {
      "airnodeAddress()": {
        "returns": {
          "_airnodeAddress": "Airnode contract address"
        }
      },
      "isOwner()": {
        "returns": {
          "_0": "true if `msg.sender` is the owner of the contract."
        }
      },
      "owner()": {
        "returns": {
          "_0": "the address of the owner."
        }
      },
      "renounceOwnership()": {
        "details": "Allows the current owner to relinquish control of the contract."
      },
      "transferOwnership(address)": {
        "details": "Allows the current owner to transfer control of the contract to a newOwner.",
        "params": {
          "newOwner": "The address to transfer ownership to."
        }
      }
    },
    "version": 1
  },
  "userdoc": {
    "kind": "user",
    "methods": {
      "airnodeAddress()": {
        "notice": "Returns the Airnode contract address used by this client"
      },
      "renounceOwnership()": {
        "notice": "Renouncing to ownership will leave the contract without an owner. It will not be possible to call the functions with the `onlyOwner` modifier anymore."
      }
    },
    "version": 1
  }
}