{
  "contractName": "RegularRequestClient",
  "abi": [
    {
      "inputs": [
        {
          "internalType": "address",
          "name": "airnodeAddress",
          "type": "address"
        }
      ],
      "stateMutability": "nonpayable",
      "type": "constructor"
    },
    {
      "anonymous": false,
      "inputs": [
        {
          "indexed": true,
          "internalType": "address",
          "name": "previousOwner",
          "type": "address"
        }
      ],
      "name": "OwnershipRenounced",
      "type": "event"
    },
    {
      "anonymous": false,
      "inputs": [
        {
          "indexed": true,
          "internalType": "address",
          "name": "previousOwner",
          "type": "address"
        },
        {
          "indexed": true,
          "internalType": "address",
          "name": "newOwner",
          "type": "address"
        }
      ],
      "name": "OwnershipTransferred",
      "type": "event"
    },
    {
      "inputs": [],
      "name": "airnode",
      "outputs": [
        {
          "internalType": "contract IAirnode",
          "name": "",
          "type": "address"
        }
      ],
      "stateMutability": "view",
      "type": "function"
    },
    {
      "inputs": [],
      "name": "airnodeAddress",
      "outputs": [
        {
          "internalType": "address",
          "name": "_airnodeAddress",
          "type": "address"
        }
      ],
      "stateMutability": "view",
      "type": "function"
    },
    {
      "inputs": [],
      "name": "designatedWallet",
      "outputs": [
        {
          "internalType": "address",
          "name": "",
          "type": "address"
        }
      ],
      "stateMutability": "view",
      "type": "function"
    },
    {
      "inputs": [
        {
          "internalType": "bytes32",
          "name": "",
          "type": "bytes32"
        }
      ],
      "name": "fulfilledData",
      "outputs": [
        {
          "internalType": "bytes32",
          "name": "",
          "type": "bytes32"
        }
      ],
      "stateMutability": "view",
      "type": "function"
    },
    {
      "inputs": [],
      "name": "fullFillAddress",
      "outputs": [
        {
          "internalType": "address",
          "name": "",
          "type": "address"
        }
      ],
      "stateMutability": "view",
      "type": "function"
    },
    {
      "inputs": [],
      "name": "fullFillFunctionId",
      "outputs": [
        {
          "internalType": "bytes32",
          "name": "",
          "type": "bytes32"
        }
      ],
      "stateMutability": "view",
      "type": "function"
    },
    {
      "inputs": [
        {
          "internalType": "bytes32",
          "name": "",
          "type": "bytes32"
        }
      ],
      "name": "incomingFulfillments",
      "outputs": [
        {
          "internalType": "bool",
          "name": "",
          "type": "bool"
        }
      ],
      "stateMutability": "view",
      "type": "function"
    },
    {
      "inputs": [],
      "name": "isOwner",
      "outputs": [
        {
          "internalType": "bool",
          "name": "",
          "type": "bool"
        }
      ],
      "stateMutability": "view",
      "type": "function"
    },
    {
      "inputs": [],
      "name": "owner",
      "outputs": [
        {
          "internalType": "address",
          "name": "",
          "type": "address"
        }
      ],
      "stateMutability": "view",
      "type": "function"
    },
    {
      "inputs": [],
      "name": "renounceOwnership",
      "outputs": [],
      "stateMutability": "nonpayable",
      "type": "function"
    },
    {
      "inputs": [],
      "name": "requesterIndex",
      "outputs": [
        {
          "internalType": "uint256",
          "name": "",
          "type": "uint256"
        }
      ],
      "stateMutability": "view",
      "type": "function"
    },
    {
      "inputs": [
        {
          "internalType": "address",
          "name": "newOwner",
          "type": "address"
        }
      ],
      "name": "transferOwnership",
      "outputs": [],
      "stateMutability": "nonpayable",
      "type": "function"
    },
    {
      "inputs": [
        {
          "internalType": "uint256",
          "name": "_requesterIndex",
          "type": "uint256"
        },
        {
          "internalType": "address",
          "name": "_designatedWallet",
          "type": "address"
        }
      ],
      "name": "updateRequester",
      "outputs": [],
      "stateMutability": "nonpayable",
      "type": "function"
    },
    {
      "inputs": [
        {
          "internalType": "bytes32",
          "name": "templateId",
          "type": "bytes32"
        },
        {
          "internalType": "uint256",
          "name": "requesterInd",
          "type": "uint256"
        },
        {
          "internalType": "address",
          "name": "designatedWal",
          "type": "address"
        },
        {
          "internalType": "address",
          "name": "fullFilladd",
          "type": "address"
        },
        {
          "internalType": "bytes4",
          "name": "fullFillFunc",
          "type": "bytes4"
        },
        {
          "internalType": "bytes",
          "name": "parameters",
          "type": "bytes"
        }
      ],
      "name": "makeRequest",
      "outputs": [],
      "stateMutability": "nonpayable",
      "type": "function"
    },
    {
      "inputs": [
        {
          "internalType": "bytes32",
          "name": "requestId",
          "type": "bytes32"
        },
        {
          "internalType": "uint256",
          "name": "statusCode",
          "type": "uint256"
        },
        {
          "internalType": "bytes32",
          "name": "data",
          "type": "bytes32"
        }
      ],
      "name": "fulfill",
      "outputs": [],
      "stateMutability": "nonpayable",
      "type": "function"
    }
  ],
  "bytecode": "0x608060405234801561001057600080fd5b50604051610c7b380380610c7b8339818101604052602081101561003357600080fd5b810190808051906020019092919050505080806000806101000a81548173ffffffffffffffffffffffffffffffffffffffff021916908373ffffffffffffffffffffffffffffffffffffffff1602179055505033600160006101000a81548173ffffffffffffffffffffffffffffffffffffffff021916908373ffffffffffffffffffffffffffffffffffffffff16021790555050610ba4806100d76000396000f3fe608060405234801561001057600080fd5b50600436106100f55760003560e01c80638f32d59b11610097578063d3bd146411610066578063d3bd1464146103b6578063dd2ae83f146103f8578063e5ffcf8e1461043c578063f2fde38b14610470576100f5565b80638f32d59b146102e05780639ae0db3914610300578063a36ff4d81461034e578063d0bdd66c14610382576100f5565b8063406c6d6c116100d3578063406c6d6c1461022c578063632795d21461026e578063715018a6146102a25780638da5cb5b146102ac576100f5565b80631018a5f3146100fa57806317a730c21461011857806334989ad014610136575b600080fd5b6101026104b4565b6040518082815260200191505060405180910390f35b6101206104ba565b6040518082815260200191505060405180910390f35b61022a600480360360c081101561014c57600080fd5b810190808035906020019092919080359060200190929190803573ffffffffffffffffffffffffffffffffffffffff169060200190929190803573ffffffffffffffffffffffffffffffffffffffff16906020019092919080357bffffffffffffffffffffffffffffffffffffffffffffffffffffffff19169060200190929190803590602001906401000000008111156101e657600080fd5b8201836020820111156101f857600080fd5b8035906020019184600183028401116401000000008311171561021a57600080fd5b90919293919293905050506104c0565b005b6102586004803603602081101561024257600080fd5b810190808035906020019092919050505061064f565b6040518082815260200191505060405180910390f35b610276610667565b604051808273ffffffffffffffffffffffffffffffffffffffff16815260200191505060405180910390f35b6102aa61068d565b005b6102b4610747565b604051808273ffffffffffffffffffffffffffffffffffffffff16815260200191505060405180910390f35b6102e8610771565b60405180821515815260200191505060405180910390f35b61034c6004803603604081101561031657600080fd5b8101908080359060200190929190803573ffffffffffffffffffffffffffffffffffffffff1690602001909291905050506107c9565b005b610356610826565b604051808273ffffffffffffffffffffffffffffffffffffffff16815260200191505060405180910390f35b61038a61084a565b604051808273ffffffffffffffffffffffffffffffffffffffff16815260200191505060405180910390f35b6103f6600480360360608110156103cc57600080fd5b81019080803590602001909291908035906020019092919080359060200190929190505050610873565b005b6104246004803603602081101561040e57600080fd5b8101908080359060200190929190505050610a11565b60405180821515815260200191505060405180910390f35b610444610a31565b604051808273ffffffffffffffffffffffffffffffffffffffff16815260200191505060405180910390f35b6104b26004803603602081101561048657600080fd5b81019080803573ffffffffffffffffffffffffffffffffffffffff169060200190929190505050610a57565b005b60075481565b60045481565b60008060009054906101000a900473ffffffffffffffffffffffffffffffffffffffff1673ffffffffffffffffffffffffffffffffffffffff166334989ad08989898963d3bd146460e01b89896040518863ffffffff1660e01b8152600401808881526020018781526020018673ffffffffffffffffffffffffffffffffffffffff1681526020018573ffffffffffffffffffffffffffffffffffffffff168152602001847bffffffffffffffffffffffffffffffffffffffffffffffffffffffff19168152602001806020018281038252848482818152602001925080828437600081840152601f19601f82011690508083019250505098505050505050505050602060405180830381600087803b1580156105dc57600080fd5b505af11580156105f0573d6000803e3d6000fd5b505050506040513d602081101561060657600080fd5b8101908080519060200190929190505050905060016002600083815260200190815260200160002060006101000a81548160ff0219169083151502179055505050505050505050565b60036020528060005260406000206000915090505481565b600660009054906101000a900473ffffffffffffffffffffffffffffffffffffffff1681565b610695610771565b61069e57600080fd5b600160009054906101000a900473ffffffffffffffffffffffffffffffffffffffff1673ffffffffffffffffffffffffffffffffffffffff167ff8df31144d9c2f0f6b59d69b8b98abd5459d07f2742c4df920b25aae33c6482060405160405180910390a26000600160006101000a81548173ffffffffffffffffffffffffffffffffffffffff021916908373ffffffffffffffffffffffffffffffffffffffff160217905550565b6000600160009054906101000a900473ffffffffffffffffffffffffffffffffffffffff16905090565b6000600160009054906101000a900473ffffffffffffffffffffffffffffffffffffffff1673ffffffffffffffffffffffffffffffffffffffff163373ffffffffffffffffffffffffffffffffffffffff1614905090565b6107d1610771565b6107da57600080fd5b8160048190555080600560006101000a81548173ffffffffffffffffffffffffffffffffffffffff021916908373ffffffffffffffffffffffffffffffffffffffff1602179055505050565b60008054906101000a900473ffffffffffffffffffffffffffffffffffffffff1681565b60008060009054906101000a900473ffffffffffffffffffffffffffffffffffffffff16905090565b60008054906101000a900473ffffffffffffffffffffffffffffffffffffffff1673ffffffffffffffffffffffffffffffffffffffff163373ffffffffffffffffffffffffffffffffffffffff1614610934576040517f08c379a000000000000000000000000000000000000000000000000000000000815260040180806020018281038252601f8152602001807f43616c6c6572206e6f7420746865204169726e6f646520636f6e74726163740081525060200191505060405180910390fd5b6002600084815260200190815260200160002060009054906101000a900460ff166109c7576040517f08c379a00000000000000000000000000000000000000000000000000000000081526004018080602001828103825260148152602001807f4e6f20737563682072657175657374206d61646500000000000000000000000081525060200191505060405180910390fd5b6002600084815260200190815260200160002060006101000a81549060ff02191690556000821415610a0c578060036000858152602001908152602001600020819055505b505050565b60026020528060005260406000206000915054906101000a900460ff1681565b600560009054906101000a900473ffffffffffffffffffffffffffffffffffffffff1681565b610a5f610771565b610a6857600080fd5b610a7181610a74565b50565b600073ffffffffffffffffffffffffffffffffffffffff168173ffffffffffffffffffffffffffffffffffffffff161415610aae57600080fd5b8073ffffffffffffffffffffffffffffffffffffffff16600160009054906101000a900473ffffffffffffffffffffffffffffffffffffffff1673ffffffffffffffffffffffffffffffffffffffff167f8be0079c531659141344cd1fd0a4f28419497f9722a3daafe3b4186f6b6457e060405160405180910390a380600160006101000a81548173ffffffffffffffffffffffffffffffffffffffff021916908373ffffffffffffffffffffffffffffffffffffffff1602179055505056fea26469706673582212201c637a0437895384bb7b8dba23f5041e313ca9b4fcc4cb10626920d36a6b353364736f6c634300060c0033",
  "immutableReferences": {},
  "source": "//SPDX-License-Identifier: MIT\npragma solidity >=0.5.16;\nimport \"./Ownable.sol\";\nimport \"@api3/airnode-protocol/contracts/AirnodeClient.sol\";\n\ncontract RegularRequestClient is AirnodeClient, Ownable {\n    // When a request is made, a flag is set for it. When the request is\n    // fulfilled, the flag is reset. As a result, fulfill() will only run when\n    // there is an active request.\n    mapping(bytes32 => bool) public incomingFulfillments;\n    // The data used to fulfill the request is stored in fulfilledData. This is\n    // not a requirement, you can do anything you want with the received data.\n    mapping(bytes32 => bytes32) public fulfilledData;\n    // The requester sets the requesterIndex and designatedWallet variables\n    // to specify the designated wallet that the provider should use to fulfill\n    // the client's request.\n    uint256 public requesterIndex;\n    address public designatedWallet;\n    address public fullFillAddress;\n    bytes32 public fullFillFunctionId;\n\n    constructor (address airnodeAddress)\n        AirnodeClient(airnodeAddress)\n        public\n    {}\n\n    // Note that this is put behind onlyOwner. Usually, the client contract\n    // would be deployed by the requester, and thus only the requester can\n    // update these values (but alternative patterns are also possible).\n    function updateRequester(\n        uint256 _requesterIndex,\n        address _designatedWallet\n        )\n        external\n        onlyOwner\n    {\n        requesterIndex = _requesterIndex;\n        designatedWallet = _designatedWallet;\n    }\n\n    // The request is made by referring to a template, and providing\n    // request-time parameters. Note that both of these values could also have\n    // been hardcoded to the contract.\n    function makeRequest(\n        bytes32 templateId,\n        uint256 requesterInd,\n        address designatedWal,\n        address fullFilladd,\n        bytes4 fullFillFunc,\n        bytes calldata parameters\n        )\n        external\n    {    \n        bytes32 requestId = airnode.makeRequest(\n            templateId,\n            requesterInd,\n            designatedWal,\n            fullFilladd,\n            this.fulfill.selector,\n            parameters\n            );\n        incomingFulfillments[requestId] = true;\n    }\n\n    // Provider's Airnode calls Airnode.sol, which calls back this method.\n    // This is why this method is behind onlyAirnode.\n    function fulfill(\n        bytes32 requestId,\n        uint256 statusCode,\n        bytes32 data\n        )\n        external\n        onlyAirnode()\n    {\n        require(incomingFulfillments[requestId], \"No such request made\");\n        delete incomingFulfillments[requestId];\n        // A statusCode of 0 means the request has been fulfilled sucessfully.\n        // You can handle errors by making the same request, making another \n        // request, refunding the user, etc.\n        if (statusCode == 0)\n        {\n            fulfilledData[requestId] = data;\n        }\n    }\n}\n",
  "sourcePath": "/home/kesha/Documents/weather/contracts/RegularRequestClient.sol",
  "compiler": {
    "name": "solc",
    "version": "0.6.12+commit.27d51765.Emscripten.clang"
  },
  "schemaVersion": "3.4.1",
  "updatedAt": "2021-06-19T13:41:23.247Z",
  "devdoc": {
    "kind": "dev",
    "methods": {
      "airnodeAddress()": {
        "returns": {
          "_airnodeAddress": "Airnode contract address"
        }
      },
      "isOwner()": {
        "returns": {
          "_0": "true if `msg.sender` is the owner of the contract."
        }
      },
      "owner()": {
        "returns": {
          "_0": "the address of the owner."
        }
      },
      "renounceOwnership()": {
        "details": "Allows the current owner to relinquish control of the contract."
      },
      "transferOwnership(address)": {
        "details": "Allows the current owner to transfer control of the contract to a newOwner.",
        "params": {
          "newOwner": "The address to transfer ownership to."
        }
      }
    },
    "version": 1
  },
  "userdoc": {
    "kind": "user",
    "methods": {
      "airnodeAddress()": {
        "notice": "Returns the Airnode contract address used by this client"
      },
      "renounceOwnership()": {
        "notice": "Renouncing to ownership will leave the contract without an owner. It will not be possible to call the functions with the `onlyOwner` modifier anymore."
      }
    },
    "version": 1
  }
}