{
  "contractName": "TransferRequestClient",
  "abi": [
    {
      "inputs": [
        {
          "internalType": "address",
          "name": "airnodeAddress",
          "type": "address"
        }
      ],
      "stateMutability": "nonpayable",
      "type": "constructor"
    },
    {
      "anonymous": false,
      "inputs": [
        {
          "indexed": true,
          "internalType": "address",
          "name": "previousOwner",
          "type": "address"
        }
      ],
      "name": "OwnershipRenounced",
      "type": "event"
    },
    {
      "anonymous": false,
      "inputs": [
        {
          "indexed": true,
          "internalType": "address",
          "name": "previousOwner",
          "type": "address"
        },
        {
          "indexed": true,
          "internalType": "address",
          "name": "newOwner",
          "type": "address"
        }
      ],
      "name": "OwnershipTransferred",
      "type": "event"
    },
    {
      "inputs": [],
      "name": "airnode",
      "outputs": [
        {
          "internalType": "contract IAirnode",
          "name": "",
          "type": "address"
        }
      ],
      "stateMutability": "view",
      "type": "function"
    },
    {
      "inputs": [],
      "name": "airnodeAddress",
      "outputs": [
        {
          "internalType": "address",
          "name": "_airnodeAddress",
          "type": "address"
        }
      ],
      "stateMutability": "view",
      "type": "function"
    },
    {
      "inputs": [
        {
          "internalType": "bytes32",
          "name": "",
          "type": "bytes32"
        }
      ],
      "name": "amountSent",
      "outputs": [
        {
          "internalType": "uint256",
          "name": "",
          "type": "uint256"
        }
      ],
      "stateMutability": "view",
      "type": "function"
    },
    {
      "inputs": [],
      "name": "creator",
      "outputs": [
        {
          "internalType": "address",
          "name": "",
          "type": "address"
        }
      ],
      "stateMutability": "view",
      "type": "function"
    },
    {
      "inputs": [
        {
          "internalType": "bytes32",
          "name": "",
          "type": "bytes32"
        }
      ],
      "name": "dataRecepient",
      "outputs": [
        {
          "internalType": "address",
          "name": "",
          "type": "address"
        }
      ],
      "stateMutability": "view",
      "type": "function"
    },
    {
      "inputs": [
        {
          "internalType": "uint256",
          "name": "",
          "type": "uint256"
        }
      ],
      "name": "exchangeAddresses",
      "outputs": [
        {
          "internalType": "address",
          "name": "",
          "type": "address"
        }
      ],
      "stateMutability": "view",
      "type": "function"
    },
    {
      "inputs": [
        {
          "internalType": "bytes32",
          "name": "",
          "type": "bytes32"
        }
      ],
      "name": "exchangeParty",
      "outputs": [
        {
          "internalType": "address",
          "name": "",
          "type": "address"
        }
      ],
      "stateMutability": "view",
      "type": "function"
    },
    {
      "inputs": [
        {
          "internalType": "bytes32",
          "name": "",
          "type": "bytes32"
        }
      ],
      "name": "fulfilledData",
      "outputs": [
        {
          "internalType": "uint256",
          "name": "",
          "type": "uint256"
        }
      ],
      "stateMutability": "view",
      "type": "function"
    },
    {
      "inputs": [
        {
          "internalType": "bytes32",
          "name": "",
          "type": "bytes32"
        }
      ],
      "name": "incomingFulfillments",
      "outputs": [
        {
          "internalType": "bool",
          "name": "",
          "type": "bool"
        }
      ],
      "stateMutability": "view",
      "type": "function"
    },
    {
      "inputs": [],
      "name": "isOwner",
      "outputs": [
        {
          "internalType": "bool",
          "name": "",
          "type": "bool"
        }
      ],
      "stateMutability": "view",
      "type": "function"
    },
    {
      "inputs": [],
      "name": "owner",
      "outputs": [
        {
          "internalType": "address",
          "name": "",
          "type": "address"
        }
      ],
      "stateMutability": "view",
      "type": "function"
    },
    {
      "inputs": [],
      "name": "renounceOwnership",
      "outputs": [],
      "stateMutability": "nonpayable",
      "type": "function"
    },
    {
      "inputs": [
        {
          "internalType": "bytes32",
          "name": "",
          "type": "bytes32"
        }
      ],
      "name": "tokenName",
      "outputs": [
        {
          "internalType": "string",
          "name": "",
          "type": "string"
        }
      ],
      "stateMutability": "view",
      "type": "function"
    },
    {
      "inputs": [
        {
          "internalType": "address",
          "name": "newOwner",
          "type": "address"
        }
      ],
      "name": "transferOwnership",
      "outputs": [],
      "stateMutability": "nonpayable",
      "type": "function"
    },
    {
      "inputs": [
        {
          "internalType": "address",
          "name": "",
          "type": "address"
        }
      ],
      "name": "users",
      "outputs": [
        {
          "internalType": "string",
          "name": "name",
          "type": "string"
        },
        {
          "internalType": "string",
          "name": "userType",
          "type": "string"
        },
        {
          "internalType": "bool",
          "name": "exists",
          "type": "bool"
        },
        {
          "internalType": "uint256",
          "name": "btcBalance",
          "type": "uint256"
        },
        {
          "internalType": "uint256",
          "name": "dollarBalance",
          "type": "uint256"
        }
      ],
      "stateMutability": "view",
      "type": "function"
    },
    {
      "inputs": [
        {
          "internalType": "string",
          "name": "a",
          "type": "string"
        },
        {
          "internalType": "string",
          "name": "b",
          "type": "string"
        }
      ],
      "name": "compareStrings",
      "outputs": [
        {
          "internalType": "bool",
          "name": "",
          "type": "bool"
        }
      ],
      "stateMutability": "pure",
      "type": "function"
    },
    {
      "inputs": [
        {
          "internalType": "string",
          "name": "_name",
          "type": "string"
        }
      ],
      "name": "registerAsExchange",
      "outputs": [
        {
          "internalType": "bool",
          "name": "",
          "type": "bool"
        }
      ],
      "stateMutability": "nonpayable",
      "type": "function"
    },
    {
      "inputs": [
        {
          "internalType": "string",
          "name": "_name",
          "type": "string"
        }
      ],
      "name": "registerAsUser",
      "outputs": [
        {
          "internalType": "bool",
          "name": "",
          "type": "bool"
        }
      ],
      "stateMutability": "nonpayable",
      "type": "function"
    },
    {
      "inputs": [
        {
          "internalType": "string",
          "name": "_currency",
          "type": "string"
        }
      ],
      "name": "getBalance",
      "outputs": [
        {
          "internalType": "uint256",
          "name": "",
          "type": "uint256"
        }
      ],
      "stateMutability": "view",
      "type": "function"
    },
    {
      "inputs": [
        {
          "internalType": "address payable",
          "name": "_receiver",
          "type": "address"
        }
      ],
      "name": "transferEth",
      "outputs": [],
      "stateMutability": "payable",
      "type": "function"
    },
    {
      "inputs": [
        {
          "internalType": "address",
          "name": "_receiver",
          "type": "address"
        },
        {
          "internalType": "uint256",
          "name": "_amount",
          "type": "uint256"
        },
        {
          "internalType": "string",
          "name": "_currency",
          "type": "string"
        }
      ],
      "name": "transferToken",
      "outputs": [],
      "stateMutability": "payable",
      "type": "function"
    },
    {
      "inputs": [
        {
          "internalType": "address payable",
          "name": "_address",
          "type": "address"
        },
        {
          "internalType": "uint256",
          "name": "_amount",
          "type": "uint256"
        },
        {
          "internalType": "string",
          "name": "_currency",
          "type": "string"
        }
      ],
      "name": "deposit",
      "outputs": [],
      "stateMutability": "payable",
      "type": "function"
    },
    {
      "inputs": [],
      "name": "getExchangeList",
      "outputs": [
        {
          "internalType": "address[]",
          "name": "",
          "type": "address[]"
        }
      ],
      "stateMutability": "view",
      "type": "function"
    },
    {
      "inputs": [
        {
          "internalType": "string",
          "name": "_token_name",
          "type": "string"
        },
        {
          "internalType": "address",
          "name": "_exchange_address",
          "type": "address"
        },
        {
          "internalType": "bytes32",
          "name": "providerId",
          "type": "bytes32"
        },
        {
          "internalType": "bytes32",
          "name": "endpointId",
          "type": "bytes32"
        },
        {
          "internalType": "uint256",
          "name": "requesterInd",
          "type": "uint256"
        },
        {
          "internalType": "address",
          "name": "designatedWallet",
          "type": "address"
        },
        {
          "internalType": "bytes",
          "name": "parameters",
          "type": "bytes"
        }
      ],
      "name": "exchangeEthForToken",
      "outputs": [],
      "stateMutability": "payable",
      "type": "function"
    },
    {
      "inputs": [
        {
          "internalType": "bytes32",
          "name": "requestId",
          "type": "bytes32"
        },
        {
          "internalType": "uint256",
          "name": "statusCode",
          "type": "uint256"
        },
        {
          "internalType": "bytes32",
          "name": "data",
          "type": "bytes32"
        }
      ],
      "name": "fulfill",
      "outputs": [],
      "stateMutability": "nonpayable",
      "type": "function"
    }
  ],
  "bytecode": "0x60806040523480156200001157600080fd5b5060405162003b6138038062003b61833981810160405260208110156200003757600080fd5b810190808051906020019092919050505080806000806101000a81548173ffffffffffffffffffffffffffffffffffffffff021916908373ffffffffffffffffffffffffffffffffffffffff1602179055505033600160006101000a81548173ffffffffffffffffffffffffffffffffffffffff021916908373ffffffffffffffffffffffffffffffffffffffff16021790555033600860006101000a81548173ffffffffffffffffffffffffffffffffffffffff021916908373ffffffffffffffffffffffffffffffffffffffff1602179055506103e860096000600860009054906101000a900473ffffffffffffffffffffffffffffffffffffffff1673ffffffffffffffffffffffffffffffffffffffff1673ffffffffffffffffffffffffffffffffffffffff1681526020019081526020016000206003018190555061753060096000600860009054906101000a900473ffffffffffffffffffffffffffffffffffffffff1673ffffffffffffffffffffffffffffffffffffffff1673ffffffffffffffffffffffffffffffffffffffff168152602001908152602001600020600401819055506040518060400160405280600581526020017f61646d696e00000000000000000000000000000000000000000000000000000081525060096000600860009054906101000a900473ffffffffffffffffffffffffffffffffffffffff1673ffffffffffffffffffffffffffffffffffffffff1673ffffffffffffffffffffffffffffffffffffffff168152602001908152602001600020600001908051906020019062000291929190620003c6565b50600160096000600860009054906101000a900473ffffffffffffffffffffffffffffffffffffffff1673ffffffffffffffffffffffffffffffffffffffff1673ffffffffffffffffffffffffffffffffffffffff16815260200190815260200160002060020160006101000a81548160ff0219169083151502179055506040518060400160405280600581526020017f61646d696e00000000000000000000000000000000000000000000000000000081525060096000600860009054906101000a900473ffffffffffffffffffffffffffffffffffffffff1673ffffffffffffffffffffffffffffffffffffffff1673ffffffffffffffffffffffffffffffffffffffff1681526020019081526020016000206001019080519060200190620003be929190620003c6565b50506200046c565b828054600181600116156101000203166002900490600052602060002090601f016020900481019282601f106200040957805160ff19168380011785556200043a565b828001600101855582156200043a579182015b82811115620004395782518255916020019190600101906200041c565b5b5090506200044991906200044d565b5090565b5b80821115620004685760008160009055506001016200044e565b5090565b6136e5806200047c6000396000f3fe6080604052600436106101665760003560e01c80638f32d59b116100d1578063c0d7d4301161008a578063dab68e4211610064578063dab68e4214610d33578063dd2ae83f14610de7578063e748135d14610e38578063f2fde38b14610f1657610166565b8063c0d7d43014610b35578063d0bdd66c14610ca3578063d3bd146414610ce457610166565b80638f32d59b146106b45780639130e182146106e1578063a36ff4d81461074d578063a87430ba1461078e578063bed34bba146108db578063bfe07da614610a5057610166565b8063406c6d6c11610123578063406c6d6c14610465578063515ef106146104b45780635c0715a3146105925780637077ae05146105f7578063715018a61461065c5780638da5cb5b1461067357610166565b806302d05d3f1461016b57806303dcdfe4146101ac5780630c2035411461021157806310228dc31461026057806330df47af146103455780633a51d24614610389575b600080fd5b34801561017757600080fd5b50610180610f67565b604051808273ffffffffffffffffffffffffffffffffffffffff16815260200191505060405180910390f35b3480156101b857600080fd5b506101e5600480360360208110156101cf57600080fd5b8101908080359060200190929190505050610f8d565b604051808273ffffffffffffffffffffffffffffffffffffffff16815260200191505060405180910390f35b34801561021d57600080fd5b5061024a6004803603602081101561023457600080fd5b8101908080359060200190929190505050610fc9565b6040518082815260200191505060405180910390f35b6103436004803603606081101561027657600080fd5b81019080803573ffffffffffffffffffffffffffffffffffffffff16906020019092919080359060200190929190803590602001906401000000008111156102bd57600080fd5b8201836020820111156102cf57600080fd5b803590602001918460018302840111640100000000831117156102f157600080fd5b91908080601f016020809104026020016040519081016040528093929190818152602001838380828437600081840152601f19601f820116905080830192505050505050509192919290505050610fe1565b005b6103876004803603602081101561035b57600080fd5b81019080803573ffffffffffffffffffffffffffffffffffffffff169060200190929190505050611548565b005b34801561039557600080fd5b5061044f600480360360208110156103ac57600080fd5b81019080803590602001906401000000008111156103c957600080fd5b8201836020820111156103db57600080fd5b803590602001918460018302840111640100000000831117156103fd57600080fd5b91908080601f016020809104026020016040519081016040528093929190818152602001838380828437600081840152601f19601f8201169050808301925050505050505091929192905050506116b6565b6040518082815260200191505060405180910390f35b34801561047157600080fd5b5061049e6004803603602081101561048857600080fd5b8101908080359060200190929190505050611995565b6040518082815260200191505060405180910390f35b3480156104c057600080fd5b5061057a600480360360208110156104d757600080fd5b81019080803590602001906401000000008111156104f457600080fd5b82018360208201111561050657600080fd5b8035906020019184600183028401116401000000008311171561052857600080fd5b91908080601f016020809104026020016040519081016040528093929190818152602001838380828437600081840152601f19601f8201169050808301925050505050505091929192905050506119ad565b60405180821515815260200191505060405180910390f35b34801561059e57600080fd5b506105cb600480360360208110156105b557600080fd5b8101908080359060200190929190505050611d24565b604051808273ffffffffffffffffffffffffffffffffffffffff16815260200191505060405180910390f35b34801561060357600080fd5b506106306004803603602081101561061a57600080fd5b8101908080359060200190929190505050611d57565b604051808273ffffffffffffffffffffffffffffffffffffffff16815260200191505060405180910390f35b34801561066857600080fd5b50610671611d8a565b005b34801561067f57600080fd5b50610688611e44565b604051808273ffffffffffffffffffffffffffffffffffffffff16815260200191505060405180910390f35b3480156106c057600080fd5b506106c9611e6e565b60405180821515815260200191505060405180910390f35b3480156106ed57600080fd5b506106f6611ec6565b6040518080602001828103825283818151815260200191508051906020019060200280838360005b8381101561073957808201518184015260208101905061071e565b505050509050019250505060405180910390f35b34801561075957600080fd5b50610762611f54565b604051808273ffffffffffffffffffffffffffffffffffffffff16815260200191505060405180910390f35b34801561079a57600080fd5b506107dd600480360360208110156107b157600080fd5b81019080803573ffffffffffffffffffffffffffffffffffffffff169060200190929190505050611f78565b6040518080602001806020018615158152602001858152602001848152602001838103835288818151815260200191508051906020019080838360005b8381101561083557808201518184015260208101905061081a565b50505050905090810190601f1680156108625780820380516001836020036101000a031916815260200191505b50838103825287818151815260200191508051906020019080838360005b8381101561089b578082015181840152602081019050610880565b50505050905090810190601f1680156108c85780820380516001836020036101000a031916815260200191505b5097505050505050505060405180910390f35b3480156108e757600080fd5b50610a38600480360360408110156108fe57600080fd5b810190808035906020019064010000000081111561091b57600080fd5b82018360208201111561092d57600080fd5b8035906020019184600183028401116401000000008311171561094f57600080fd5b91908080601f016020809104026020016040519081016040528093929190818152602001838380828437600081840152601f19601f820116905080830192505050505050509192919290803590602001906401000000008111156109b257600080fd5b8201836020820111156109c457600080fd5b803590602001918460018302840111640100000000831117156109e657600080fd5b91908080601f016020809104026020016040519081016040528093929190818152602001838380828437600081840152601f19601f8201169050808301925050505050505091929192905050506120eb565b60405180821515815260200191505060405180910390f35b610b3360048036036060811015610a6657600080fd5b81019080803573ffffffffffffffffffffffffffffffffffffffff1690602001909291908035906020019092919080359060200190640100000000811115610aad57600080fd5b820183602082011115610abf57600080fd5b80359060200191846001830284011164010000000083111715610ae157600080fd5b91908080601f016020809104026020016040519081016040528093929190818152602001838380828437600081840152601f19601f8201169050808301925050505050505091929192905050506121da565b005b610ca1600480360360e0811015610b4b57600080fd5b8101908080359060200190640100000000811115610b6857600080fd5b820183602082011115610b7a57600080fd5b80359060200191846001830284011164010000000083111715610b9c57600080fd5b91908080601f016020809104026020016040519081016040528093929190818152602001838380828437600081840152601f19601f820116905080830192505050505050509192919290803573ffffffffffffffffffffffffffffffffffffffff169060200190929190803590602001909291908035906020019092919080359060200190929190803573ffffffffffffffffffffffffffffffffffffffff16906020019092919080359060200190640100000000811115610c5d57600080fd5b820183602082011115610c6f57600080fd5b80359060200191846001830284011164010000000083111715610c9157600080fd5b9091929391929390505050612503565b005b348015610caf57600080fd5b50610cb8612918565b604051808273ffffffffffffffffffffffffffffffffffffffff16815260200191505060405180910390f35b348015610cf057600080fd5b50610d3160048036036060811015610d0757600080fd5b81019080803590602001909291908035906020019092919080359060200190929190505050612941565b005b348015610d3f57600080fd5b50610d6c60048036036020811015610d5657600080fd5b8101908080359060200190929190505050612fb4565b6040518080602001828103825283818151815260200191508051906020019080838360005b83811015610dac578082015181840152602081019050610d91565b50505050905090810190601f168015610dd95780820380516001836020036101000a031916815260200191505b509250505060405180910390f35b348015610df357600080fd5b50610e2060048036036020811015610e0a57600080fd5b8101908080359060200190929190505050613064565b60405180821515815260200191505060405180910390f35b348015610e4457600080fd5b50610efe60048036036020811015610e5b57600080fd5b8101908080359060200190640100000000811115610e7857600080fd5b820183602082011115610e8a57600080fd5b80359060200191846001830284011164010000000083111715610eac57600080fd5b91908080601f016020809104026020016040519081016040528093929190818152602001838380828437600081840152601f19601f820116905080830192505050505050509192919290505050613084565b60405180821515815260200191505060405180910390f35b348015610f2257600080fd5b50610f6560048036036020811015610f3957600080fd5b81019080803573ffffffffffffffffffffffffffffffffffffffff169060200190929190505050613461565b005b600860009054906101000a900473ffffffffffffffffffffffffffffffffffffffff1681565b600a8181548110610f9a57fe5b906000526020600020016000915054906101000a900473ffffffffffffffffffffffffffffffffffffffff1681565b60066020528060005260406000206000915090505481565b8082600960003373ffffffffffffffffffffffffffffffffffffffff1673ffffffffffffffffffffffffffffffffffffffff16815260200190815260200160002060020160009054906101000a900460ff16156112aa57611077826040518060400160405280600381526020017f62746300000000000000000000000000000000000000000000000000000000008152506120eb565b156111395780600960003373ffffffffffffffffffffffffffffffffffffffff1673ffffffffffffffffffffffffffffffffffffffff168152602001908152602001600020600301541015611134576040517f08c379a00000000000000000000000000000000000000000000000000000000081526004018080602001828103825260158152602001807f6e6f2073756666696369656e742062616c616e6365000000000000000000000081525060200191505060405180910390fd5b6112a9565b611178826040518060400160405280600381526020017f75736400000000000000000000000000000000000000000000000000000000008152506120eb565b1561123a5780600960003373ffffffffffffffffffffffffffffffffffffffff1673ffffffffffffffffffffffffffffffffffffffff168152602001908152602001600020600401541015611235576040517f08c379a00000000000000000000000000000000000000000000000000000000081526004018080602001828103825260158152602001807f6e6f2073756666696369656e742062616c616e6365000000000000000000000081525060200191505060405180910390fd5b6112a8565b6040517f08c379a00000000000000000000000000000000000000000000000000000000081526004018080602001828103825260168152602001807f736f6d657468696e67206261642068617070656e65640000000000000000000081525060200191505060405180910390fd5b5b5b600960003373ffffffffffffffffffffffffffffffffffffffff1673ffffffffffffffffffffffffffffffffffffffff16815260200190815260200160002060020160009054906101000a900460ff16156115415761133e836040518060400160405280600381526020017f62746300000000000000000000000000000000000000000000000000000000008152506120eb565b156113e85783600960003373ffffffffffffffffffffffffffffffffffffffff1673ffffffffffffffffffffffffffffffffffffffff1681526020019081526020016000206003016000828254039250508190555083600960008773ffffffffffffffffffffffffffffffffffffffff1673ffffffffffffffffffffffffffffffffffffffff16815260200190815260200160002060030160008282540192505081905550611540565b611427836040518060400160405280600381526020017f75736400000000000000000000000000000000000000000000000000000000008152506120eb565b156114d15783600960003373ffffffffffffffffffffffffffffffffffffffff1673ffffffffffffffffffffffffffffffffffffffff1681526020019081526020016000206004016000828254039250508190555083600960008773ffffffffffffffffffffffffffffffffffffffff1673ffffffffffffffffffffffffffffffffffffffff1681526020019081526020016000206004016000828254019250508190555061153f565b6040517f08c379a00000000000000000000000000000000000000000000000000000000081526004018080602001828103825260168152602001807f536f6d657468696e67206261642068617070656e65640000000000000000000081525060200191505060405180910390fd5b5b5b5050505050565b34600960003373ffffffffffffffffffffffffffffffffffffffff1673ffffffffffffffffffffffffffffffffffffffff16815260200190815260200160002060020160009054906101000a900460ff16156116155780341015611614576040517f08c379a00000000000000000000000000000000000000000000000000000000081526004018080602001828103825260148152602001807f696e73756666696369656e742062616c616e636500000000000000000000000081525060200191505060405180910390fd5b5b600960003373ffffffffffffffffffffffffffffffffffffffff1673ffffffffffffffffffffffffffffffffffffffff16815260200190815260200160002060020160009054906101000a900460ff16156116b2578173ffffffffffffffffffffffffffffffffffffffff166108fc349081150290604051600060405180830381858888f193505050501580156116b0573d6000803e3d6000fd5b505b5050565b60003360011515600960008373ffffffffffffffffffffffffffffffffffffffff1673ffffffffffffffffffffffffffffffffffffffff16815260200190815260200160002060020160009054906101000a900460ff16151514611782576040517f08c379a000000000000000000000000000000000000000000000000000000000815260040180806020018281038252601b8152602001807f4f6f6f707320212055736572206e6f742072656769737465726564000000000081525060200191505060405180910390fd5b61179b83604051806020016040528060008152506120eb565b806117e157506117e0836040518060400160405280600381526020017f65746800000000000000000000000000000000000000000000000000000000008152506120eb565b5b15611805573373ffffffffffffffffffffffffffffffffffffffff1631915061198f565b611844836040518060400160405280600381526020017f62746300000000000000000000000000000000000000000000000000000000008152506120eb565b1561189357600960003373ffffffffffffffffffffffffffffffffffffffff1673ffffffffffffffffffffffffffffffffffffffff16815260200190815260200160002060030154915061198f565b6118d2836040518060400160405280600381526020017f75736400000000000000000000000000000000000000000000000000000000008152506120eb565b1561192157600960003373ffffffffffffffffffffffffffffffffffffffff1673ffffffffffffffffffffffffffffffffffffffff16815260200190815260200160002060040154915061198f565b6040517f08c379a00000000000000000000000000000000000000000000000000000000081526004018080602001828103825260168152602001807f536f6d657468696e67206261642068617070656e65640000000000000000000081525060200191505060405180910390fd5b50919050565b60036020528060005260406000206000915090505481565b60008160001515600b826040518082805190602001908083835b602083106119ea57805182526020820191506020810190506020830392506119c7565b6001836020036101000a038019825116818451168082178552505050505050905001915050908152602001604051809103902060009054906101000a900460ff16151514611aa0576040517f08c379a000000000000000000000000000000000000000000000000000000000815260040180806020018281038252601b8152602001807f4f6f6f70732021204e616d6520616c726561647920657869737473000000000081525060200191505060405180910390fd5b60001515600960003373ffffffffffffffffffffffffffffffffffffffff1673ffffffffffffffffffffffffffffffffffffffff16815260200190815260200160002060020160009054906101000a900460ff16151514611b4c576040517f08c379a000000000000000000000000000000000000000000000000000000000815260040180806020018281038252602281526020018061368e6022913960400191505060405180910390fd5b82600960003373ffffffffffffffffffffffffffffffffffffffff1673ffffffffffffffffffffffffffffffffffffffff1681526020019081526020016000206000019080519060200190611ba2929190613585565b506000600960003373ffffffffffffffffffffffffffffffffffffffff1673ffffffffffffffffffffffffffffffffffffffff168152602001908152602001600020600301819055506000600960003373ffffffffffffffffffffffffffffffffffffffff1673ffffffffffffffffffffffffffffffffffffffff168152602001908152602001600020600401819055506001600960003373ffffffffffffffffffffffffffffffffffffffff1673ffffffffffffffffffffffffffffffffffffffff16815260200190815260200160002060020160006101000a81548160ff0219169083151502179055506040518060400160405280600481526020017f7573657200000000000000000000000000000000000000000000000000000000815250600960003373ffffffffffffffffffffffffffffffffffffffff1673ffffffffffffffffffffffffffffffffffffffff1681526020019081526020016000206001019080519060200190611d19929190613585565b506001915050919050565b60046020528060005260406000206000915054906101000a900473ffffffffffffffffffffffffffffffffffffffff1681565b60056020528060005260406000206000915054906101000a900473ffffffffffffffffffffffffffffffffffffffff1681565b611d92611e6e565b611d9b57600080fd5b600160009054906101000a900473ffffffffffffffffffffffffffffffffffffffff1673ffffffffffffffffffffffffffffffffffffffff167ff8df31144d9c2f0f6b59d69b8b98abd5459d07f2742c4df920b25aae33c6482060405160405180910390a26000600160006101000a81548173ffffffffffffffffffffffffffffffffffffffff021916908373ffffffffffffffffffffffffffffffffffffffff160217905550565b6000600160009054906101000a900473ffffffffffffffffffffffffffffffffffffffff16905090565b6000600160009054906101000a900473ffffffffffffffffffffffffffffffffffffffff1673ffffffffffffffffffffffffffffffffffffffff163373ffffffffffffffffffffffffffffffffffffffff1614905090565b6060600a805480602002602001604051908101604052809291908181526020018280548015611f4a57602002820191906000526020600020905b8160009054906101000a900473ffffffffffffffffffffffffffffffffffffffff1673ffffffffffffffffffffffffffffffffffffffff1681526020019060010190808311611f00575b5050505050905090565b60008054906101000a900473ffffffffffffffffffffffffffffffffffffffff1681565b6009602052806000526040600020600091509050806000018054600181600116156101000203166002900480601f0160208091040260200160405190810160405280929190818152602001828054600181600116156101000203166002900480156120245780601f10611ff957610100808354040283529160200191612024565b820191906000526020600020905b81548152906001019060200180831161200757829003601f168201915b505050505090806001018054600181600116156101000203166002900480601f0160208091040260200160405190810160405280929190818152602001828054600181600116156101000203166002900480156120c25780601f10612097576101008083540402835291602001916120c2565b820191906000526020600020905b8154815290600101906020018083116120a557829003601f168201915b5050505050908060020160009054906101000a900460ff16908060030154908060040154905085565b6000816040516020018082805190602001908083835b602083106121245780518252602082019150602081019050602083039250612101565b6001836020036101000a03801982511681845116808217855250505050505090500191505060405160208183030381529060405280519060200120836040516020018082805190602001908083835b602083106121965780518252602082019150602081019050602083039250612173565b6001836020036101000a0380198251168184511680821785525050505050509050019150506040516020818303038152906040528051906020012014905092915050565b600860009054906101000a900473ffffffffffffffffffffffffffffffffffffffff1673ffffffffffffffffffffffffffffffffffffffff163373ffffffffffffffffffffffffffffffffffffffff1614612280576040517f08c379a000000000000000000000000000000000000000000000000000000000815260040180806020018281038252602381526020018061366b6023913960400191505060405180910390fd5b6122bf816040518060400160405280600381526020017f62746300000000000000000000000000000000000000000000000000000000008152506120eb565b1561238b5781600960008573ffffffffffffffffffffffffffffffffffffffff1673ffffffffffffffffffffffffffffffffffffffff168152602001908152602001600020600301600082825401925050819055508160096000600860009054906101000a900473ffffffffffffffffffffffffffffffffffffffff1673ffffffffffffffffffffffffffffffffffffffff1673ffffffffffffffffffffffffffffffffffffffff168152602001908152602001600020600301600082825403925050819055506124fe565b6123ca816040518060400160405280600381526020017f75736400000000000000000000000000000000000000000000000000000000008152506120eb565b156124965781600960008573ffffffffffffffffffffffffffffffffffffffff1673ffffffffffffffffffffffffffffffffffffffff168152602001908152602001600020600401600082825401925050819055508160096000600860009054906101000a900473ffffffffffffffffffffffffffffffffffffffff1673ffffffffffffffffffffffffffffffffffffffff1673ffffffffffffffffffffffffffffffffffffffff168152602001908152602001600020600401600082825403925050819055506124fd565b6124af81604051806020016040528060008152506120eb565b156124fc578273ffffffffffffffffffffffffffffffffffffffff166108fc349081150290604051600060405180830381858888f193505050501580156124fa573d6000803e3d6000fd5b505b5b5b505050565b3360011515600960008373ffffffffffffffffffffffffffffffffffffffff1673ffffffffffffffffffffffffffffffffffffffff16815260200190815260200160002060020160009054906101000a900460ff161515146125cd576040517f08c379a000000000000000000000000000000000000000000000000000000000815260040180806020018281038252601b8152602001807f4f6f6f707320212055736572206e6f742072656769737465726564000000000081525060200191505060405180910390fd5b34600960003373ffffffffffffffffffffffffffffffffffffffff1673ffffffffffffffffffffffffffffffffffffffff16815260200190815260200160002060020160009054906101000a900460ff161561269a5780341015612699576040517f08c379a00000000000000000000000000000000000000000000000000000000081526004018080602001828103825260148152602001807f696e73756666696369656e742062616c616e636500000000000000000000000081525060200191505060405180910390fd5b5b60008060009054906101000a900473ffffffffffffffffffffffffffffffffffffffff1673ffffffffffffffffffffffffffffffffffffffff1663dce9c2768a8a8a8a3063d3bd146460e01b8c8c6040518963ffffffff1660e01b8152600401808981526020018881526020018781526020018673ffffffffffffffffffffffffffffffffffffffff1681526020018573ffffffffffffffffffffffffffffffffffffffff168152602001847bffffffffffffffffffffffffffffffffffffffffffffffffffffffff19168152602001806020018281038252848482818152602001925080828437600081840152601f19601f8201169050808301925050509950505050505050505050602060405180830381600087803b1580156127be57600080fd5b505af11580156127d2573d6000803e3d6000fd5b505050506040513d60208110156127e857600080fd5b81019080805190602001909291905050509050336004600083815260200190815260200160002060006101000a81548173ffffffffffffffffffffffffffffffffffffffff021916908373ffffffffffffffffffffffffffffffffffffffff1602179055508a600760008381526020019081526020016000209080519060200190612874929190613585565b50346006600083815260200190815260200160002081905550896005600083815260200190815260200160002060006101000a81548173ffffffffffffffffffffffffffffffffffffffff021916908373ffffffffffffffffffffffffffffffffffffffff16021790555060016002600083815260200190815260200160002060006101000a81548160ff0219169083151502179055505050505050505050505050565b60008060009054906101000a900473ffffffffffffffffffffffffffffffffffffffff16905090565b60008054906101000a900473ffffffffffffffffffffffffffffffffffffffff1673ffffffffffffffffffffffffffffffffffffffff163373ffffffffffffffffffffffffffffffffffffffff1614612a02576040517f08c379a000000000000000000000000000000000000000000000000000000000815260040180806020018281038252601f8152602001807f43616c6c6572206e6f7420746865204169726e6f646520636f6e74726163740081525060200191505060405180910390fd5b6002600084815260200190815260200160002060009054906101000a900460ff16612a95576040517f08c379a00000000000000000000000000000000000000000000000000000000081526004018080602001828103825260148152602001807f4e6f20737563682072657175657374206d61646500000000000000000000000081525060200191505060405180910390fd5b6002600084815260200190815260200160002060006101000a81549060ff02191690556000821415612faf578060001c60036000858152602001908152602001600020819055506005600084815260200190815260200160002060009054906101000a900473ffffffffffffffffffffffffffffffffffffffff1673ffffffffffffffffffffffffffffffffffffffff166108fc60066000868152602001908152602001600020549081150290604051600060405180830381858888f19350505050158015612b68573d6000803e3d6000fd5b50612c53600760008581526020019081526020016000208054600181600116156101000203166002900480601f016020809104026020016040519081016040528092919081815260200182805460018160011615610100020316600290048015612c135780601f10612be857610100808354040283529160200191612c13565b820191906000526020600020905b815481529060010190602001808311612bf657829003601f168201915b50505050506040518060400160405280600381526020017f75736400000000000000000000000000000000000000000000000000000000008152506120eb565b15612d5057612c64600a600661347e565b60066000858152602001908152602001600020548260001c0281612c8457fe5b04600960006004600087815260200190815260200160002060009054906101000a900473ffffffffffffffffffffffffffffffffffffffff1673ffffffffffffffffffffffffffffffffffffffff1673ffffffffffffffffffffffffffffffffffffffff16815260200190815260200160002060040160008282540192505081905550612d13600a600661347e565b60066000858152602001908152602001600020548260001c0281612d3357fe5b046003600085815260200190815260200160002081905550612f0c565b612e3a600760008581526020019081526020016000208054600181600116156101000203166002900480601f016020809104026020016040519081016040528092919081815260200182805460018160011615610100020316600290048015612dfa5780601f10612dcf57610100808354040283529160200191612dfa565b820191906000526020600020905b815481529060010190602001808311612ddd57829003601f168201915b50505050506040518060400160405280600381526020017f62746300000000000000000000000000000000000000000000000000000000008152506120eb565b15612f0b5760066000848152602001908152602001600020548160001c02600960006004600087815260200190815260200160002060009054906101000a900473ffffffffffffffffffffffffffffffffffffffff1673ffffffffffffffffffffffffffffffffffffffff1673ffffffffffffffffffffffffffffffffffffffff1681526020019081526020016000206003016000828254019250508190555060066000848152602001908152602001600020548160001c0260036000858152602001908152602001600020819055505b5b6004600084815260200190815260200160002060006101000a81549073ffffffffffffffffffffffffffffffffffffffff0219169055600760008481526020019081526020016000206000612f619190613605565b60066000848152602001908152602001600020600090556005600084815260200190815260200160002060006101000a81549073ffffffffffffffffffffffffffffffffffffffff02191690555b505050565b60076020528060005260406000206000915090508054600181600116156101000203166002900480601f01602080910402602001604051908101604052809291908181526020018280546001816001161561010002031660029004801561305c5780601f106130315761010080835404028352916020019161305c565b820191906000526020600020905b81548152906001019060200180831161303f57829003601f168201915b505050505081565b60026020528060005260406000206000915054906101000a900460ff1681565b60008160001515600b826040518082805190602001908083835b602083106130c1578051825260208201915060208101905060208303925061309e565b6001836020036101000a038019825116818451168082178552505050505050905001915050908152602001604051809103902060009054906101000a900460ff16151514613177576040517f08c379a000000000000000000000000000000000000000000000000000000000815260040180806020018281038252601b8152602001807f4f6f6f70732021204e616d6520616c726561647920657869737473000000000081525060200191505060405180910390fd5b60001515600960003373ffffffffffffffffffffffffffffffffffffffff1673ffffffffffffffffffffffffffffffffffffffff16815260200190815260200160002060020160009054906101000a900460ff16151514613223576040517f08c379a000000000000000000000000000000000000000000000000000000000815260040180806020018281038252602281526020018061368e6022913960400191505060405180910390fd5b82600960003373ffffffffffffffffffffffffffffffffffffffff1673ffffffffffffffffffffffffffffffffffffffff1681526020019081526020016000206000019080519060200190613279929190613585565b506103e8600960003373ffffffffffffffffffffffffffffffffffffffff1673ffffffffffffffffffffffffffffffffffffffff16815260200190815260200160002060030181905550620249f0600960003373ffffffffffffffffffffffffffffffffffffffff1673ffffffffffffffffffffffffffffffffffffffff168152602001908152602001600020600401819055506001600960003373ffffffffffffffffffffffffffffffffffffffff1673ffffffffffffffffffffffffffffffffffffffff16815260200190815260200160002060020160006101000a81548160ff0219169083151502179055506040518060400160405280600881526020017f65786368616e6765000000000000000000000000000000000000000000000000815250600960003373ffffffffffffffffffffffffffffffffffffffff1673ffffffffffffffffffffffffffffffffffffffff16815260200190815260200160002060010190805190602001906133f3929190613585565b50600a339080600181540180825580915050600190039060005260206000200160009091909190916101000a81548173ffffffffffffffffffffffffffffffffffffffff021916908373ffffffffffffffffffffffffffffffffffffffff1602179055506001915050919050565b613469611e6e565b61347257600080fd5b61347b8161348b565b50565b600081830a905092915050565b600073ffffffffffffffffffffffffffffffffffffffff168173ffffffffffffffffffffffffffffffffffffffff1614156134c557600080fd5b8073ffffffffffffffffffffffffffffffffffffffff16600160009054906101000a900473ffffffffffffffffffffffffffffffffffffffff1673ffffffffffffffffffffffffffffffffffffffff167f8be0079c531659141344cd1fd0a4f28419497f9722a3daafe3b4186f6b6457e060405160405180910390a380600160006101000a81548173ffffffffffffffffffffffffffffffffffffffff021916908373ffffffffffffffffffffffffffffffffffffffff16021790555050565b828054600181600116156101000203166002900490600052602060002090601f016020900481019282601f106135c657805160ff19168380011785556135f4565b828001600101855582156135f4579182015b828111156135f35782518255916020019190600101906135d8565b5b509050613601919061364d565b5090565b50805460018160011615610100020316600290046000825580601f1061362b575061364a565b601f016020900490600052602060002090810190613649919061364d565b5b50565b5b8082111561366657600081600090555060010161364e565b509056fe4f6e6c79206f776e65722063616e20696e766f6b6520746869732066756e6374696f6e4f6f6f70732021204164647265737320616c72656164792072656769737465726564a2646970667358221220c1df7cd03d2b24266874620ac04c50eb12fa33f1f7d4b6c4a34105f70c35250864736f6c634300060c0033",
  "immutableReferences": {},
  "source": "pragma solidity >=0.6.12;\nimport \"./Ownable.sol\";\nimport \"@api3/airnode-protocol/contracts/AirnodeClient.sol\";\n\ncontract TransferRequestClient is AirnodeClient,Ownable{\n\n\n    struct User{\n        string name;\n        string userType;\n        bool exists;\n        uint btcBalance;\n        uint dollarBalance;\n    }\n\n\n    mapping(bytes32 => bool) public incomingFulfillments;\n    mapping(bytes32 => uint) public fulfilledData;\n    mapping(bytes32 => address) public dataRecepient;\n    mapping(bytes32 => address) public exchangeParty;\n    mapping(bytes32 => uint) public amountSent;\n    mapping(bytes32 => string) public tokenName;\n\n\n    address public creator;\n    mapping(address => User) public users;\n    address[] public exchangeAddresses;\n    mapping (string => bool) isUsernameTaken;\n\n\n    constructor(address airnodeAddress) public AirnodeClient(airnodeAddress){\n        creator = msg.sender;\n        users[creator].btcBalance = 1000;\n        users[creator].dollarBalance = 30000;\n        users[creator].name = \"admin\";\n        users[creator].exists = true;\n        users[creator].userType = \"admin\";\n    }\n\n\n\n    modifier ownerOnly{\n        require(msg.sender == creator, \"Only owner can invoke this function\");\n        _;\n    }\n\n\n    modifier ifNameExists(string memory _name){\n        require(isUsernameTaken[_name] == false, \"Ooops ! Name already exists\");\n        require(users[msg.sender].exists == false, \"Ooops ! Address already registered\");\n        _;\n    }\n\n    modifier isUserRegistered(address _address){\n        require(users[_address].exists == true, \"Ooops ! User not registered\");\n        _;\n    }\n\n    modifier amountCheck(string memory _currency,uint _amount){\n        if(users[msg.sender].exists){\n            if(compareStrings(_currency,\"btc\")){\n                require(users[msg.sender].btcBalance >= _amount,\"no sufficient balance\");\n            }\n            else if(compareStrings(_currency,\"usd\")){\n                require(users[msg.sender].dollarBalance >= _amount,\"no sufficient balance\");\n            }\n            else{\n                revert('something bad happened');\n                \n            }\n\n        }\n        _;\n    }\n    \n    \n    modifier ethCheck(uint _value){\n        if(users[msg.sender].exists){\n                require(msg.value >= _value,\"insufficient balance\");\n        }\n        _;\n    }\n    \n    /*\n    modifier tokenQuantityCheck(string memory _token_name,address _exchange_address, uint _token_quantity){\n        if(compareStrings(_token_name,\"usd\")){\n            require(users[_exchange_address].dollarBalance >= _token_quantity,\"The exchange doesn't have enough US dollars\");\n        }\n        else if(compareStrings(_token_name,\"btc\")){\n            require(users[_exchange_address].btcBalance >= _token_quantity,\"The exchange doesn't have enough bitcoins\");\n        }\n        else{\n            revert(\"something bad happened\");\n        }\n        _;\n        \n    }\n    */\n    \n\n    function compareStrings(string memory a, string memory b) public pure returns (bool) {\n        return (keccak256(abi.encodePacked((a))) == keccak256(abi.encodePacked((b))));\n    }\n\n    function registerAsExchange(string memory _name) public ifNameExists(_name) returns(bool) {\n        users[msg.sender].name = _name;\n        users[msg.sender].btcBalance = 1000;\n        users[msg.sender].dollarBalance = 150000;\n        users[msg.sender].exists = true;\n        users[msg.sender].userType = \"exchange\";\n        exchangeAddresses.push(msg.sender);\n        return true;\n    }\n\n    function registerAsUser(string memory _name) public ifNameExists(_name) returns(bool){\n        users[msg.sender].name = _name;\n        users[msg.sender].btcBalance = 0;\n        users[msg.sender].dollarBalance = 0;\n        users[msg.sender].exists = true;\n        users[msg.sender].userType = \"user\";\n        return true;\n    }\n\n\n\n\n    function getBalance(string memory _currency) public isUserRegistered(msg.sender) view returns(uint){\n        if(compareStrings(_currency,\"\") || compareStrings(_currency,\"eth\")){\n            return msg.sender.balance;\n        }\n        else if(compareStrings(_currency,\"btc\")){\n            return users[msg.sender].btcBalance;\n        }\n         else if(compareStrings(_currency,\"usd\")){\n            return users[msg.sender].dollarBalance;\n        }\n        else{\n            revert('Something bad happened');\n        }\n        \n    }\n\n\n\n    function transferEth(address payable _receiver) public payable ethCheck(msg.value){\n        if(users[msg.sender].exists){\n            _receiver.transfer(msg.value);\n            //require(sent, \"Failed to send ether\");\n        }\n    }\n    \n    \n    function transferToken(address _receiver, uint _amount, string memory _currency) public payable amountCheck(_currency, _amount){\n\n        if(users[msg.sender].exists){\n            if(compareStrings(_currency,\"btc\")){\n                users[msg.sender].btcBalance -= _amount;\n                users[_receiver].btcBalance += _amount;\n            }\n            else if(compareStrings(_currency,\"usd\")){\n                users[msg.sender].dollarBalance -= _amount;\n                users[_receiver].dollarBalance += _amount;\n            }\n            else{\n                revert('Something bad happened');\n            }\n        }\n    }\n\n\n\n    function deposit(address payable _address,uint _amount,string memory _currency) public payable ownerOnly{\n        if(compareStrings(_currency,\"btc\")){\n            users[_address].btcBalance += _amount;\n            users[creator].btcBalance -= _amount;\n        }\n        else if(compareStrings(_currency,\"usd\")){\n            users[_address].dollarBalance += _amount;\n            users[creator].dollarBalance -= _amount;\n        }\n        else if(compareStrings(_currency,\"\")){\n            _address.transfer(msg.value);\n        }\n    }\n\n\n    function getExchangeList() public view returns(address[] memory){\n        return exchangeAddresses;\n    }\n    \n    \n    \n    function exchangeEthForToken(string memory _token_name,address _exchange_address, bytes32 providerId, bytes32 endpointId, uint requesterInd,address designatedWallet, bytes calldata parameters) public payable isUserRegistered(msg.sender) ethCheck(msg.value){\n        //this.getExchangeRate(_exchange_address, _token_name, 0xd7c601d810ba4e391e3e23307eae641990b99ded048768bef070ce04b2d3f115, 0xf466b8feec41e9e50815e0c9dca4db1ff959637e564bb13fefa99e9f9f90453c, 159,0xead984FC8A4880F33EA53C11aeD2A38b44E3755b ,\"0x3162000000000000000000000000000000000000000000000000000000000000636f696e49640000000000000000000000000000000000000000000000000000626974636f696e00000000000000000000000000000000000000000000000000\", 30);\n         bytes32 requestId = airnode.makeFullRequest(\n            providerId,\n            endpointId,\n            requesterInd,\n            designatedWallet,\n            address(this),\n            this.fulfill.selector,\n            parameters\n        );\n        dataRecepient[requestId] = msg.sender;\n        tokenName[requestId] = _token_name;\n        amountSent[requestId] = msg.value;\n        exchangeParty[requestId] = _exchange_address;\n        incomingFulfillments[requestId] = true;\n    }\n\n\n    function fulfill(bytes32 requestId,uint256 statusCode,bytes32 data) external onlyAirnode()\n    {\n        \n        require(incomingFulfillments[requestId], \"No such request made\");\n        delete incomingFulfillments[requestId];\n        \n        if (statusCode == 0)\n        {\n            fulfilledData[requestId] = uint(data);\n            //(bool sent,bytes memory dat) = exchangeParty[requestId].call{value:amountSent[requestId]}(\"\");\n            payable(exchangeParty[requestId]).transfer(amountSent[requestId]);\n            //require(sent, \"Failed to send ether\");\n            if(compareStrings(tokenName[requestId],\"usd\")){\n              users[dataRecepient[requestId]].dollarBalance += uint(data) * amountSent[requestId] / power(10,6);\n              fulfilledData[requestId] = uint(data) * amountSent[requestId] / power(10,6);\n            }\n            else if(compareStrings(tokenName[requestId],\"btc\")){\n                users[dataRecepient[requestId]].btcBalance += uint(data) * amountSent[requestId];\n                fulfilledData[requestId] = uint(data) * amountSent[requestId];\n\n            }\n            delete dataRecepient[requestId];\n            delete tokenName[requestId];\n            delete amountSent[requestId];\n            delete exchangeParty[requestId];\n            \n            \n        }\n\n    }\n    \n    \n    \n    function power(uint A, uint B) internal pure returns (uint){ \n        return A**B;\n     }\n    \n    /*\n    function asciiToInteger(bytes32 x) internal pure returns (uint256) {\n        uint256 y;\n        for (uint256 i = 0; i < 32; i++) {\n            uint256 c = (uint256(x) >> (i * 8)) & 0xff;\n            if (48 <= c && c <= 57)\n                y += (c - 48) * 10 ** i;\n            else\n                break;\n        }\n        return y;\n    }\n    */\n\n\n\n\n\n\n\n\n\n\n}\n\n",
  "sourcePath": "/home/kesha/Music/uploads/phase_2(truffle)/transfer/contracts/TransferRequestClient.sol",
  "compiler": {
    "name": "solc",
    "version": "0.6.12+commit.27d51765.Emscripten.clang"
  },
  "schemaVersion": "3.4.1",
  "updatedAt": "2021-06-22T20:54:56.277Z",
  "devdoc": {
    "kind": "dev",
    "methods": {
      "airnodeAddress()": {
        "returns": {
          "_airnodeAddress": "Airnode contract address"
        }
      },
      "isOwner()": {
        "returns": {
          "_0": "true if `msg.sender` is the owner of the contract."
        }
      },
      "owner()": {
        "returns": {
          "_0": "the address of the owner."
        }
      },
      "renounceOwnership()": {
        "details": "Allows the current owner to relinquish control of the contract."
      },
      "transferOwnership(address)": {
        "details": "Allows the current owner to transfer control of the contract to a newOwner.",
        "params": {
          "newOwner": "The address to transfer ownership to."
        }
      }
    },
    "version": 1
  },
  "userdoc": {
    "kind": "user",
    "methods": {
      "airnodeAddress()": {
        "notice": "Returns the Airnode contract address used by this client"
      },
      "renounceOwnership()": {
        "notice": "Renouncing to ownership will leave the contract without an owner. It will not be possible to call the functions with the `onlyOwner` modifier anymore."
      }
    },
    "version": 1
  }
}